{
  "abi": [
    {
      "inputs": [
        {
          "internalType": "address",
          "name": "guardian_",
          "type": "address"
        },
        {
          "internalType": "contract Authority",
          "name": "authority_",
          "type": "address"
        }
      ],
      "stateMutability": "nonpayable",
      "type": "constructor"
    },
    {
      "inputs": [],
      "name": "Aggregator_OnlyAuctioneer",
      "type": "error"
    },
    {
      "anonymous": false,
      "inputs": [
        {
          "indexed": true,
          "internalType": "address",
          "name": "user",
          "type": "address"
        },
        {
          "indexed": true,
          "internalType": "contract Authority",
          "name": "newAuthority",
          "type": "address"
        }
      ],
      "name": "AuthorityUpdated",
      "type": "event"
    },
    {
      "anonymous": false,
      "inputs": [
        {
          "indexed": true,
          "internalType": "address",
          "name": "user",
          "type": "address"
        },
        {
          "indexed": true,
          "internalType": "address",
          "name": "newOwner",
          "type": "address"
        }
      ],
      "name": "OwnerUpdated",
      "type": "event"
    },
    {
      "inputs": [
        {
          "internalType": "uint256",
          "name": "",
          "type": "uint256"
        }
      ],
      "name": "auctioneers",
      "outputs": [
        {
          "internalType": "contract IBondAuctioneer",
          "name": "",
          "type": "address"
        }
      ],
      "stateMutability": "view",
      "type": "function"
    },
    {
      "inputs": [],
      "name": "authority",
      "outputs": [
        {
          "internalType": "contract Authority",
          "name": "",
          "type": "address"
        }
      ],
      "stateMutability": "view",
      "type": "function"
    },
    {
      "inputs": [
        {
          "internalType": "uint256",
          "name": "id_",
          "type": "uint256"
        }
      ],
      "name": "currentCapacity",
      "outputs": [
        {
          "internalType": "uint256",
          "name": "",
          "type": "uint256"
        }
      ],
      "stateMutability": "view",
      "type": "function"
    },
    {
      "inputs": [
        {
          "internalType": "address",
          "name": "payout_",
          "type": "address"
        },
        {
          "internalType": "address",
          "name": "quote_",
          "type": "address"
        },
        {
          "internalType": "uint256",
          "name": "amountIn_",
          "type": "uint256"
        },
        {
          "internalType": "uint256",
          "name": "minAmountOut_",
          "type": "uint256"
        },
        {
          "internalType": "uint256",
          "name": "maxExpiry_",
          "type": "uint256"
        }
      ],
      "name": "findMarketFor",
      "outputs": [
        {
          "internalType": "uint256",
          "name": "",
          "type": "uint256"
        }
      ],
      "stateMutability": "view",
      "type": "function"
    },
    {
      "inputs": [
        {
          "internalType": "uint256",
          "name": "id_",
          "type": "uint256"
        }
      ],
      "name": "getAuctioneer",
      "outputs": [
        {
          "internalType": "contract IBondAuctioneer",
          "name": "",
          "type": "address"
        }
      ],
      "stateMutability": "view",
      "type": "function"
    },
    {
      "inputs": [
        {
          "internalType": "uint256",
          "name": "id_",
          "type": "uint256"
        }
      ],
      "name": "getTeller",
      "outputs": [
        {
          "internalType": "contract IBondTeller",
          "name": "",
          "type": "address"
        }
      ],
      "stateMutability": "view",
      "type": "function"
    },
    {
      "inputs": [
        {
          "internalType": "uint256",
          "name": "id_",
          "type": "uint256"
        }
      ],
      "name": "isInstantSwap",
      "outputs": [
        {
          "internalType": "bool",
          "name": "",
          "type": "bool"
        }
      ],
      "stateMutability": "view",
      "type": "function"
    },
    {
      "inputs": [
        {
          "internalType": "uint256",
          "name": "id_",
          "type": "uint256"
        }
      ],
      "name": "isLive",
      "outputs": [
        {
          "internalType": "bool",
          "name": "",
          "type": "bool"
        }
      ],
      "stateMutability": "view",
      "type": "function"
    },
    {
      "inputs": [
        {
          "internalType": "uint256",
          "name": "firstIndex_",
          "type": "uint256"
        },
        {
          "internalType": "uint256",
          "name": "lastIndex_",
          "type": "uint256"
        }
      ],
      "name": "liveMarketsBetween",
      "outputs": [
        {
          "internalType": "uint256[]",
          "name": "",
          "type": "uint256[]"
        }
      ],
      "stateMutability": "view",
      "type": "function"
    },
    {
      "inputs": [
        {
          "internalType": "address",
          "name": "owner_",
          "type": "address"
        }
      ],
      "name": "liveMarketsBy",
      "outputs": [
        {
          "internalType": "uint256[]",
          "name": "",
          "type": "uint256[]"
        }
      ],
      "stateMutability": "view",
      "type": "function"
    },
    {
      "inputs": [
        {
          "internalType": "address",
          "name": "token_",
          "type": "address"
        },
        {
          "internalType": "bool",
          "name": "isPayout_",
          "type": "bool"
        }
      ],
      "name": "liveMarketsFor",
      "outputs": [
        {
          "internalType": "uint256[]",
          "name": "",
          "type": "uint256[]"
        }
      ],
      "stateMutability": "view",
      "type": "function"
    },
    {
      "inputs": [],
      "name": "marketCounter",
      "outputs": [
        {
          "internalType": "uint256",
          "name": "",
          "type": "uint256"
        }
      ],
      "stateMutability": "view",
      "type": "function"
    },
    {
      "inputs": [
        {
          "internalType": "uint256",
          "name": "id_",
          "type": "uint256"
        }
      ],
      "name": "marketPrice",
      "outputs": [
        {
          "internalType": "uint256",
          "name": "",
          "type": "uint256"
        }
      ],
      "stateMutability": "view",
      "type": "function"
    },
    {
      "inputs": [
        {
          "internalType": "uint256",
          "name": "id_",
          "type": "uint256"
        }
      ],
      "name": "marketScale",
      "outputs": [
        {
          "internalType": "uint256",
          "name": "",
          "type": "uint256"
        }
      ],
      "stateMutability": "view",
      "type": "function"
    },
    {
      "inputs": [
        {
          "internalType": "address",
          "name": "payout_",
          "type": "address"
        },
        {
          "internalType": "address",
          "name": "quote_",
          "type": "address"
        }
      ],
      "name": "marketsFor",
      "outputs": [
        {
          "internalType": "uint256[]",
          "name": "",
          "type": "uint256[]"
        }
      ],
      "stateMutability": "view",
      "type": "function"
    },
    {
      "inputs": [
        {
          "internalType": "address",
          "name": "",
          "type": "address"
        },
        {
          "internalType": "uint256",
          "name": "",
          "type": "uint256"
        }
      ],
      "name": "marketsForPayout",
      "outputs": [
        {
          "internalType": "uint256",
          "name": "",
          "type": "uint256"
        }
      ],
      "stateMutability": "view",
      "type": "function"
    },
    {
      "inputs": [
        {
          "internalType": "address",
          "name": "",
          "type": "address"
        },
        {
          "internalType": "uint256",
          "name": "",
          "type": "uint256"
        }
      ],
      "name": "marketsForQuote",
      "outputs": [
        {
          "internalType": "uint256",
          "name": "",
          "type": "uint256"
        }
      ],
      "stateMutability": "view",
      "type": "function"
    },
    {
      "inputs": [
        {
          "internalType": "uint256",
          "name": "",
          "type": "uint256"
        }
      ],
      "name": "marketsToAuctioneers",
      "outputs": [
        {
          "internalType": "contract IBondAuctioneer",
          "name": "",
          "type": "address"
        }
      ],
      "stateMutability": "view",
      "type": "function"
    },
    {
      "inputs": [
        {
          "internalType": "uint256",
          "name": "id_",
          "type": "uint256"
        },
        {
          "internalType": "address",
          "name": "referrer_",
          "type": "address"
        }
      ],
      "name": "maxAmountAccepted",
      "outputs": [
        {
          "internalType": "uint256",
          "name": "",
          "type": "uint256"
        }
      ],
      "stateMutability": "view",
      "type": "function"
    },
    {
      "inputs": [],
      "name": "owner",
      "outputs": [
        {
          "internalType": "address",
          "name": "",
          "type": "address"
        }
      ],
      "stateMutability": "view",
      "type": "function"
    },
    {
      "inputs": [
        {
          "internalType": "uint256",
          "name": "amount_",
          "type": "uint256"
        },
        {
          "internalType": "uint256",
          "name": "id_",
          "type": "uint256"
        },
        {
          "internalType": "address",
          "name": "referrer_",
          "type": "address"
        }
      ],
      "name": "payoutFor",
      "outputs": [
        {
          "internalType": "uint256",
          "name": "",
          "type": "uint256"
        }
      ],
      "stateMutability": "view",
      "type": "function"
    },
    {
      "inputs": [
        {
          "internalType": "contract IBondAuctioneer",
          "name": "auctioneer_",
          "type": "address"
        }
      ],
      "name": "registerAuctioneer",
      "outputs": [],
      "stateMutability": "nonpayable",
      "type": "function"
    },
    {
      "inputs": [
        {
          "internalType": "contract ERC20",
          "name": "payoutToken_",
          "type": "address"
        },
        {
          "internalType": "contract ERC20",
          "name": "quoteToken_",
          "type": "address"
        }
      ],
      "name": "registerMarket",
      "outputs": [
        {
          "internalType": "uint256",
          "name": "marketId",
          "type": "uint256"
        }
      ],
      "stateMutability": "nonpayable",
      "type": "function"
    },
    {
      "inputs": [
        {
          "internalType": "contract Authority",
          "name": "newAuthority",
          "type": "address"
        }
      ],
      "name": "setAuthority",
      "outputs": [],
      "stateMutability": "nonpayable",
      "type": "function"
    },
    {
      "inputs": [
        {
          "internalType": "address",
          "name": "newOwner",
          "type": "address"
        }
      ],
      "name": "setOwner",
      "outputs": [],
      "stateMutability": "nonpayable",
      "type": "function"
    }
  ],
  "bytecode": {
    "object": "0x60806040523480156200001157600080fd5b5060405162002033380380620020338339810160408190526200003491620000e8565b600080546001600160a01b03199081166001600160a01b0385811691821784556001805490931690851617909155604051849284929133917f8292fce18fa69edf4db7b94ea2e58241df0ae57f97e0a6c9b29067028bf92d7691a36040516001600160a01b0382169033907fa3396fd7f6e0a21b50e5089d2da70d5ac0a3bbbd1f617a93f134b7638998019890600090a35050505062000127565b6001600160a01b0381168114620000e557600080fd5b50565b60008060408385031215620000fc57600080fd5b82516200010981620000cf565b60208401519092506200011c81620000cf565b809150509250929050565b611efc80620001376000396000f3fe608060405234801561001057600080fd5b50600436106101a35760003560e01c8063946824cd116100ee578063bf7e214f11610097578063c7bf8ca011610071578063c7bf8ca0146103c1578063ea5e0c60146103d4578063f3771f781461040a578063f9e709df1461041d57600080fd5b8063bf7e214f1461037b578063c0680e201461039b578063c3b7b136146103ae57600080fd5b8063bb6e75de116100c8578063bb6e75de14610335578063bbfe3a3214610355578063bf48582b1461036857600080fd5b8063946824cd146102fc5780639a0fae9b1461030f578063b43591431461032257600080fd5b806352047942116101505780637a9e5e4b1161012a5780637a9e5e4b146102b65780638b098db3146102c95780638da5cb5b146102dc57600080fd5b8063520479421461023557806366b382ee1461029057806378b5a87a146102a357600080fd5b8063247608071161018157806324760807146101f657806327507458146101ff5780633adec5a71461022257600080fd5b806306b40ea3146101a857806313af4035146101ce5780631c063a6c146101e3575b600080fd5b6101bb6101b6366004611b22565b610430565b6040519081526020015b60405180910390f35b6101e16101dc366004611b4e565b610461565b005b6101bb6101f1366004611b6b565b61056a565b6101bb60025481565b61021261020d366004611b6b565b610613565b60405190151581526020016101c5565b6101bb610230366004611b6b565b6106b5565b61026b610243366004611b6b565b60009081526005602052604090205473ffffffffffffffffffffffffffffffffffffffff1690565b60405173ffffffffffffffffffffffffffffffffffffffff90911681526020016101c5565b6101e161029e366004611b4e565b61071a565b61026b6102b1366004611b6b565b610858565b6101e16102c4366004611b4e565b6108f6565b6102126102d7366004611b6b565b610a53565b60005461026b9073ffffffffffffffffffffffffffffffffffffffff1681565b6101bb61030a366004611b6b565b610ab8565b6101bb61031d366004611b84565b610b1d565b6101bb610330366004611bd5565b610da4565b610348610343366004611c0e565b610e93565b6040516101c59190611c30565b610348610363366004611bd5565b610f72565b6101bb610376366004611c74565b6112f8565b60015461026b9073ffffffffffffffffffffffffffffffffffffffff1681565b6101bb6103a9366004611b22565b6113b1565b61026b6103bc366004611b6b565b6113cd565b6101bb6103cf366004611cad565b611404565b61026b6103e2366004611b6b565b60056020526000908152604090205473ffffffffffffffffffffffffffffffffffffffff1681565b610348610418366004611b4e565b6114b5565b61034861042b366004611ce0565b61182c565b6006602052816000526040600020818154811061044c57600080fd5b90600052602060002001600091509150505481565b61048f336000357fffffffff00000000000000000000000000000000000000000000000000000000166119ec565b6104fa576040517f08c379a000000000000000000000000000000000000000000000000000000000815260206004820152600c60248201527f554e415554484f52495a4544000000000000000000000000000000000000000060448201526064015b60405180910390fd5b600080547fffffffffffffffffffffffff00000000000000000000000000000000000000001673ffffffffffffffffffffffffffffffffffffffff83169081178255604051909133917f8292fce18fa69edf4db7b94ea2e58241df0ae57f97e0a6c9b29067028bf92d769190a350565b6000818152600560205260408082205490517f1c063a6c0000000000000000000000000000000000000000000000000000000081526004810184905273ffffffffffffffffffffffffffffffffffffffff909116908190631c063a6c906024015b602060405180830381865afa1580156105e8573d6000803e3d6000fd5b505050506040513d601f19601f8201168201806040525081019061060c9190611d0e565b9392505050565b6000818152600560205260408082205490517f275074580000000000000000000000000000000000000000000000000000000081526004810184905273ffffffffffffffffffffffffffffffffffffffff9091169081906327507458906024015b602060405180830381865afa158015610691573d6000803e3d6000fd5b505050506040513d601f19601f8201168201806040525081019061060c9190611d27565b6000818152600560205260408082205490517f3adec5a70000000000000000000000000000000000000000000000000000000081526004810184905273ffffffffffffffffffffffffffffffffffffffff909116908190633adec5a7906024016105cb565b610748336000357fffffffff00000000000000000000000000000000000000000000000000000000166119ec565b6107ae576040517f08c379a000000000000000000000000000000000000000000000000000000000815260206004820152600c60248201527f554e415554484f52495a4544000000000000000000000000000000000000000060448201526064016104f1565b6003805460018181019092557fc2575a0e9e593c00f959f8c92f12db2869c3395a3b0502d05e2516446f71f85b01805473ffffffffffffffffffffffffffffffffffffffff9093167fffffffffffffffffffffffff00000000000000000000000000000000000000009093168317905560009182526004602052604090912080547fffffffffffffffffffffffffffffffffffffffffffffffffffffffffffffff00169091179055565b60008181526005602090815260408083205481517f9787d107000000000000000000000000000000000000000000000000000000008152915173ffffffffffffffffffffffffffffffffffffffff909116928392639787d10792600480830193928290030181865afa1580156108d2573d6000803e3d6000fd5b505050506040513d601f19601f8201168201806040525081019061060c9190611d44565b60005473ffffffffffffffffffffffffffffffffffffffff163314806109d957506001546040517fb70096130000000000000000000000000000000000000000000000000000000081523360048201523060248201526000357fffffffff0000000000000000000000000000000000000000000000000000000016604482015273ffffffffffffffffffffffffffffffffffffffff9091169063b700961390606401602060405180830381865afa1580156109b5573d6000803e3d6000fd5b505050506040513d601f19601f820116820180604052508101906109d99190611d27565b6109e257600080fd5b600180547fffffffffffffffffffffffff00000000000000000000000000000000000000001673ffffffffffffffffffffffffffffffffffffffff831690811790915560405133907fa3396fd7f6e0a21b50e5089d2da70d5ac0a3bbbd1f617a93f134b7638998019890600090a350565b6000818152600560205260408082205490517f8b098db30000000000000000000000000000000000000000000000000000000081526004810184905273ffffffffffffffffffffffffffffffffffffffff909116908190638b098db390602401610674565b6000818152600560205260408082205490517f946824cd0000000000000000000000000000000000000000000000000000000081526004810184905273ffffffffffffffffffffffffffffffffffffffff90911690819063946824cd906024016105cb565b600080610b2a8787610f72565b805190915060008167ffffffffffffffff811115610b4a57610b4a611d61565b604051908082528060200260200182016040528015610b73578160200160208202803683370190505b50905060007fffffffffffffffffffffffffffffffffffffffffffffffffffffffffffffffff818080805b87811015610d9157600560008a8381518110610bbc57610bbc611d90565b6020026020010151815260200190815260200160002060009054906101000a900473ffffffffffffffffffffffffffffffffffffffff1691508173ffffffffffffffffffffffffffffffffffffffff1663acc5570c8a8381518110610c2357610c23611d90565b60200260200101516040518263ffffffff1660e01b8152600401610c4991815260200190565b60c060405180830381865afa158015610c66573d6000803e3d6000fd5b505050506040513d601f19601f82011682018060405250810190610c8a9190611dbf565b9098509650600093505050635dba240065ffffffffffff871611159050610cb9578465ffffffffffff16610ccb565b610ccb65ffffffffffff861642611e76565b90508b8111610d8057838d1115610ce3576000610d08565b610d088e8b8481518110610cf957610cf9611d90565b602002602001015160006112f8565b888381518110610d1a57610d1a611d90565b60200260200101818152505086888381518110610d3957610d39611d90565b60200260200101511115610d8057878281518110610d5957610d59611d90565b60200260200101519650898281518110610d7557610d75611d90565b602002602001015195505b50610d8a81611e8e565b9050610b9e565b50929d9c50505050505050505050505050565b3360009081526004602052604081205460ff16610ded576040517f8feeaaa400000000000000000000000000000000000000000000000000000000815260040160405180910390fd5b5060028054600081815260056020908152604080832080547fffffffffffffffffffffffff0000000000000000000000000000000000000000163317905573ffffffffffffffffffffffffffffffffffffffff87811684526006835281842080546001818101835591865284862001869055908716845260078352908320805491820181558352908220018290558254919291610e8990611e8e565b9091555092915050565b60606000835b83811015610ecb57610eaa81610613565b15610ebb57610eb882611e8e565b91505b610ec481611e8e565b9050610e99565b5060008167ffffffffffffffff811115610ee757610ee7611d61565b604051908082528060200260200182016040528015610f10578160200160208202803683370190505b50600092509050845b84811015610f6957610f2a81610613565b15610f595780828481518110610f4257610f42611d90565b6020908102919091010152610f5683611e8e565b92505b610f6281611e8e565b9050610f19565b50949350505050565b60606000610f8184600161182c565b90506000806000808451905060005b818110156111015760056000878381518110610fae57610fae611d90565b6020026020010151815260200190815260200160002060009054906101000a900473ffffffffffffffffffffffffffffffffffffffff1692508273ffffffffffffffffffffffffffffffffffffffff1663acc5570c87838151811061101557611015611d90565b60200260200101516040518263ffffffff1660e01b815260040161103b91815260200190565b60c060405180830381865afa158015611058573d6000803e3d6000fd5b505050506040513d601f19601f8201168201806040525081019061107c9190611dbf565b505089519097506110a99350899250849150811061109c5761109c611d90565b6020026020010151610613565b80156110e057508773ffffffffffffffffffffffffffffffffffffffff168473ffffffffffffffffffffffffffffffffffffffff16145b156110f1576110ee85611e8e565b94505b6110fa81611e8e565b9050610f90565b5060008467ffffffffffffffff81111561111d5761111d611d61565b604051908082528060200260200182016040528015611146578160200160208202803683370190505b5090506000945060005b828110156112eb576005600088838151811061116e5761116e611d90565b6020026020010151815260200190815260200160002060009054906101000a900473ffffffffffffffffffffffffffffffffffffffff1693508373ffffffffffffffffffffffffffffffffffffffff1663acc5570c8883815181106111d5576111d5611d90565b60200260200101516040518263ffffffff1660e01b81526004016111fb91815260200190565b60c060405180830381865afa158015611218573d6000803e3d6000fd5b505050506040513d601f19601f8201168201806040525081019061123c9190611dbf565b50508a5190985061125c93508a9250849150811061109c5761109c611d90565b801561129357508873ffffffffffffffffffffffffffffffffffffffff168573ffffffffffffffffffffffffffffffffffffffff16145b156112db578681815181106112aa576112aa611d90565b60200260200101518287815181106112c4576112c4611d90565b60209081029190910101526112d886611e8e565b95505b6112e481611e8e565b9050611150565b5098975050505050505050565b6000828152600560205260408082205490517fbf48582b000000000000000000000000000000000000000000000000000000008152600481018690526024810185905273ffffffffffffffffffffffffffffffffffffffff848116604483015290911690819063bf48582b90606401602060405180830381865afa158015611384573d6000803e3d6000fd5b505050506040513d601f19601f820116820180604052508101906113a89190611d0e565b95945050505050565b6007602052816000526040600020818154811061044c57600080fd5b600381815481106113dd57600080fd5b60009182526020909120015473ffffffffffffffffffffffffffffffffffffffff16905081565b6000828152600560205260408082205490517fc7bf8ca00000000000000000000000000000000000000000000000000000000081526004810185905273ffffffffffffffffffffffffffffffffffffffff848116602483015290911690819063c7bf8ca090604401602060405180830381865afa158015611489573d6000803e3d6000fd5b505050506040513d601f19601f820116820180604052508101906114ad9190611d0e565b949350505050565b606060008060005b60025481101561163e57600081815260056020526040908190205490517f275074580000000000000000000000000000000000000000000000000000000081526004810183905273ffffffffffffffffffffffffffffffffffffffff90911692508290632750745890602401602060405180830381865afa158015611546573d6000803e3d6000fd5b505050506040513d601f19601f8201168201806040525081019061156a9190611d27565b801561161d57506040517f6352211e0000000000000000000000000000000000000000000000000000000081526004810182905273ffffffffffffffffffffffffffffffffffffffff8087169190841690636352211e90602401602060405180830381865afa1580156115e1573d6000803e3d6000fd5b505050506040513d601f19601f820116820180604052508101906116059190611d44565b73ffffffffffffffffffffffffffffffffffffffff16145b1561162e5761162b83611e8e565b92505b61163781611e8e565b90506114bd565b5060008267ffffffffffffffff81111561165a5761165a611d61565b604051908082528060200260200182016040528015611683578160200160208202803683370190505b5090506000925060005b600254811015610f6957600081815260056020526040908190205490517f275074580000000000000000000000000000000000000000000000000000000081526004810183905273ffffffffffffffffffffffffffffffffffffffff90911693508390632750745890602401602060405180830381865afa158015611716573d6000803e3d6000fd5b505050506040513d601f19601f8201168201806040525081019061173a9190611d27565b80156117ed57506040517f6352211e0000000000000000000000000000000000000000000000000000000081526004810182905273ffffffffffffffffffffffffffffffffffffffff8088169190851690636352211e90602401602060405180830381865afa1580156117b1573d6000803e3d6000fd5b505050506040513d601f19601f820116820180604052508101906117d59190611d44565b73ffffffffffffffffffffffffffffffffffffffff16145b1561181c578082858151811061180557611805611d90565b602090810291909101015261181984611e8e565b93505b61182581611e8e565b905061168d565b6060808261185e5773ffffffffffffffffffffffffffffffffffffffff84166000908152600760205260409020611884565b73ffffffffffffffffffffffffffffffffffffffff841660009081526006602052604090205b8054806020026020016040519081016040528092919081815260200182805480156118ce57602002820191906000526020600020905b8154815260200190600101908083116118ba575b505050505090506000808251905060005b8181101561191d576118fc84828151811061109c5761109c611d90565b1561190d5761190a83611e8e565b92505b61191681611e8e565b90506118df565b5060008267ffffffffffffffff81111561193957611939611d61565b604051908082528060200260200182016040528015611962578160200160208202803683370190505b5090506000925060005b828110156119e15761198985828151811061109c5761109c611d90565b156119d1578481815181106119a0576119a0611d90565b60200260200101518285815181106119ba576119ba611d90565b60209081029190910101526119ce84611e8e565b93505b6119da81611e8e565b905061196c565b509695505050505050565b60015460009073ffffffffffffffffffffffffffffffffffffffff168015801590611ad057506040517fb700961300000000000000000000000000000000000000000000000000000000815273ffffffffffffffffffffffffffffffffffffffff85811660048301523060248301527fffffffff000000000000000000000000000000000000000000000000000000008516604483015282169063b700961390606401602060405180830381865afa158015611aac573d6000803e3d6000fd5b505050506040513d601f19601f82011682018060405250810190611ad09190611d27565b806114ad575060005473ffffffffffffffffffffffffffffffffffffffff85811691161491505092915050565b73ffffffffffffffffffffffffffffffffffffffff81168114611b1f57600080fd5b50565b60008060408385031215611b3557600080fd5b8235611b4081611afd565b946020939093013593505050565b600060208284031215611b6057600080fd5b813561060c81611afd565b600060208284031215611b7d57600080fd5b5035919050565b600080600080600060a08688031215611b9c57600080fd5b8535611ba781611afd565b94506020860135611bb781611afd565b94979496505050506040830135926060810135926080909101359150565b60008060408385031215611be857600080fd5b8235611bf381611afd565b91506020830135611c0381611afd565b809150509250929050565b60008060408385031215611c2157600080fd5b50508035926020909101359150565b6020808252825182820181905260009190848201906040850190845b81811015611c6857835183529284019291840191600101611c4c565b50909695505050505050565b600080600060608486031215611c8957600080fd5b83359250602084013591506040840135611ca281611afd565b809150509250925092565b60008060408385031215611cc057600080fd5b823591506020830135611c0381611afd565b8015158114611b1f57600080fd5b60008060408385031215611cf357600080fd5b8235611cfe81611afd565b91506020830135611c0381611cd2565b600060208284031215611d2057600080fd5b5051919050565b600060208284031215611d3957600080fd5b815161060c81611cd2565b600060208284031215611d5657600080fd5b815161060c81611afd565b7f4e487b7100000000000000000000000000000000000000000000000000000000600052604160045260246000fd5b7f4e487b7100000000000000000000000000000000000000000000000000000000600052603260045260246000fd5b60008060008060008060c08789031215611dd857600080fd5b8651611de381611afd565b6020880151909650611df481611afd565b6040880151909550611e0581611afd565b6060880151909450611e1681611afd565b608088015190935065ffffffffffff81168114611e3257600080fd5b8092505060a087015190509295509295509295565b7f4e487b7100000000000000000000000000000000000000000000000000000000600052601160045260246000fd5b60008219821115611e8957611e89611e47565b500190565b60007fffffffffffffffffffffffffffffffffffffffffffffffffffffffffffffffff8203611ebf57611ebf611e47565b506001019056fea26469706673582212209e77c3cfd3cf867c92714867befc3a367e180279be30f9b0eee6bd8f972128d864736f6c634300080f0033",
    "linkReferences": {}
  },
  "methodIdentifiers": {
    "auctioneers(uint256)": "c3b7b136",
    "authority()": "bf7e214f",
    "currentCapacity(uint256)": "1c063a6c",
    "findMarketFor(address,address,uint256,uint256,uint256)": "9a0fae9b",
    "getAuctioneer(uint256)": "52047942",
    "getTeller(uint256)": "78b5a87a",
    "isInstantSwap(uint256)": "8b098db3",
    "isLive(uint256)": "27507458",
    "liveMarketsBetween(uint256,uint256)": "bb6e75de",
    "liveMarketsBy(address)": "f3771f78",
    "liveMarketsFor(address,bool)": "f9e709df",
    "marketCounter()": "24760807",
    "marketPrice(uint256)": "3adec5a7",
    "marketScale(uint256)": "946824cd",
    "marketsFor(address,address)": "bbfe3a32",
    "marketsForPayout(address,uint256)": "06b40ea3",
    "marketsForQuote(address,uint256)": "c0680e20",
    "marketsToAuctioneers(uint256)": "ea5e0c60",
    "maxAmountAccepted(uint256,address)": "c7bf8ca0",
    "owner()": "8da5cb5b",
    "payoutFor(uint256,uint256,address)": "bf48582b",
    "registerAuctioneer(address)": "66b382ee",
    "registerMarket(address,address)": "b4359143",
    "setAuthority(address)": "7a9e5e4b",
    "setOwner(address)": "13af4035"
  }
}