{
  "abi": [
    {
      "inputs": [
        {
          "internalType": "address",
          "name": "protocol_",
          "type": "address"
        },
        {
          "internalType": "contract IBondAggregator",
          "name": "aggregator_",
          "type": "address"
        },
        {
          "internalType": "address",
          "name": "guardian_",
          "type": "address"
        },
        {
          "internalType": "contract Authority",
          "name": "authority_",
          "type": "address"
        }
      ],
      "stateMutability": "nonpayable",
      "type": "constructor"
    },
    {
      "inputs": [],
      "name": "CreateFail",
      "type": "error"
    },
    {
      "inputs": [],
      "name": "Teller_InvalidCallback",
      "type": "error"
    },
    {
      "inputs": [],
      "name": "Teller_InvalidParams",
      "type": "error"
    },
    {
      "inputs": [],
      "name": "Teller_NotAuthorized",
      "type": "error"
    },
    {
      "inputs": [
        {
          "internalType": "contract ERC20",
          "name": "underlying",
          "type": "address"
        },
        {
          "internalType": "uint48",
          "name": "expiry",
          "type": "uint48"
        }
      ],
      "name": "Teller_TokenDoesNotExist",
      "type": "error"
    },
    {
      "inputs": [
        {
          "internalType": "uint48",
          "name": "maturesOn",
          "type": "uint48"
        }
      ],
      "name": "Teller_TokenNotMatured",
      "type": "error"
    },
    {
      "inputs": [],
      "name": "Teller_UnsupportedToken",
      "type": "error"
    },
    {
      "anonymous": false,
      "inputs": [
        {
          "indexed": true,
          "internalType": "address",
          "name": "user",
          "type": "address"
        },
        {
          "indexed": true,
          "internalType": "contract Authority",
          "name": "newAuthority",
          "type": "address"
        }
      ],
      "name": "AuthorityUpdated",
      "type": "event"
    },
    {
      "anonymous": false,
      "inputs": [
        {
          "indexed": true,
          "internalType": "uint256",
          "name": "id",
          "type": "uint256"
        },
        {
          "indexed": true,
          "internalType": "address",
          "name": "referrer",
          "type": "address"
        },
        {
          "indexed": false,
          "internalType": "uint256",
          "name": "amount",
          "type": "uint256"
        },
        {
          "indexed": false,
          "internalType": "uint256",
          "name": "payout",
          "type": "uint256"
        }
      ],
      "name": "Bonded",
      "type": "event"
    },
    {
      "anonymous": false,
      "inputs": [
        {
          "indexed": false,
          "internalType": "contract ERC20BondToken",
          "name": "bondToken",
          "type": "address"
        },
        {
          "indexed": true,
          "internalType": "contract ERC20",
          "name": "underlying",
          "type": "address"
        },
        {
          "indexed": true,
          "internalType": "uint48",
          "name": "expiry",
          "type": "uint48"
        }
      ],
      "name": "ERC20BondTokenCreated",
      "type": "event"
    },
    {
      "anonymous": false,
      "inputs": [
        {
          "indexed": true,
          "internalType": "address",
          "name": "user",
          "type": "address"
        },
        {
          "indexed": true,
          "internalType": "address",
          "name": "newOwner",
          "type": "address"
        }
      ],
      "name": "OwnerUpdated",
      "type": "event"
    },
    {
      "inputs": [],
      "name": "FEE_DECIMALS",
      "outputs": [
        {
          "internalType": "uint48",
          "name": "",
          "type": "uint48"
        }
      ],
      "stateMutability": "view",
      "type": "function"
    },
    {
      "inputs": [],
      "name": "authority",
      "outputs": [
        {
          "internalType": "contract Authority",
          "name": "",
          "type": "address"
        }
      ],
      "stateMutability": "view",
      "type": "function"
    },
    {
      "inputs": [],
      "name": "bondTokenImplementation",
      "outputs": [
        {
          "internalType": "contract ERC20BondToken",
          "name": "",
          "type": "address"
        }
      ],
      "stateMutability": "view",
      "type": "function"
    },
    {
      "inputs": [
        {
          "internalType": "contract ERC20",
          "name": "",
          "type": "address"
        },
        {
          "internalType": "uint48",
          "name": "",
          "type": "uint48"
        }
      ],
      "name": "bondTokens",
      "outputs": [
        {
          "internalType": "contract ERC20BondToken",
          "name": "",
          "type": "address"
        }
      ],
      "stateMutability": "view",
      "type": "function"
    },
    {
      "inputs": [
        {
          "internalType": "contract ERC20[]",
          "name": "tokens_",
          "type": "address[]"
        },
        {
          "internalType": "address",
          "name": "to_",
          "type": "address"
        }
      ],
      "name": "claimFees",
      "outputs": [],
      "stateMutability": "nonpayable",
      "type": "function"
    },
    {
      "inputs": [
        {
          "internalType": "contract ERC20",
          "name": "underlying_",
          "type": "address"
        },
        {
          "internalType": "uint48",
          "name": "expiry_",
          "type": "uint48"
        },
        {
          "internalType": "uint256",
          "name": "amount_",
          "type": "uint256"
        }
      ],
      "name": "create",
      "outputs": [
        {
          "internalType": "contract ERC20BondToken",
          "name": "",
          "type": "address"
        },
        {
          "internalType": "uint256",
          "name": "",
          "type": "uint256"
        }
      ],
      "stateMutability": "nonpayable",
      "type": "function"
    },
    {
      "inputs": [],
      "name": "createFeeDiscount",
      "outputs": [
        {
          "internalType": "uint48",
          "name": "",
          "type": "uint48"
        }
      ],
      "stateMutability": "view",
      "type": "function"
    },
    {
      "inputs": [
        {
          "internalType": "contract ERC20",
          "name": "underlying_",
          "type": "address"
        },
        {
          "internalType": "uint48",
          "name": "expiry_",
          "type": "uint48"
        }
      ],
      "name": "deploy",
      "outputs": [
        {
          "internalType": "contract ERC20BondToken",
          "name": "",
          "type": "address"
        }
      ],
      "stateMutability": "nonpayable",
      "type": "function"
    },
    {
      "inputs": [
        {
          "internalType": "contract ERC20",
          "name": "underlying_",
          "type": "address"
        },
        {
          "internalType": "uint48",
          "name": "expiry_",
          "type": "uint48"
        }
      ],
      "name": "getBondToken",
      "outputs": [
        {
          "internalType": "contract ERC20BondToken",
          "name": "",
          "type": "address"
        }
      ],
      "stateMutability": "view",
      "type": "function"
    },
    {
      "inputs": [
        {
          "internalType": "uint256",
          "name": "id_",
          "type": "uint256"
        }
      ],
      "name": "getBondTokenForMarket",
      "outputs": [
        {
          "internalType": "contract ERC20BondToken",
          "name": "",
          "type": "address"
        }
      ],
      "stateMutability": "view",
      "type": "function"
    },
    {
      "inputs": [
        {
          "internalType": "address",
          "name": "referrer_",
          "type": "address"
        }
      ],
      "name": "getFee",
      "outputs": [
        {
          "internalType": "uint48",
          "name": "",
          "type": "uint48"
        }
      ],
      "stateMutability": "view",
      "type": "function"
    },
    {
      "inputs": [],
      "name": "owner",
      "outputs": [
        {
          "internalType": "address",
          "name": "",
          "type": "address"
        }
      ],
      "stateMutability": "view",
      "type": "function"
    },
    {
      "inputs": [],
      "name": "protocolFee",
      "outputs": [
        {
          "internalType": "uint48",
          "name": "",
          "type": "uint48"
        }
      ],
      "stateMutability": "view",
      "type": "function"
    },
    {
      "inputs": [
        {
          "internalType": "address",
          "name": "recipient_",
          "type": "address"
        },
        {
          "internalType": "address",
          "name": "referrer_",
          "type": "address"
        },
        {
          "internalType": "uint256",
          "name": "id_",
          "type": "uint256"
        },
        {
          "internalType": "uint256",
          "name": "amount_",
          "type": "uint256"
        },
        {
          "internalType": "uint256",
          "name": "minAmountOut_",
          "type": "uint256"
        }
      ],
      "name": "purchase",
      "outputs": [
        {
          "internalType": "uint256",
          "name": "",
          "type": "uint256"
        },
        {
          "internalType": "uint48",
          "name": "",
          "type": "uint48"
        }
      ],
      "stateMutability": "nonpayable",
      "type": "function"
    },
    {
      "inputs": [
        {
          "internalType": "contract ERC20BondToken",
          "name": "token_",
          "type": "address"
        },
        {
          "internalType": "uint256",
          "name": "amount_",
          "type": "uint256"
        }
      ],
      "name": "redeem",
      "outputs": [],
      "stateMutability": "nonpayable",
      "type": "function"
    },
    {
      "inputs": [
        {
          "internalType": "address",
          "name": "",
          "type": "address"
        }
      ],
      "name": "referrerFees",
      "outputs": [
        {
          "internalType": "uint48",
          "name": "",
          "type": "uint48"
        }
      ],
      "stateMutability": "view",
      "type": "function"
    },
    {
      "inputs": [
        {
          "internalType": "address",
          "name": "",
          "type": "address"
        },
        {
          "internalType": "contract ERC20",
          "name": "",
          "type": "address"
        }
      ],
      "name": "rewards",
      "outputs": [
        {
          "internalType": "uint256",
          "name": "",
          "type": "uint256"
        }
      ],
      "stateMutability": "view",
      "type": "function"
    },
    {
      "inputs": [
        {
          "internalType": "contract Authority",
          "name": "newAuthority",
          "type": "address"
        }
      ],
      "name": "setAuthority",
      "outputs": [],
      "stateMutability": "nonpayable",
      "type": "function"
    },
    {
      "inputs": [
        {
          "internalType": "uint48",
          "name": "discount_",
          "type": "uint48"
        }
      ],
      "name": "setCreateFeeDiscount",
      "outputs": [],
      "stateMutability": "nonpayable",
      "type": "function"
    },
    {
      "inputs": [
        {
          "internalType": "address",
          "name": "newOwner",
          "type": "address"
        }
      ],
      "name": "setOwner",
      "outputs": [],
      "stateMutability": "nonpayable",
      "type": "function"
    },
    {
      "inputs": [
        {
          "internalType": "uint48",
          "name": "fee_",
          "type": "uint48"
        }
      ],
      "name": "setProtocolFee",
      "outputs": [],
      "stateMutability": "nonpayable",
      "type": "function"
    },
    {
      "inputs": [
        {
          "internalType": "uint48",
          "name": "fee_",
          "type": "uint48"
        }
      ],
      "name": "setReferrerFee",
      "outputs": [],
      "stateMutability": "nonpayable",
      "type": "function"
    }
  ],
  "bytecode": {
    "object": "0x60e060405260016002553480156200001657600080fd5b5060405162004a7b38038062004a7b833981016040819052620000399162000164565b600080546001600160a01b03199081166001600160a01b0385811691821784556001805490931690851617909155604051869286928692869284928492909133917f8292fce18fa69edf4db7b94ea2e58241df0ae57f97e0a6c9b29067028bf92d769190a36040516001600160a01b0382169033907fa3396fd7f6e0a21b50e5089d2da70d5ac0a3bbbd1f617a93f134b7638998019890600090a35050506001600160a01b03928316608052501660a052600480546001600160601b031916905560405162000108906200013d565b604051809103906000f08015801562000125573d6000803e3d6000fd5b506001600160a01b031660c05250620001cc92505050565b610af48062003f8783390190565b6001600160a01b03811681146200016157600080fd5b50565b600080600080608085870312156200017b57600080fd5b845162000188816200014b565b60208601519094506200019b816200014b565b6040860151909350620001ae816200014b565b6060860151909250620001c1816200014b565b939692955090935050565b60805160a05160c051613d686200021f600039600081816102120152611a72015260008181610bb901528181611c4f01528181611d5001526121fc015260008181610e1d01526115f50152613d686000f3fe608060405234801561001057600080fd5b50600436106101825760003560e01c8063b0e21e8a116100d8578063c23135dd1161008c578063e70b9e2711610066578063e70b9e27146103eb578063fa922c2614610424578063fcdc31261461043757600080fd5b8063c23135dd146103a6578063c6e38a4b146103ce578063ccf288c6146103e157600080fd5b8063b7314ef9116100bd578063b7314ef914610334578063b88c914814610373578063bf7e214f1461038657600080fd5b8063b0e21e8a1461030f578063b1e555291461032157600080fd5b80636c436dd51161013a5780637a9e5e4b116101145780637a9e5e4b146102c957806381690927146102dc5780638da5cb5b146102ef57600080fd5b80636c436dd51461020d5780636de5b4cd14610259578063709ea8651461028857600080fd5b806313af40351161016b57806313af4035146101d45780631e9a6950146101e75780632f6fa94e146101fa57600080fd5b806306692a37146101875780630d4dfc21146101bf575b600080fd5b6004546101a3906601000000000000900465ffffffffffff1681565b60405165ffffffffffff90911681526020015b60405180910390f35b6101d26101cd366004613249565b61044a565b005b6101d26101e2366004613298565b61054e565b6101d26101f53660046132b5565b610652565b6101d261020836600461335f565b610929565b6102347f000000000000000000000000000000000000000000000000000000000000000081565b60405173ffffffffffffffffffffffffffffffffffffffff90911681526020016101b6565b61026c610267366004613423565b610a51565b6040805192835265ffffffffffff9091166020830152016101b6565b610234610296366004613474565b600660209081526000928352604080842090915290825290205473ffffffffffffffffffffffffffffffffffffffff1681565b6101d26102d7366004613298565b610f08565b6101d26102ea366004613249565b611065565b6000546102349073ffffffffffffffffffffffffffffffffffffffff1681565b6004546101a39065ffffffffffff1681565b6101d261032f366004613249565b611184565b6103476103423660046134ad565b611295565b6040805173ffffffffffffffffffffffffffffffffffffffff90931683526020830191909152016101b6565b6101a3610381366004613298565b6117ae565b6001546102349073ffffffffffffffffffffffffffffffffffffffff1681565b6101a36103b4366004613298565b60036020526000908152604090205465ffffffffffff1681565b6102346103dc366004613474565b6117f2565b6101a3620186a081565b6104166103f93660046134ee565b600560209081526000928352604080842090915290825290205481565b6040519081526020016101b6565b610234610432366004613474565b611b46565b61023461044536600461351c565b611c06565b6002546001146104bb576040517f08c379a000000000000000000000000000000000000000000000000000000000815260206004820152600a60248201527f5245454e5452414e43590000000000000000000000000000000000000000000060448201526064015b60405180910390fd5b6002805561138865ffffffffffff82161115610503576040517fe94b8f2700000000000000000000000000000000000000000000000000000000815260040160405180910390fd5b33600090815260036020526040902080547fffffffffffffffffffffffffffffffffffffffffffffffffffff0000000000001665ffffffffffff929092169190911790556001600255565b61057c336000357fffffffff0000000000000000000000000000000000000000000000000000000016611e7f565b6105e2576040517f08c379a000000000000000000000000000000000000000000000000000000000815260206004820152600c60248201527f554e415554484f52495a4544000000000000000000000000000000000000000060448201526064016104b2565b600080547fffffffffffffffffffffffff00000000000000000000000000000000000000001673ffffffffffffffffffffffffffffffffffffffff83169081178255604051909133917f8292fce18fa69edf4db7b94ea2e58241df0ae57f97e0a6c9b29067028bf92d769190a350565b6002546001146106be576040517f08c379a000000000000000000000000000000000000000000000000000000000815260206004820152600a60248201527f5245454e5452414e43590000000000000000000000000000000000000000000060448201526064016104b2565b6002808190555060008273ffffffffffffffffffffffffffffffffffffffff16636f307dc36040518163ffffffff1660e01b8152600401602060405180830381865afa158015610712573d6000803e3d6000fd5b505050506040513d601f19601f820116820180604052508101906107369190613535565b905060008373ffffffffffffffffffffffffffffffffffffffff1663e184c9be6040518163ffffffff1660e01b8152600401602060405180830381865afa158015610785573d6000803e3d6000fd5b505050506040513d601f19601f820116820180604052508101906107a99190613552565b73ffffffffffffffffffffffffffffffffffffffff808416600090815260066020908152604080832065ffffffffffff86168452909152902054919250858116911614610822576040517fd354452400000000000000000000000000000000000000000000000000000000815260040160405180910390fd5b8065ffffffffffff164265ffffffffffff161015610876576040517f4fb1e97300000000000000000000000000000000000000000000000000000000815265ffffffffffff821660048201526024016104b2565b6040517f9dc29fac0000000000000000000000000000000000000000000000000000000081523360048201526024810184905273ffffffffffffffffffffffffffffffffffffffff851690639dc29fac90604401600060405180830381600087803b1580156108e457600080fd5b505af11580156108f8573d6000803e3d6000fd5b5061091e9250505073ffffffffffffffffffffffffffffffffffffffff83163385611f8f565b505060016002555050565b600254600114610995576040517f08c379a000000000000000000000000000000000000000000000000000000000815260206004820152600a60248201527f5245454e5452414e43590000000000000000000000000000000000000000000060448201526064016104b2565b60028055815160005b8181101561091e5760008482815181106109ba576109ba61356f565b60209081029190910181015133600090815260058352604080822073ffffffffffffffffffffffffffffffffffffffff8416835290935291909120549091508015610a3e5733600090815260056020908152604080832073ffffffffffffffffffffffffffffffffffffffff86168085529252822091909155610a3e908683611f8f565b505080610a4a906135cd565b905061099e565b600080600254600114610ac0576040517f08c379a000000000000000000000000000000000000000000000000000000000815260206004820152600a60248201527f5245454e5452414e43590000000000000000000000000000000000000000000060448201526064016104b2565b6002805573ffffffffffffffffffffffffffffffffffffffff86166000908152600360205260408120548190819081908190610b09908a9065ffffffffffff16620186a0612122565b73ffffffffffffffffffffffffffffffffffffffff8c1660009081526003602052604081205460045492935090918391610b6591610b529165ffffffffffff9081169116613605565b8c9065ffffffffffff16620186a0612122565b610b6f919061362f565b6040517f52047942000000000000000000000000000000000000000000000000000000008152600481018d905290915060009073ffffffffffffffffffffffffffffffffffffffff7f00000000000000000000000000000000000000000000000000000000000000001690635204794290602401602060405180830381865afa158015610c00573d6000803e3d6000fd5b505050506040513d601f19601f82011682018060405250810190610c249190613535565b6040517facc5570c000000000000000000000000000000000000000000000000000000008152600481018e905290915060009073ffffffffffffffffffffffffffffffffffffffff83169063acc5570c9060240160c060405180830381865afa158015610c95573d6000803e3d6000fd5b505050506040513d601f19601f82011682018060405250810190610cb99190613646565b50919b50995097509091506000905083610cd3868f61362f565b610cdd919061362f565b90508273ffffffffffffffffffffffffffffffffffffffff1663e007fa978f838f6040518463ffffffff1660e01b8152600401610d2d939291909283526020830191909152604082015260600190565b6020604051808303816000875af1158015610d4c573d6000803e3d6000fd5b505050506040513d601f19601f82011682018060405250810190610d7091906136c3565b955050505081600560008e73ffffffffffffffffffffffffffffffffffffffff1673ffffffffffffffffffffffffffffffffffffffff16815260200190815260200160002060008773ffffffffffffffffffffffffffffffffffffffff1673ffffffffffffffffffffffffffffffffffffffff1681526020019081526020016000206000828254610e0191906136dc565b909155505073ffffffffffffffffffffffffffffffffffffffff7f00000000000000000000000000000000000000000000000000000000000000008116600090815260056020908152604080832093891683529290529081208054839290610e6a9084906136dc565b90915550610e8590508b8b85610e8085876136dc565b6121f4565b6000610e938e85898861289c565b90508c73ffffffffffffffffffffffffffffffffffffffff168c7f3ae5efadaccde413bdfcb3a4626babecd844c502ee4c2c9b340f28cd9d5527328d87604051610ee7929190918252602082015260400190565b60405180910390a36001600255929d929c50919a5050505050505050505050565b60005473ffffffffffffffffffffffffffffffffffffffff16331480610feb57506001546040517fb70096130000000000000000000000000000000000000000000000000000000081523360048201523060248201526000357fffffffff0000000000000000000000000000000000000000000000000000000016604482015273ffffffffffffffffffffffffffffffffffffffff9091169063b700961390606401602060405180830381865afa158015610fc7573d6000803e3d6000fd5b505050506040513d601f19601f82011682018060405250810190610feb91906136f4565b610ff457600080fd5b600180547fffffffffffffffffffffffff00000000000000000000000000000000000000001673ffffffffffffffffffffffffffffffffffffffff831690811790915560405133907fa3396fd7f6e0a21b50e5089d2da70d5ac0a3bbbd1f617a93f134b7638998019890600090a350565b611093336000357fffffffff0000000000000000000000000000000000000000000000000000000016611e7f565b6110f9576040517f08c379a000000000000000000000000000000000000000000000000000000000815260206004820152600c60248201527f554e415554484f52495a4544000000000000000000000000000000000000000060448201526064016104b2565b60045465ffffffffffff9081169082161115611141576040517fe94b8f2700000000000000000000000000000000000000000000000000000000815260040160405180910390fd5b6004805465ffffffffffff9092166601000000000000027fffffffffffffffffffffffffffffffffffffffff000000000000ffffffffffff909216919091179055565b6111b2336000357fffffffff0000000000000000000000000000000000000000000000000000000016611e7f565b611218576040517f08c379a000000000000000000000000000000000000000000000000000000000815260206004820152600c60248201527f554e415554484f52495a4544000000000000000000000000000000000000000060448201526064016104b2565b6113888165ffffffffffff16111561125c576040517fe94b8f2700000000000000000000000000000000000000000000000000000000815260040160405180910390fd5b600480547fffffffffffffffffffffffffffffffffffffffffffffffffffff0000000000001665ffffffffffff92909216919091179055565b600080600254600114611304576040517f08c379a000000000000000000000000000000000000000000000000000000000815260206004820152600a60248201527f5245454e5452414e43590000000000000000000000000000000000000000000060448201526064016104b2565b6002805560006113176201518086613745565b611324906201518061376a565b9050428165ffffffffffff161015611368576040517fe94b8f2700000000000000000000000000000000000000000000000000000000815260040160405180910390fd5b73ffffffffffffffffffffffffffffffffffffffff808716600090815260066020908152604080832065ffffffffffff861684529091529020541680611400576040517fcb66c9db00000000000000000000000000000000000000000000000000000000815273ffffffffffffffffffffffffffffffffffffffff8816600482015265ffffffffffff831660248201526044016104b2565b6040517f70a0823100000000000000000000000000000000000000000000000000000000815230600482015260009073ffffffffffffffffffffffffffffffffffffffff8916906370a0823190602401602060405180830381865afa15801561146d573d6000803e3d6000fd5b505050506040513d601f19601f8201168201806040525081019061149191906136c3565b90506114b573ffffffffffffffffffffffffffffffffffffffff891633308961298f565b6114bf86826136dc565b6040517f70a0823100000000000000000000000000000000000000000000000000000000815230600482015273ffffffffffffffffffffffffffffffffffffffff8a16906370a0823190602401602060405180830381865afa158015611529573d6000803e3d6000fd5b505050506040513d601f19601f8201168201806040525081019061154d91906136c3565b1015611585576040517fd354452400000000000000000000000000000000000000000000000000000000815260040160405180910390fd5b60045465ffffffffffff66010000000000008204811691161115611710576004546000906115de906115cb9065ffffffffffff6601000000000000820481169116613798565b889065ffffffffffff16620186a0612122565b73ffffffffffffffffffffffffffffffffffffffff7f000000000000000000000000000000000000000000000000000000000000000081166000908152600560209081526040808320938e168352929052908120805492935083929091906116479084906136dc565b909155505073ffffffffffffffffffffffffffffffffffffffff83166340c10f1933611673848b61362f565b6040517fffffffff0000000000000000000000000000000000000000000000000000000060e085901b16815273ffffffffffffffffffffffffffffffffffffffff90921660048301526024820152604401600060405180830381600087803b1580156116de57600080fd5b505af11580156116f2573d6000803e3d6000fd5b50505050828188611703919061362f565b955095505050505061179f565b6040517f40c10f190000000000000000000000000000000000000000000000000000000081523360048201526024810187905273ffffffffffffffffffffffffffffffffffffffff8316906340c10f1990604401600060405180830381600087803b15801561177e57600080fd5b505af1158015611792573d6000803e3d6000fd5b5093965087955050505050505b60016002559094909350915050565b73ffffffffffffffffffffffffffffffffffffffff81166000908152600360205260408120546004546117ec9165ffffffffffff9081169116613605565b92915050565b6000600254600114611860576040517f08c379a000000000000000000000000000000000000000000000000000000000815260206004820152600a60248201527f5245454e5452414e43590000000000000000000000000000000000000000000060448201526064016104b2565b6002805560006118736201518084613745565b611880906201518061376a565b9050428165ffffffffffff1610156118c4576040517fe94b8f2700000000000000000000000000000000000000000000000000000000815260040160405180910390fd5b73ffffffffffffffffffffffffffffffffffffffff808516600090815260066020908152604080832065ffffffffffff861684529091529020541680611b3957600080611919878565ffffffffffff16612b2b565b91509150600082611929906137bf565b611932836137bf565b8973ffffffffffffffffffffffffffffffffffffffff1663313ce5676040518163ffffffff1660e01b8152600401602060405180830381865afa15801561197d573d6000803e3d6000fd5b505050506040513d601f19601f820116820180604052508101906119a19190613804565b60408051602081019490945283019190915260f81b7fff000000000000000000000000000000000000000000000000000000000000001660608083019190915289811b7fffffffffffffffffffffffffffffffffffffffff000000000000000000000000908116606184015265ffffffffffff881660758401523090911b16609582015260a901604080517fffffffffffffffffffffffffffffffffffffffffffffffffffffffffffffffe08184030181529190529050611a9873ffffffffffffffffffffffffffffffffffffffff7f00000000000000000000000000000000000000000000000000000000000000001682612ecc565b73ffffffffffffffffffffffffffffffffffffffff898116600081815260066020908152604080832065ffffffffffff8c168085529083529281902080547fffffffffffffffffffffffff0000000000000000000000000000000000000000169587169586179055519384529397509290917f4fd9a46575749d9ddf290fadaa5729fc640790e2b6360df8cc8af35e418dcec0910160405180910390a35050505b6001600255949350505050565b600080611b566201518084613745565b611b63906201518061376a565b73ffffffffffffffffffffffffffffffffffffffff808616600090815260066020908152604080832065ffffffffffff861684529091529020549192501680611bfe576040517fcb66c9db00000000000000000000000000000000000000000000000000000000815273ffffffffffffffffffffffffffffffffffffffff8616600482015265ffffffffffff831660248201526044016104b2565b949350505050565b6040517f78b5a87a00000000000000000000000000000000000000000000000000000000815260048101829052600090309073ffffffffffffffffffffffffffffffffffffffff7f000000000000000000000000000000000000000000000000000000000000000016906378b5a87a90602401602060405180830381865afa158015611c96573d6000803e3d6000fd5b505050506040513d601f19601f82011682018060405250810190611cba9190613535565b73ffffffffffffffffffffffffffffffffffffffff1614611d07576040517fe94b8f2700000000000000000000000000000000000000000000000000000000815260040160405180910390fd5b6040517f5204794200000000000000000000000000000000000000000000000000000000815260048101839052600090819073ffffffffffffffffffffffffffffffffffffffff7f00000000000000000000000000000000000000000000000000000000000000001690635204794290602401602060405180830381865afa158015611d97573d6000803e3d6000fd5b505050506040513d601f19601f82011682018060405250810190611dbb9190613535565b73ffffffffffffffffffffffffffffffffffffffff1663acc5570c856040518263ffffffff1660e01b8152600401611df591815260200190565b60c060405180830381865afa158015611e12573d6000803e3d6000fd5b505050506040513d601f19601f82011682018060405250810190611e369190613646565b5073ffffffffffffffffffffffffffffffffffffffff928316600090815260066020908152604080832065ffffffffffff90941683529290522054909116979650505050505050565b60015460009073ffffffffffffffffffffffffffffffffffffffff168015801590611f6357506040517fb700961300000000000000000000000000000000000000000000000000000000815273ffffffffffffffffffffffffffffffffffffffff85811660048301523060248301527fffffffff000000000000000000000000000000000000000000000000000000008516604483015282169063b700961390606401602060405180830381865afa158015611f3f573d6000803e3d6000fd5b505050506040513d601f19601f82011682018060405250810190611f6391906136f4565b80611bfe575060005473ffffffffffffffffffffffffffffffffffffffff858116911614949350505050565b6040805173ffffffffffffffffffffffffffffffffffffffff8481166024830152604480830185905283518084039091018152606490920183526020820180517bffffffffffffffffffffffffffffffffffffffffffffffffffffffff167fa9059cbb0000000000000000000000000000000000000000000000000000000017905291516000928392908716916120269190613857565b6000604051808303816000865af19150503d8060008114612063576040519150601f19603f3d011682016040523d82523d6000602084013e612068565b606091505b509150915081801561209257508051158061209257508080602001905181019061209291906136f4565b80156120b5575060008573ffffffffffffffffffffffffffffffffffffffff163b115b61211b576040517f08c379a000000000000000000000000000000000000000000000000000000000815260206004820152600f60248201527f5452414e534645525f4641494c4544000000000000000000000000000000000060448201526064016104b2565b5050505050565b600080807fffffffffffffffffffffffffffffffffffffffffffffffffffffffffffffffff85870985870292508281108382030391505080600003612179576000841161216e57600080fd5b5082900490506121ed565b80841161218557600080fd5b600084868809851960019081018716968790049682860381900495909211909303600082900391909104909201919091029190911760038402600290811880860282030280860282030280860282030280860282030280860282030280860290910302029150505b9392505050565b6000806000807f000000000000000000000000000000000000000000000000000000000000000073ffffffffffffffffffffffffffffffffffffffff166352047942896040518263ffffffff1660e01b815260040161225591815260200190565b602060405180830381865afa158015612272573d6000803e3d6000fd5b505050506040513d601f19601f820116820180604052508101906122969190613535565b73ffffffffffffffffffffffffffffffffffffffff1663acc5570c896040518263ffffffff1660e01b81526004016122d091815260200190565b60c060405180830381865afa1580156122ed573d6000803e3d6000fd5b505050506040513d601f19601f820116820180604052508101906123119190613646565b5050935093509350935060008588612329919061362f565b6040517f70a0823100000000000000000000000000000000000000000000000000000000815230600482015290915060009073ffffffffffffffffffffffffffffffffffffffff8416906370a0823190602401602060405180830381865afa158015612399573d6000803e3d6000fd5b505050506040513d601f19601f820116820180604052508101906123bd91906136c3565b90506123e173ffffffffffffffffffffffffffffffffffffffff841633308c61298f565b6123eb89826136dc565b6040517f70a0823100000000000000000000000000000000000000000000000000000000815230600482015273ffffffffffffffffffffffffffffffffffffffff8516906370a0823190602401602060405180830381865afa158015612455573d6000803e3d6000fd5b505050506040513d601f19601f8201168201806040525081019061247991906136c3565b10156124b1576040517fd354452400000000000000000000000000000000000000000000000000000000815260040160405180910390fd5b73ffffffffffffffffffffffffffffffffffffffff8516156126e8576124ee73ffffffffffffffffffffffffffffffffffffffff84168684611f8f565b6040517f70a0823100000000000000000000000000000000000000000000000000000000815230600482015260009073ffffffffffffffffffffffffffffffffffffffff8616906370a0823190602401602060405180830381865afa15801561255b573d6000803e3d6000fd5b505050506040513d601f19601f8201168201806040525081019061257f91906136c3565b6040517f4b9de77c000000000000000000000000000000000000000000000000000000008152600481018d905260248101859052604481018b905290915073ffffffffffffffffffffffffffffffffffffffff871690634b9de77c90606401600060405180830381600087803b1580156125f857600080fd5b505af115801561260c573d6000803e3d6000fd5b50505050888161261c91906136dc565b6040517f70a0823100000000000000000000000000000000000000000000000000000000815230600482015273ffffffffffffffffffffffffffffffffffffffff8716906370a0823190602401602060405180830381865afa158015612686573d6000803e3d6000fd5b505050506040513d601f19601f820116820180604052508101906126aa91906136c3565b10156126e2576040517fe2a575ba00000000000000000000000000000000000000000000000000000000815260040160405180910390fd5b50612890565b6040517f70a0823100000000000000000000000000000000000000000000000000000000815230600482015260009073ffffffffffffffffffffffffffffffffffffffff8616906370a0823190602401602060405180830381865afa158015612755573d6000803e3d6000fd5b505050506040513d601f19601f8201168201806040525081019061277991906136c3565b905061279d73ffffffffffffffffffffffffffffffffffffffff861688308c61298f565b6127a789826136dc565b6040517f70a0823100000000000000000000000000000000000000000000000000000000815230600482015273ffffffffffffffffffffffffffffffffffffffff8716906370a0823190602401602060405180830381865afa158015612811573d6000803e3d6000fd5b505050506040513d601f19601f8201168201806040525081019061283591906136c3565b101561286d576040517fd354452400000000000000000000000000000000000000000000000000000000815260040160405180910390fd5b61288e73ffffffffffffffffffffffffffffffffffffffff85168885611f8f565b505b50505050505050505050565b60004265ffffffffffff168265ffffffffffff16111561296e575073ffffffffffffffffffffffffffffffffffffffff828116600090815260066020908152604080832065ffffffffffff86168452909152908190205490517f40c10f19000000000000000000000000000000000000000000000000000000008152868316600482015260248101869052839291909116906340c10f1990604401600060405180830381600087803b15801561295157600080fd5b505af1158015612965573d6000803e3d6000fd5b50505050611bfe565b611bfe73ffffffffffffffffffffffffffffffffffffffff84168686611f8f565b6040805173ffffffffffffffffffffffffffffffffffffffff85811660248301528481166044830152606480830185905283518084039091018152608490920183526020820180517bffffffffffffffffffffffffffffffffffffffffffffffffffffffff167f23b872dd000000000000000000000000000000000000000000000000000000001790529151600092839290881691612a2e9190613857565b6000604051808303816000865af19150503d8060008114612a6b576040519150601f19603f3d011682016040523d82523d6000602084013e612a70565b606091505b5091509150818015612a9a575080511580612a9a575080806020019051810190612a9a91906136f4565b8015612abd575060008673ffffffffffffffffffffffffffffffffffffffff163b115b612b23576040517f08c379a000000000000000000000000000000000000000000000000000000000815260206004820152601460248201527f5452414e534645525f46524f4d5f4641494c454400000000000000000000000060448201526064016104b2565b505050505050565b6060806000808080612b406201518088613873565b90506000612b518262010bd9613887565b612b5e9062253d8c613887565b9050600062023ab1612b718360046138fb565b612b7b91906139b7565b90506004612b8c8262023ab16138fb565b612b97906003613887565b612ba191906139b7565b612bab9083613a1f565b9150600062164b09612bbe846001613887565b612bca90610fa06138fb565b612bd491906139b7565b90506004612be4826105b56138fb565b612bee91906139b7565b612bf89084613a1f565b612c0390601f613887565b9250600061098f612c158560506138fb565b612c1f91906139b7565b905060006050612c318361098f6138fb565b612c3b91906139b7565b612c459086613a1f565b9050612c52600b836139b7565b9450612c5f85600c6138fb565b612c6a836002613887565b612c749190613a1f565b91508483612c83603187613a1f565b612c8e9060646138fb565b612c989190613887565b612ca29190613887565b9850909650945060009350612cc79250612cc29150612710905086613a93565b6130d2565b90506000600a8410612ce157612cdc846130d2565b612d0a565b612cea846130d2565b604051602001612cfa9190613aa7565b6040516020818303038152906040525b90506000600a8410612d2457612d1f846130d2565b612d4d565b612d2d846130d2565b604051602001612d3d9190613aa7565b6040516020818303038152906040525b90508973ffffffffffffffffffffffffffffffffffffffff166306fdde036040518163ffffffff1660e01b8152600401600060405180830381865afa158015612d9a573d6000803e3d6000fd5b505050506040513d6000823e601f3d9081017fffffffffffffffffffffffffffffffffffffffffffffffffffffffffffffffe0168201604052612de09190810190613aec565b838383604051602001612df69493929190613b95565b60405160208183030381529060405297508973ffffffffffffffffffffffffffffffffffffffff166395d89b416040518163ffffffff1660e01b8152600401600060405180830381865afa158015612e52573d6000803e3d6000fd5b505050506040513d6000823e601f3d9081017fffffffffffffffffffffffffffffffffffffffffffffffffffffffffffffffe0168201604052612e989190810190613aec565b838383604051602001612eae9493929190613c4a565b60405160208183030381529060405296505050505050509250929050565b80516040517f3d610000000000000000000000000000000000000000000000000000000000008152603a820160f081811b6002848101919091527f80600b3d3981f30000000000000000000000000000000000000000000000000060048501527f363d3d3761000000000000000000000000000000000000000000000000000000600b8501528401901b601083018190527f603836393d3d3d366100000000000000000000000000000000000000000000006012840152601b8301527f013d730000000000000000000000000000000000000000000000000000000000601d830152606085901b6020808401919091527f5af43d82803e903d91603657fd5bf3000000000000000000000000000000000060348401526000939260458401929186019084604382015b6020821061303257835181526020938401937fffffffffffffffffffffffffffffffffffffffffffffffffffffffffffffffe09092019101612ff5565b83517fffffffffffffffffffffffffffffffffffffffffffffffffffffffffffffffff60208490036101000a0119908116825260f088901b91830191825286846000f0985073ffffffffffffffffffffffffffffffffffffffff89166130c4576040517febfef18800000000000000000000000000000000000000000000000000000000815260040160405180910390fd5b505050505050505092915050565b60608160000361311557505060408051808201909152600181527f3000000000000000000000000000000000000000000000000000000000000000602082015290565b8160005b811561313f5780613129816135cd565b91506131389050600a83613873565b9150613119565b60008167ffffffffffffffff81111561315a5761315a6132e1565b6040519080825280601f01601f191660200182016040528015613184576020820181803683370190505b509050815b85156132295761319a60018261362f565b905060006131a9600a88613873565b6131b490600a613cd0565b6131be908861362f565b6131c9906030613d0d565b905060008160f81b9050808484815181106131e6576131e661356f565b60200101907effffffffffffffffffffffffffffffffffffffffffffffffffffffffffffff1916908160001a905350613220600a89613873565b97505050613189565b50949350505050565b65ffffffffffff8116811461324657600080fd5b50565b60006020828403121561325b57600080fd5b81356121ed81613232565b73ffffffffffffffffffffffffffffffffffffffff8116811461324657600080fd5b803561329381613266565b919050565b6000602082840312156132aa57600080fd5b81356121ed81613266565b600080604083850312156132c857600080fd5b82356132d381613266565b946020939093013593505050565b7f4e487b7100000000000000000000000000000000000000000000000000000000600052604160045260246000fd5b604051601f82017fffffffffffffffffffffffffffffffffffffffffffffffffffffffffffffffe016810167ffffffffffffffff81118282101715613357576133576132e1565b604052919050565b6000806040838503121561337257600080fd5b823567ffffffffffffffff8082111561338a57600080fd5b818501915085601f83011261339e57600080fd5b81356020828211156133b2576133b26132e1565b8160051b92506133c3818401613310565b82815292840181019281810190898511156133dd57600080fd5b948201945b8486101561340757853593506133f784613266565b83825294820194908201906133e2565b96506134169050878201613288565b9450505050509250929050565b600080600080600060a0868803121561343b57600080fd5b853561344681613266565b9450602086013561345681613266565b94979496505050506040830135926060810135926080909101359150565b6000806040838503121561348757600080fd5b823561349281613266565b915060208301356134a281613232565b809150509250929050565b6000806000606084860312156134c257600080fd5b83356134cd81613266565b925060208401356134dd81613232565b929592945050506040919091013590565b6000806040838503121561350157600080fd5b823561350c81613266565b915060208301356134a281613266565b60006020828403121561352e57600080fd5b5035919050565b60006020828403121561354757600080fd5b81516121ed81613266565b60006020828403121561356457600080fd5b81516121ed81613232565b7f4e487b7100000000000000000000000000000000000000000000000000000000600052603260045260246000fd5b7f4e487b7100000000000000000000000000000000000000000000000000000000600052601160045260246000fd5b60007fffffffffffffffffffffffffffffffffffffffffffffffffffffffffffffffff82036135fe576135fe61359e565b5060010190565b600065ffffffffffff8083168185168083038211156136265761362661359e565b01949350505050565b6000828210156136415761364161359e565b500390565b60008060008060008060c0878903121561365f57600080fd5b865161366a81613266565b602088015190965061367b81613266565b604088015190955061368c81613266565b606088015190945061369d81613266565b60808801519093506136ae81613232565b8092505060a087015190509295509295509295565b6000602082840312156136d557600080fd5b5051919050565b600082198211156136ef576136ef61359e565b500190565b60006020828403121561370657600080fd5b815180151581146121ed57600080fd5b7f4e487b7100000000000000000000000000000000000000000000000000000000600052601260045260246000fd5b600065ffffffffffff8084168061375e5761375e613716565b92169190910492915050565b600065ffffffffffff8083168185168183048111821515161561378f5761378f61359e565b02949350505050565b600065ffffffffffff838116908316818110156137b7576137b761359e565b039392505050565b805160208083015191908110156137fe577fffffffffffffffffffffffffffffffffffffffffffffffffffffffffffffffff8160200360031b1b821691505b50919050565b60006020828403121561381657600080fd5b815160ff811681146121ed57600080fd5b60005b8381101561384257818101518382015260200161382a565b83811115613851576000848401525b50505050565b60008251613869818460208701613827565b9190910192915050565b60008261388257613882613716565b500490565b6000808212827f7fffffffffffffffffffffffffffffffffffffffffffffffffffffffffffffff038413811516156138c1576138c161359e565b827f80000000000000000000000000000000000000000000000000000000000000000384128116156138f5576138f561359e565b50500190565b60007f7fffffffffffffffffffffffffffffffffffffffffffffffffffffffffffffff60008413600084138583048511828216161561393c5761393c61359e565b7f800000000000000000000000000000000000000000000000000000000000000060008712868205881281841616156139775761397761359e565b600087129250878205871284841616156139935761399361359e565b878505871281841616156139a9576139a961359e565b505050929093029392505050565b6000826139c6576139c6613716565b7fffffffffffffffffffffffffffffffffffffffffffffffffffffffffffffffff83147f800000000000000000000000000000000000000000000000000000000000000083141615613a1a57613a1a61359e565b500590565b6000808312837f800000000000000000000000000000000000000000000000000000000000000001831281151615613a5957613a5961359e565b837f7fffffffffffffffffffffffffffffffffffffffffffffffffffffffffffffff018313811615613a8d57613a8d61359e565b50500390565b600082613aa257613aa2613716565b500690565b7f3000000000000000000000000000000000000000000000000000000000000000815260008251613adf816001850160208701613827565b9190910160010192915050565b600060208284031215613afe57600080fd5b815167ffffffffffffffff80821115613b1657600080fd5b818401915084601f830112613b2a57600080fd5b815181811115613b3c57613b3c6132e1565b613b6d60207fffffffffffffffffffffffffffffffffffffffffffffffffffffffffffffffe0601f84011601613310565b9150808252856020828501011115613b8457600080fd5b613229816020840160208601613827565b60008551613ba7818460208a01613827565b7f20000000000000000000000000000000000000000000000000000000000000009083019081528551613be1816001840160208a01613827565b8082019150507f2d000000000000000000000000000000000000000000000000000000000000008060018301528551613c21816002850160208a01613827565b60029201918201528351613c3c816003840160208801613827565b016003019695505050505050565b60008551613c5c818460208a01613827565b7f2d000000000000000000000000000000000000000000000000000000000000009083019081528551613c96816001840160208a01613827565b8551910190613cac816001840160208901613827565b8451910190613cc2816001840160208801613827565b016001019695505050505050565b6000817fffffffffffffffffffffffffffffffffffffffffffffffffffffffffffffffff0483118215151615613d0857613d0861359e565b500290565b600060ff821660ff84168060ff03821115613d2a57613d2a61359e565b01939250505056fea264697066735822122049d67935b2554c1dbfa203460385304801a914146613d59e03a4ebc55842868664736f6c634300080f0033608060405234801561001057600080fd5b50610ad4806100206000396000f3fe608060405234801561001057600080fd5b50600436106101005760003560e01c80636f307dc311610097578063a457c2d711610066578063a457c2d714610222578063a9059cbb14610235578063dd62ed3e14610248578063e184c9be1461027357600080fd5b80636f307dc3146101df57806370a08231146101e757806395d89b41146102075780639dc29fac1461020f57600080fd5b8063313ce567116100d3578063313ce56714610170578063395093511461018a57806340c10f191461019d57806357edab4e146101b257600080fd5b806306fdde0314610105578063095ea7b31461012357806318160ddd1461014657806323b872dd1461015d575b600080fd5b61010d610292565b60405161011a91906108e9565b60405180910390f35b610136610131366004610985565b6102c4565b604051901515815260200161011a565b61014f60005481565b60405190815260200161011a565b61013661016b3660046109af565b61033d565b610178610481565b60405160ff909116815260200161011a565b610136610198366004610985565b610492565b6101b06101ab366004610985565b61053d565b005b6101ba6105b7565b60405173ffffffffffffffffffffffffffffffffffffffff909116815260200161011a565b6101ba6105c3565b61014f6101f53660046109eb565b60016020526000908152604090205481565b61010d6105cf565b6101b061021d366004610985565b6105db565b610136610230366004610985565b610651565b610136610243366004610985565b610693565b61014f610256366004610a0d565b600260209081526000928352604080842090915290825290205481565b61027b610718565b60405165ffffffffffff909116815260200161011a565b606061029e6000610720565b6040516020016102b091815260200190565b604051602081830303815290604052905090565b33600081815260026020908152604080832073ffffffffffffffffffffffffffffffffffffffff8716808552925280832085905551919290917f8c5be1e5ebec7d5bd14f71427d1e84f3dd0314c0f7b2291e5b200ac8c7c3b9259061032c9086815260200190565b60405180910390a350600192915050565b73ffffffffffffffffffffffffffffffffffffffff831660009081526002602090815260408083203384529091528120547fffffffffffffffffffffffffffffffffffffffffffffffffffffffffffffffff81146103d15761039f8382610a6f565b73ffffffffffffffffffffffffffffffffffffffff861660009081526002602090815260408083203384529091529020555b73ffffffffffffffffffffffffffffffffffffffff851660009081526001602052604081208054859290610406908490610a6f565b909155505073ffffffffffffffffffffffffffffffffffffffff808516600081815260016020526040908190208054870190555190918716907fddf252ad1be2c89b69c2b068fc378daa952ba7f163c4a11628f55a4df523b3ef9061046e9087815260200190565b60405180910390a3506001949350505050565b600061048d6040610760565b905090565b33600090815260026020908152604080832073ffffffffffffffffffffffffffffffffffffffff861684529091528120805483919083906104d4908490610a86565b909155505033600081815260026020908152604080832073ffffffffffffffffffffffffffffffffffffffff8816808552908352928190205490519081529192917f8c5be1e5ebec7d5bd14f71427d1e84f3dd0314c0f7b2291e5b200ac8c7c3b925910161032c565b6105456105b7565b73ffffffffffffffffffffffffffffffffffffffff163373ffffffffffffffffffffffffffffffffffffffff16146105a9576040517f5451629900000000000000000000000000000000000000000000000000000000815260040160405180910390fd5b6105b382826107a3565b5050565b600061048d607561081b565b600061048d604161081b565b606061029e6020610720565b6105e36105b7565b73ffffffffffffffffffffffffffffffffffffffff163373ffffffffffffffffffffffffffffffffffffffff1614610647576040517f5451629900000000000000000000000000000000000000000000000000000000815260040160405180910390fd5b6105b3828261085e565b33600090815260026020908152604080832073ffffffffffffffffffffffffffffffffffffffff861684529091528120805483919083906104d4908490610a6f565b336000908152600160205260408120805483919083906106b4908490610a6f565b909155505073ffffffffffffffffffffffffffffffffffffffff8316600081815260016020526040908190208054850190555133907fddf252ad1be2c89b69c2b068fc378daa952ba7f163c4a11628f55a4df523b3ef9061032c9086815260200190565b600061048d60555b6000806107557ffffffffffffffffffffffffffffffffffffffffffffffffffffffffffffffffe368181013560f01c90030190565b929092013592915050565b6000806107957ffffffffffffffffffffffffffffffffffffffffffffffffffffffffffffffffe368181013560f01c90030190565b929092013560f81c92915050565b806000808282546107b49190610a86565b909155505073ffffffffffffffffffffffffffffffffffffffff82166000818152600160209081526040808320805486019055518481527fddf252ad1be2c89b69c2b068fc378daa952ba7f163c4a11628f55a4df523b3ef91015b60405180910390a35050565b6000806108507ffffffffffffffffffffffffffffffffffffffffffffffffffffffffffffffffe368181013560f01c90030190565b929092013560601c92915050565b73ffffffffffffffffffffffffffffffffffffffff821660009081526001602052604081208054839290610893908490610a6f565b909155505060008054829003815560405182815273ffffffffffffffffffffffffffffffffffffffff8416907fddf252ad1be2c89b69c2b068fc378daa952ba7f163c4a11628f55a4df523b3ef9060200161080f565b600060208083528351808285015260005b81811015610916578581018301518582016040015282016108fa565b81811115610928576000604083870101525b50601f017fffffffffffffffffffffffffffffffffffffffffffffffffffffffffffffffe016929092016040019392505050565b803573ffffffffffffffffffffffffffffffffffffffff8116811461098057600080fd5b919050565b6000806040838503121561099857600080fd5b6109a18361095c565b946020939093013593505050565b6000806000606084860312156109c457600080fd5b6109cd8461095c565b92506109db6020850161095c565b9150604084013590509250925092565b6000602082840312156109fd57600080fd5b610a068261095c565b9392505050565b60008060408385031215610a2057600080fd5b610a298361095c565b9150610a376020840161095c565b90509250929050565b7f4e487b7100000000000000000000000000000000000000000000000000000000600052601160045260246000fd5b600082821015610a8157610a81610a40565b500390565b60008219821115610a9957610a99610a40565b50019056fea264697066735822122011bcf909503e5cb35b234242b937e745be1e4e2bab32f4f8e121a5924268ac5464736f6c634300080f0033",
    "linkReferences": {}
  },
  "methodIdentifiers": {
    "FEE_DECIMALS()": "ccf288c6",
    "authority()": "bf7e214f",
    "bondTokenImplementation()": "6c436dd5",
    "bondTokens(address,uint48)": "709ea865",
    "claimFees(address[],address)": "2f6fa94e",
    "create(address,uint48,uint256)": "b7314ef9",
    "createFeeDiscount()": "06692a37",
    "deploy(address,uint48)": "c6e38a4b",
    "getBondToken(address,uint48)": "fa922c26",
    "getBondTokenForMarket(uint256)": "fcdc3126",
    "getFee(address)": "b88c9148",
    "owner()": "8da5cb5b",
    "protocolFee()": "b0e21e8a",
    "purchase(address,address,uint256,uint256,uint256)": "6de5b4cd",
    "redeem(address,uint256)": "1e9a6950",
    "referrerFees(address)": "c23135dd",
    "rewards(address,address)": "e70b9e27",
    "setAuthority(address)": "7a9e5e4b",
    "setCreateFeeDiscount(uint48)": "81690927",
    "setOwner(address)": "13af4035",
    "setProtocolFee(uint48)": "b1e55529",
    "setReferrerFee(uint48)": "0d4dfc21"
  },
  "id": 34
}