{
  "abi": [
    {
      "inputs": [
        {
          "internalType": "address",
          "name": "protocol_",
          "type": "address"
        },
        {
          "internalType": "contract IBondAggregator",
          "name": "aggregator_",
          "type": "address"
        },
        {
          "internalType": "address",
          "name": "guardian_",
          "type": "address"
        },
        {
          "internalType": "contract Authority",
          "name": "authority_",
          "type": "address"
        }
      ],
      "stateMutability": "nonpayable",
      "type": "constructor"
    },
    {
      "inputs": [],
      "name": "CreateFail",
      "type": "error"
    },
    {
      "inputs": [],
      "name": "Teller_InvalidCallback",
      "type": "error"
    },
    {
      "inputs": [],
      "name": "Teller_InvalidParams",
      "type": "error"
    },
    {
      "inputs": [],
      "name": "Teller_NotAuthorized",
      "type": "error"
    },
    {
      "inputs": [
        {
          "internalType": "contract ERC20",
          "name": "underlying",
          "type": "address"
        },
        {
          "internalType": "uint48",
          "name": "expiry",
          "type": "uint48"
        }
      ],
      "name": "Teller_TokenDoesNotExist",
      "type": "error"
    },
    {
      "inputs": [
        {
          "internalType": "uint48",
          "name": "maturesOn",
          "type": "uint48"
        }
      ],
      "name": "Teller_TokenNotMatured",
      "type": "error"
    },
    {
      "inputs": [],
      "name": "Teller_UnsupportedToken",
      "type": "error"
    },
    {
      "anonymous": false,
      "inputs": [
        {
          "indexed": true,
          "internalType": "address",
          "name": "user",
          "type": "address"
        },
        {
          "indexed": true,
          "internalType": "contract Authority",
          "name": "newAuthority",
          "type": "address"
        }
      ],
      "name": "AuthorityUpdated",
      "type": "event"
    },
    {
      "anonymous": false,
      "inputs": [
        {
          "indexed": true,
          "internalType": "uint256",
          "name": "id",
          "type": "uint256"
        },
        {
          "indexed": true,
          "internalType": "address",
          "name": "referrer",
          "type": "address"
        },
        {
          "indexed": false,
          "internalType": "uint256",
          "name": "amount",
          "type": "uint256"
        },
        {
          "indexed": false,
          "internalType": "uint256",
          "name": "payout",
          "type": "uint256"
        }
      ],
      "name": "Bonded",
      "type": "event"
    },
    {
      "anonymous": false,
      "inputs": [
        {
          "indexed": false,
          "internalType": "contract ERC20BondToken",
          "name": "bondToken",
          "type": "address"
        },
        {
          "indexed": true,
          "internalType": "contract ERC20",
          "name": "underlying",
          "type": "address"
        },
        {
          "indexed": true,
          "internalType": "uint48",
          "name": "expiry",
          "type": "uint48"
        }
      ],
      "name": "ERC20BondTokenCreated",
      "type": "event"
    },
    {
      "anonymous": false,
      "inputs": [
        {
          "indexed": true,
          "internalType": "address",
          "name": "user",
          "type": "address"
        },
        {
          "indexed": true,
          "internalType": "address",
          "name": "newOwner",
          "type": "address"
        }
      ],
      "name": "OwnerUpdated",
      "type": "event"
    },
    {
      "inputs": [],
      "name": "FEE_DECIMALS",
      "outputs": [
        {
          "internalType": "uint48",
          "name": "",
          "type": "uint48"
        }
      ],
      "stateMutability": "view",
      "type": "function"
    },
    {
      "inputs": [],
      "name": "authority",
      "outputs": [
        {
          "internalType": "contract Authority",
          "name": "",
          "type": "address"
        }
      ],
      "stateMutability": "view",
      "type": "function"
    },
    {
      "inputs": [],
      "name": "bondTokenImplementation",
      "outputs": [
        {
          "internalType": "contract ERC20BondToken",
          "name": "",
          "type": "address"
        }
      ],
      "stateMutability": "view",
      "type": "function"
    },
    {
      "inputs": [
        {
          "internalType": "contract ERC20",
          "name": "",
          "type": "address"
        },
        {
          "internalType": "uint48",
          "name": "",
          "type": "uint48"
        }
      ],
      "name": "bondTokens",
      "outputs": [
        {
          "internalType": "contract ERC20BondToken",
          "name": "",
          "type": "address"
        }
      ],
      "stateMutability": "view",
      "type": "function"
    },
    {
      "inputs": [
        {
          "internalType": "contract ERC20[]",
          "name": "tokens_",
          "type": "address[]"
        },
        {
          "internalType": "address",
          "name": "to_",
          "type": "address"
        }
      ],
      "name": "claimFees",
      "outputs": [],
      "stateMutability": "nonpayable",
      "type": "function"
    },
    {
      "inputs": [
        {
          "internalType": "contract ERC20",
          "name": "underlying_",
          "type": "address"
        },
        {
          "internalType": "uint48",
          "name": "expiry_",
          "type": "uint48"
        },
        {
          "internalType": "uint256",
          "name": "amount_",
          "type": "uint256"
        }
      ],
      "name": "create",
      "outputs": [
        {
          "internalType": "contract ERC20BondToken",
          "name": "",
          "type": "address"
        },
        {
          "internalType": "uint256",
          "name": "",
          "type": "uint256"
        }
      ],
      "stateMutability": "nonpayable",
      "type": "function"
    },
    {
      "inputs": [],
      "name": "createFeeDiscount",
      "outputs": [
        {
          "internalType": "uint48",
          "name": "",
          "type": "uint48"
        }
      ],
      "stateMutability": "view",
      "type": "function"
    },
    {
      "inputs": [
        {
          "internalType": "contract ERC20",
          "name": "underlying_",
          "type": "address"
        },
        {
          "internalType": "uint48",
          "name": "expiry_",
          "type": "uint48"
        }
      ],
      "name": "deploy",
      "outputs": [
        {
          "internalType": "contract ERC20BondToken",
          "name": "",
          "type": "address"
        }
      ],
      "stateMutability": "nonpayable",
      "type": "function"
    },
    {
      "inputs": [
        {
          "internalType": "uint256",
          "name": "id_",
          "type": "uint256"
        }
      ],
      "name": "getBondTokenForMarket",
      "outputs": [
        {
          "internalType": "contract ERC20BondToken",
          "name": "",
          "type": "address"
        }
      ],
      "stateMutability": "view",
      "type": "function"
    },
    {
      "inputs": [
        {
          "internalType": "address",
          "name": "referrer_",
          "type": "address"
        }
      ],
      "name": "getFee",
      "outputs": [
        {
          "internalType": "uint48",
          "name": "",
          "type": "uint48"
        }
      ],
      "stateMutability": "view",
      "type": "function"
    },
    {
      "inputs": [],
      "name": "owner",
      "outputs": [
        {
          "internalType": "address",
          "name": "",
          "type": "address"
        }
      ],
      "stateMutability": "view",
      "type": "function"
    },
    {
      "inputs": [],
      "name": "protocolFee",
      "outputs": [
        {
          "internalType": "uint48",
          "name": "",
          "type": "uint48"
        }
      ],
      "stateMutability": "view",
      "type": "function"
    },
    {
      "inputs": [
        {
          "internalType": "address",
          "name": "recipient_",
          "type": "address"
        },
        {
          "internalType": "address",
          "name": "referrer_",
          "type": "address"
        },
        {
          "internalType": "uint256",
          "name": "id_",
          "type": "uint256"
        },
        {
          "internalType": "uint256",
          "name": "amount_",
          "type": "uint256"
        },
        {
          "internalType": "uint256",
          "name": "minAmountOut_",
          "type": "uint256"
        }
      ],
      "name": "purchase",
      "outputs": [
        {
          "internalType": "uint256",
          "name": "",
          "type": "uint256"
        },
        {
          "internalType": "uint48",
          "name": "",
          "type": "uint48"
        }
      ],
      "stateMutability": "nonpayable",
      "type": "function"
    },
    {
      "inputs": [
        {
          "internalType": "contract ERC20BondToken",
          "name": "token_",
          "type": "address"
        },
        {
          "internalType": "uint256",
          "name": "amount_",
          "type": "uint256"
        }
      ],
      "name": "redeem",
      "outputs": [],
      "stateMutability": "nonpayable",
      "type": "function"
    },
    {
      "inputs": [
        {
          "internalType": "address",
          "name": "",
          "type": "address"
        }
      ],
      "name": "referrerFees",
      "outputs": [
        {
          "internalType": "uint48",
          "name": "",
          "type": "uint48"
        }
      ],
      "stateMutability": "view",
      "type": "function"
    },
    {
      "inputs": [
        {
          "internalType": "address",
          "name": "",
          "type": "address"
        },
        {
          "internalType": "contract ERC20",
          "name": "",
          "type": "address"
        }
      ],
      "name": "rewards",
      "outputs": [
        {
          "internalType": "uint256",
          "name": "",
          "type": "uint256"
        }
      ],
      "stateMutability": "view",
      "type": "function"
    },
    {
      "inputs": [
        {
          "internalType": "contract Authority",
          "name": "newAuthority",
          "type": "address"
        }
      ],
      "name": "setAuthority",
      "outputs": [],
      "stateMutability": "nonpayable",
      "type": "function"
    },
    {
      "inputs": [
        {
          "internalType": "address",
          "name": "newOwner",
          "type": "address"
        }
      ],
      "name": "setOwner",
      "outputs": [],
      "stateMutability": "nonpayable",
      "type": "function"
    },
    {
      "inputs": [
        {
          "internalType": "uint48",
          "name": "fee_",
          "type": "uint48"
        }
      ],
      "name": "setProtocolFee",
      "outputs": [],
      "stateMutability": "nonpayable",
      "type": "function"
    },
    {
      "inputs": [
        {
          "internalType": "uint48",
          "name": "fee_",
          "type": "uint48"
        }
      ],
      "name": "setReferrerFee",
      "outputs": [],
      "stateMutability": "nonpayable",
      "type": "function"
    }
  ],
  "bytecode": {
    "object": "0x60e060405260016002553480156200001657600080fd5b506040516200440a3803806200440a833981016040819052620000399162000163565b600080546001600160a01b03199081166001600160a01b0385811691821784556001805490931690851617909155604051869286928692869284928492909133917f8292fce18fa69edf4db7b94ea2e58241df0ae57f97e0a6c9b29067028bf92d769190a36040516001600160a01b0382169033907fa3396fd7f6e0a21b50e5089d2da70d5ac0a3bbbd1f617a93f134b7638998019890600090a35050506001600160a01b03928316608052501660a0526004805465ffffffffffff1916905560405162000107906200013c565b604051809103906000f08015801562000124573d6000803e3d6000fd5b506001600160a01b031660c05250620001cb92505050565b6109b88062003a5283390190565b6001600160a01b03811681146200016057600080fd5b50565b600080600080608085870312156200017a57600080fd5b845162000187816200014a565b60208601519094506200019a816200014a565b6040860151909350620001ad816200014a565b6060860151909250620001c0816200014a565b939692955090935050565b60805160a05160c05161383b62000217600039600081816101fc01526117de015260008181610acd015281816118b80152611d71015260008181610d3101526113c3015261383b6000f3fe608060405234801561001057600080fd5b506004361061016c5760003560e01c8063b0e21e8a116100cd578063c23135dd11610081578063ccf288c611610066578063ccf288c6146103b8578063e70b9e27146103c2578063fcdc3126146103fb57600080fd5b8063c23135dd1461037d578063c6e38a4b146103a557600080fd5b8063b7314ef9116100b2578063b7314ef91461030b578063b88c91481461034a578063bf7e214f1461035d57600080fd5b8063b0e21e8a146102e6578063b1e55529146102f857600080fd5b80636c436dd511610124578063709ea86511610109578063709ea865146102725780637a9e5e4b146102b35780638da5cb5b146102c657600080fd5b80636c436dd5146101f75780636de5b4cd1461024357600080fd5b806313af40351161015557806313af4035146101be5780631e9a6950146101d15780632f6fa94e146101e457600080fd5b806306692a37146101715780630d4dfc21146101a9575b600080fd5b60045461018d906601000000000000900465ffffffffffff1681565b60405165ffffffffffff90911681526020015b60405180910390f35b6101bc6101b7366004612d73565b61040e565b005b6101bc6101cc366004612dc2565b610498565b6101bc6101df366004612ddf565b6105a1565b6101bc6101f2366004612e89565b6108de565b61021e7f000000000000000000000000000000000000000000000000000000000000000081565b60405173ffffffffffffffffffffffffffffffffffffffff90911681526020016101a0565b610256610251366004612f4d565b610965565b6040805192835265ffffffffffff9091166020830152016101a0565b61021e610280366004612f9e565b600660209081526000928352604080842090915290825290205473ffffffffffffffffffffffffffffffffffffffff1681565b6101bc6102c1366004612dc2565b610e1c565b60005461021e9073ffffffffffffffffffffffffffffffffffffffff1681565b60045461018d9065ffffffffffff1681565b6101bc610306366004612d73565b610f79565b61031e610319366004612fd7565b611046565b6040805173ffffffffffffffffffffffffffffffffffffffff90931683526020830191909152016101a0565b61018d610358366004612dc2565b61157a565b60015461021e9073ffffffffffffffffffffffffffffffffffffffff1681565b61018d61038b366004612dc2565b60036020526000908152604090205465ffffffffffff1681565b61021e6103b3366004612f9e565b6115be565b61018d620186a081565b6103ed6103d0366004613018565b600560209081526000928352604080842090915290825290205481565b6040519081526020016101a0565b61021e610409366004613046565b6118b1565b61c3508165ffffffffffff161115610452576040517fe94b8f2700000000000000000000000000000000000000000000000000000000815260040160405180910390fd5b33600090815260036020526040902080547fffffffffffffffffffffffffffffffffffffffffffffffffffff0000000000001665ffffffffffff92909216919091179055565b6104c6336000357fffffffff0000000000000000000000000000000000000000000000000000000016611a16565b610531576040517f08c379a000000000000000000000000000000000000000000000000000000000815260206004820152600c60248201527f554e415554484f52495a4544000000000000000000000000000000000000000060448201526064015b60405180910390fd5b600080547fffffffffffffffffffffffff00000000000000000000000000000000000000001673ffffffffffffffffffffffffffffffffffffffff83169081178255604051909133917f8292fce18fa69edf4db7b94ea2e58241df0ae57f97e0a6c9b29067028bf92d769190a350565b60025460011461060d576040517f08c379a000000000000000000000000000000000000000000000000000000000815260206004820152600a60248201527f5245454e5452414e4359000000000000000000000000000000000000000000006044820152606401610528565b600280819055508173ffffffffffffffffffffffffffffffffffffffff1663e184c9be6040518163ffffffff1660e01b8152600401602060405180830381865afa15801561065f573d6000803e3d6000fd5b505050506040513d601f19601f82011682018060405250810190610683919061305f565b65ffffffffffff164265ffffffffffff161015610746578173ffffffffffffffffffffffffffffffffffffffff1663e184c9be6040518163ffffffff1660e01b8152600401602060405180830381865afa1580156106e5573d6000803e3d6000fd5b505050506040513d601f19601f82011682018060405250810190610709919061305f565b6040517f4fb1e97300000000000000000000000000000000000000000000000000000000815265ffffffffffff9091166004820152602401610528565b6040517f9dc29fac0000000000000000000000000000000000000000000000000000000081523360048201526024810182905273ffffffffffffffffffffffffffffffffffffffff831690639dc29fac90604401600060405180830381600087803b1580156107b457600080fd5b505af11580156107c8573d6000803e3d6000fd5b505050508173ffffffffffffffffffffffffffffffffffffffff16636f307dc36040518163ffffffff1660e01b8152600401602060405180830381865afa158015610817573d6000803e3d6000fd5b505050506040513d601f19601f8201168201806040525081019061083b919061307c565b6040517fa9059cbb0000000000000000000000000000000000000000000000000000000081523360048201526024810183905273ffffffffffffffffffffffffffffffffffffffff919091169063a9059cbb906044016020604051808303816000875af11580156108b0573d6000803e3d6000fd5b505050506040513d601f19601f820116820180604052508101906108d49190613099565b5050600160025550565b815160005b8181101561095f5760008482815181106108ff576108ff6130bb565b60209081029190910181015133600090815260058352604080822073ffffffffffffffffffffffffffffffffffffffff84168084529452812080549190559092509061094c908683611b27565b50508061095890613119565b90506108e3565b50505050565b6000806002546001146109d4576040517f08c379a000000000000000000000000000000000000000000000000000000000815260206004820152600a60248201527f5245454e5452414e4359000000000000000000000000000000000000000000006044820152606401610528565b6002805573ffffffffffffffffffffffffffffffffffffffff86166000908152600360205260408120548190819081908190610a1d908a9065ffffffffffff16620186a0611c97565b73ffffffffffffffffffffffffffffffffffffffff8c1660009081526003602052604081205460045492935090918391610a7991610a669165ffffffffffff9081169116613151565b8c9065ffffffffffff16620186a0611c97565b610a83919061317b565b6040517f52047942000000000000000000000000000000000000000000000000000000008152600481018d905290915060009073ffffffffffffffffffffffffffffffffffffffff7f00000000000000000000000000000000000000000000000000000000000000001690635204794290602401602060405180830381865afa158015610b14573d6000803e3d6000fd5b505050506040513d601f19601f82011682018060405250810190610b38919061307c565b6040517facc5570c000000000000000000000000000000000000000000000000000000008152600481018e905290915060009073ffffffffffffffffffffffffffffffffffffffff83169063acc5570c9060240160c060405180830381865afa158015610ba9573d6000803e3d6000fd5b505050506040513d601f19601f82011682018060405250810190610bcd9190613192565b50919b50995097509091506000905083610be7868f61317b565b610bf1919061317b565b90508273ffffffffffffffffffffffffffffffffffffffff1663e007fa978f838f6040518463ffffffff1660e01b8152600401610c41939291909283526020830191909152604082015260600190565b6020604051808303816000875af1158015610c60573d6000803e3d6000fd5b505050506040513d601f19601f82011682018060405250810190610c84919061320f565b955050505081600560008e73ffffffffffffffffffffffffffffffffffffffff1673ffffffffffffffffffffffffffffffffffffffff16815260200190815260200160002060008773ffffffffffffffffffffffffffffffffffffffff1673ffffffffffffffffffffffffffffffffffffffff1681526020019081526020016000206000828254610d159190613228565b909155505073ffffffffffffffffffffffffffffffffffffffff7f00000000000000000000000000000000000000000000000000000000000000008116600090815260056020908152604080832093891683529290529081208054839290610d7e908490613228565b90915550610d9990508b8b85610d948587613228565b611d69565b6000610da78e858988612411565b90508c73ffffffffffffffffffffffffffffffffffffffff168c7f3ae5efadaccde413bdfcb3a4626babecd844c502ee4c2c9b340f28cd9d5527328d87604051610dfb929190918252602082015260400190565b60405180910390a36001600255929d929c50919a5050505050505050505050565b60005473ffffffffffffffffffffffffffffffffffffffff16331480610eff57506001546040517fb70096130000000000000000000000000000000000000000000000000000000081523360048201523060248201526000357fffffffff0000000000000000000000000000000000000000000000000000000016604482015273ffffffffffffffffffffffffffffffffffffffff9091169063b700961390606401602060405180830381865afa158015610edb573d6000803e3d6000fd5b505050506040513d601f19601f82011682018060405250810190610eff9190613099565b610f0857600080fd5b600180547fffffffffffffffffffffffff00000000000000000000000000000000000000001673ffffffffffffffffffffffffffffffffffffffff831690811790915560405133907fa3396fd7f6e0a21b50e5089d2da70d5ac0a3bbbd1f617a93f134b7638998019890600090a350565b610fa7336000357fffffffff0000000000000000000000000000000000000000000000000000000016611a16565b61100d576040517f08c379a000000000000000000000000000000000000000000000000000000000815260206004820152600c60248201527f554e415554484f52495a454400000000000000000000000000000000000000006044820152606401610528565b600480547fffffffffffffffffffffffffffffffffffffffffffffffffffff0000000000001665ffffffffffff92909216919091179055565b6000806002546001146110b5576040517f08c379a000000000000000000000000000000000000000000000000000000000815260206004820152600a60248201527f5245454e5452414e4359000000000000000000000000000000000000000000006044820152606401610528565b6002805573ffffffffffffffffffffffffffffffffffffffff808616600090815260066020908152604080832065ffffffffffff891684529091529020541680611151576040517fcb66c9db00000000000000000000000000000000000000000000000000000000815273ffffffffffffffffffffffffffffffffffffffff8716600482015265ffffffffffff86166024820152604401610528565b6040517f70a0823100000000000000000000000000000000000000000000000000000000815230600482015260009073ffffffffffffffffffffffffffffffffffffffff8816906370a0823190602401602060405180830381865afa1580156111be573d6000803e3d6000fd5b505050506040513d601f19601f820116820180604052508101906111e2919061320f565b6040517f23b872dd0000000000000000000000000000000000000000000000000000000081523360048201523060248201526044810187905290915073ffffffffffffffffffffffffffffffffffffffff8816906323b872dd906064016020604051808303816000875af115801561125e573d6000803e3d6000fd5b505050506040513d601f19601f820116820180604052508101906112829190613099565b5061128d8582613228565b6040517f70a0823100000000000000000000000000000000000000000000000000000000815230600482015273ffffffffffffffffffffffffffffffffffffffff8916906370a0823190602401602060405180830381865afa1580156112f7573d6000803e3d6000fd5b505050506040513d601f19601f8201168201806040525081019061131b919061320f565b1015611353576040517fd354452400000000000000000000000000000000000000000000000000000000815260040160405180910390fd5b60045465ffffffffffff660100000000000082048116911611156114dd576004546000906113ac906113999065ffffffffffff6601000000000000820481169116613240565b879065ffffffffffff16620186a0611c97565b73ffffffffffffffffffffffffffffffffffffffff7f000000000000000000000000000000000000000000000000000000000000000081166000908152600560209081526040808320938d16835292905290812080549293508392909190611415908490613228565b909155505073ffffffffffffffffffffffffffffffffffffffff83166340c10f1933611441848a61317b565b6040517fffffffff0000000000000000000000000000000000000000000000000000000060e085901b16815273ffffffffffffffffffffffffffffffffffffffff90921660048301526024820152604401600060405180830381600087803b1580156114ac57600080fd5b505af11580156114c0573d6000803e3d6000fd5b505050508281876114d1919061317b565b9450945050505061156b565b6040517f40c10f190000000000000000000000000000000000000000000000000000000081523360048201526024810186905273ffffffffffffffffffffffffffffffffffffffff8316906340c10f1990604401600060405180830381600087803b15801561154b57600080fd5b505af115801561155f573d6000803e3d6000fd5b50939550869450505050505b60016002559094909350915050565b73ffffffffffffffffffffffffffffffffffffffff81166000908152600360205260408120546004546115b89165ffffffffffff9081169116613151565b92915050565b600060025460011461162c576040517f08c379a000000000000000000000000000000000000000000000000000000000815260206004820152600a60248201527f5245454e5452414e4359000000000000000000000000000000000000000000006044820152606401610528565b6002805573ffffffffffffffffffffffffffffffffffffffff808416600090815260066020908152604080832065ffffffffffff8716845290915290205416806118a557600080611685868665ffffffffffff16612504565b9150915060008261169590613267565b61169e83613267565b8873ffffffffffffffffffffffffffffffffffffffff1663313ce5676040518163ffffffff1660e01b8152600401602060405180830381865afa1580156116e9573d6000803e3d6000fd5b505050506040513d601f19601f8201168201806040525081019061170d91906132ac565b60408051602081019490945283019190915260f81b7fff000000000000000000000000000000000000000000000000000000000000001660608083019190915288811b7fffffffffffffffffffffffffffffffffffffffff000000000000000000000000908116606184015265ffffffffffff891660758401523090911b16609582015260a901604080517fffffffffffffffffffffffffffffffffffffffffffffffffffffffffffffffe0818403018152919052905061180473ffffffffffffffffffffffffffffffffffffffff7f000000000000000000000000000000000000000000000000000000000000000016826128a5565b73ffffffffffffffffffffffffffffffffffffffff888116600081815260066020908152604080832065ffffffffffff8d168085529083529281902080547fffffffffffffffffffffffff0000000000000000000000000000000000000000169587169586179055519384529397509290917f4fd9a46575749d9ddf290fadaa5729fc640790e2b6360df8cc8af35e418dcec0910160405180910390a35050505b60016002559392505050565b60008060007f000000000000000000000000000000000000000000000000000000000000000073ffffffffffffffffffffffffffffffffffffffff166352047942856040518263ffffffff1660e01b815260040161191191815260200190565b602060405180830381865afa15801561192e573d6000803e3d6000fd5b505050506040513d601f19601f82011682018060405250810190611952919061307c565b73ffffffffffffffffffffffffffffffffffffffff1663acc5570c856040518263ffffffff1660e01b815260040161198c91815260200190565b60c060405180830381865afa1580156119a9573d6000803e3d6000fd5b505050506040513d601f19601f820116820180604052508101906119cd9190613192565b5073ffffffffffffffffffffffffffffffffffffffff928316600090815260066020908152604080832065ffffffffffff90941683529290522054909116979650505050505050565b60015460009073ffffffffffffffffffffffffffffffffffffffff168015801590611afa57506040517fb700961300000000000000000000000000000000000000000000000000000000815273ffffffffffffffffffffffffffffffffffffffff85811660048301523060248301527fffffffff000000000000000000000000000000000000000000000000000000008516604483015282169063b700961390606401602060405180830381865afa158015611ad6573d6000803e3d6000fd5b505050506040513d601f19601f82011682018060405250810190611afa9190613099565b80611b1f575060005473ffffffffffffffffffffffffffffffffffffffff8581169116145b949350505050565b6040805173ffffffffffffffffffffffffffffffffffffffff8481166024830152604480830185905283518084039091018152606490920183526020820180517bffffffffffffffffffffffffffffffffffffffffffffffffffffffff167fa9059cbb000000000000000000000000000000000000000000000000000000001790529151600092839290871691611bbe91906132fb565b6000604051808303816000865af19150503d8060008114611bfb576040519150601f19603f3d011682016040523d82523d6000602084013e611c00565b606091505b5091509150818015611c2a575080511580611c2a575080806020019051810190611c2a9190613099565b611c90576040517f08c379a000000000000000000000000000000000000000000000000000000000815260206004820152600f60248201527f5452414e534645525f4641494c454400000000000000000000000000000000006044820152606401610528565b5050505050565b600080807fffffffffffffffffffffffffffffffffffffffffffffffffffffffffffffffff85870985870292508281108382030391505080600003611cee5760008411611ce357600080fd5b508290049050611d62565b808411611cfa57600080fd5b600084868809851960019081018716968790049682860381900495909211909303600082900391909104909201919091029190911760038402600290811880860282030280860282030280860282030280860282030280860282030280860290910302029150505b9392505050565b6000806000807f000000000000000000000000000000000000000000000000000000000000000073ffffffffffffffffffffffffffffffffffffffff166352047942896040518263ffffffff1660e01b8152600401611dca91815260200190565b602060405180830381865afa158015611de7573d6000803e3d6000fd5b505050506040513d601f19601f82011682018060405250810190611e0b919061307c565b73ffffffffffffffffffffffffffffffffffffffff1663acc5570c896040518263ffffffff1660e01b8152600401611e4591815260200190565b60c060405180830381865afa158015611e62573d6000803e3d6000fd5b505050506040513d601f19601f82011682018060405250810190611e869190613192565b5050935093509350935060008588611e9e919061317b565b6040517f70a0823100000000000000000000000000000000000000000000000000000000815230600482015290915060009073ffffffffffffffffffffffffffffffffffffffff8416906370a0823190602401602060405180830381865afa158015611f0e573d6000803e3d6000fd5b505050506040513d601f19601f82011682018060405250810190611f32919061320f565b9050611f5673ffffffffffffffffffffffffffffffffffffffff841633308c612a83565b611f608982613228565b6040517f70a0823100000000000000000000000000000000000000000000000000000000815230600482015273ffffffffffffffffffffffffffffffffffffffff8516906370a0823190602401602060405180830381865afa158015611fca573d6000803e3d6000fd5b505050506040513d601f19601f82011682018060405250810190611fee919061320f565b1015612026576040517fd354452400000000000000000000000000000000000000000000000000000000815260040160405180910390fd5b73ffffffffffffffffffffffffffffffffffffffff85161561225d5761206373ffffffffffffffffffffffffffffffffffffffff84168684611b27565b6040517f70a0823100000000000000000000000000000000000000000000000000000000815230600482015260009073ffffffffffffffffffffffffffffffffffffffff8616906370a0823190602401602060405180830381865afa1580156120d0573d6000803e3d6000fd5b505050506040513d601f19601f820116820180604052508101906120f4919061320f565b6040517f4b9de77c000000000000000000000000000000000000000000000000000000008152600481018d905260248101859052604481018b905290915073ffffffffffffffffffffffffffffffffffffffff871690634b9de77c90606401600060405180830381600087803b15801561216d57600080fd5b505af1158015612181573d6000803e3d6000fd5b5050505088816121919190613228565b6040517f70a0823100000000000000000000000000000000000000000000000000000000815230600482015273ffffffffffffffffffffffffffffffffffffffff8716906370a0823190602401602060405180830381865afa1580156121fb573d6000803e3d6000fd5b505050506040513d601f19601f8201168201806040525081019061221f919061320f565b1015612257576040517fe2a575ba00000000000000000000000000000000000000000000000000000000815260040160405180910390fd5b50612405565b6040517f70a0823100000000000000000000000000000000000000000000000000000000815230600482015260009073ffffffffffffffffffffffffffffffffffffffff8616906370a0823190602401602060405180830381865afa1580156122ca573d6000803e3d6000fd5b505050506040513d601f19601f820116820180604052508101906122ee919061320f565b905061231273ffffffffffffffffffffffffffffffffffffffff861688308c612a83565b61231c8982613228565b6040517f70a0823100000000000000000000000000000000000000000000000000000000815230600482015273ffffffffffffffffffffffffffffffffffffffff8716906370a0823190602401602060405180830381865afa158015612386573d6000803e3d6000fd5b505050506040513d601f19601f820116820180604052508101906123aa919061320f565b10156123e2576040517fd354452400000000000000000000000000000000000000000000000000000000815260040160405180910390fd5b61240373ffffffffffffffffffffffffffffffffffffffff85168885611b27565b505b50505050505050505050565b60004265ffffffffffff168265ffffffffffff1611156124e3575073ffffffffffffffffffffffffffffffffffffffff828116600090815260066020908152604080832065ffffffffffff86168452909152908190205490517f40c10f19000000000000000000000000000000000000000000000000000000008152868316600482015260248101869052839291909116906340c10f1990604401600060405180830381600087803b1580156124c657600080fd5b505af11580156124da573d6000803e3d6000fd5b50505050611b1f565b611b1f73ffffffffffffffffffffffffffffffffffffffff84168686611b27565b60608060008080806125196201518088613346565b9050600061252a8262010bd961335a565b6125379062253d8c61335a565b9050600062023ab161254a8360046133ce565b612554919061348a565b905060046125658262023ab16133ce565b61257090600361335a565b61257a919061348a565b61258490836134f2565b9150600062164b0961259784600161335a565b6125a390610fa06133ce565b6125ad919061348a565b905060046125bd826105b56133ce565b6125c7919061348a565b6125d190846134f2565b6125dc90601f61335a565b9250600061098f6125ee8560506133ce565b6125f8919061348a565b90506000605061260a8361098f6133ce565b612614919061348a565b61261e90866134f2565b905061262b600b8361348a565b945061263885600c6133ce565b61264383600261335a565b61264d91906134f2565b9150848361265c6031876134f2565b6126679060646133ce565b612671919061335a565b61267b919061335a565b98509096509450600093506126a0925061269b9150612710905086613566565b612bfc565b90506000600a84106126ba576126b584612bfc565b6126e3565b6126c384612bfc565b6040516020016126d3919061357a565b6040516020818303038152906040525b90506000600a84106126fd576126f884612bfc565b612726565b61270684612bfc565b604051602001612716919061357a565b6040516020818303038152906040525b90508973ffffffffffffffffffffffffffffffffffffffff166306fdde036040518163ffffffff1660e01b8152600401600060405180830381865afa158015612773573d6000803e3d6000fd5b505050506040513d6000823e601f3d9081017fffffffffffffffffffffffffffffffffffffffffffffffffffffffffffffffe01682016040526127b991908101906135bf565b8383836040516020016127cf9493929190613668565b60405160208183030381529060405297508973ffffffffffffffffffffffffffffffffffffffff166395d89b416040518163ffffffff1660e01b8152600401600060405180830381865afa15801561282b573d6000803e3d6000fd5b505050506040513d6000823e601f3d9081017fffffffffffffffffffffffffffffffffffffffffffffffffffffffffffffffe016820160405261287191908101906135bf565b838383604051602001612887949392919061371d565b60405160208183030381529060405296505050505050509250929050565b80516040517f610000000000000000000000000000000000000000000000000000000000000081526039820160f081811b60018401527f3d81600a3d39f33d3d3d3d363d3d376100000000000000000000000000000000600384015260028401901b601383018190527f60373639366100000000000000000000000000000000000000000000000000006015840152601b8301527f013d730000000000000000000000000000000000000000000000000000000000601d830152606085901b6020808401919091527f5af43d3d93803e603557fd5bf30000000000000000000000000000000000000060348401526000939260438401929186019084604182015b602082106129e357835181526020938401937fffffffffffffffffffffffffffffffffffffffffffffffffffffffffffffffe090920191016129a6565b83517fffffffffffffffffffffffffffffffffffffffffffffffffffffffffffffffff60208490036101000a0119908116825260f088901b91830191825286846000f0985073ffffffffffffffffffffffffffffffffffffffff8916612a75576040517febfef18800000000000000000000000000000000000000000000000000000000815260040160405180910390fd5b505050505050505092915050565b6040805173ffffffffffffffffffffffffffffffffffffffff85811660248301528481166044830152606480830185905283518084039091018152608490920183526020820180517bffffffffffffffffffffffffffffffffffffffffffffffffffffffff167f23b872dd000000000000000000000000000000000000000000000000000000001790529151600092839290881691612b2291906132fb565b6000604051808303816000865af19150503d8060008114612b5f576040519150601f19603f3d011682016040523d82523d6000602084013e612b64565b606091505b5091509150818015612b8e575080511580612b8e575080806020019051810190612b8e9190613099565b612bf4576040517f08c379a000000000000000000000000000000000000000000000000000000000815260206004820152601460248201527f5452414e534645525f46524f4d5f4641494c45440000000000000000000000006044820152606401610528565b505050505050565b606081600003612c3f57505060408051808201909152600181527f3000000000000000000000000000000000000000000000000000000000000000602082015290565b8160005b8115612c695780612c5381613119565b9150612c629050600a83613346565b9150612c43565b60008167ffffffffffffffff811115612c8457612c84612e0b565b6040519080825280601f01601f191660200182016040528015612cae576020820181803683370190505b509050815b8515612d5357612cc460018261317b565b90506000612cd3600a88613346565b612cde90600a6137a3565b612ce8908861317b565b612cf39060306137e0565b905060008160f81b905080848481518110612d1057612d106130bb565b60200101907effffffffffffffffffffffffffffffffffffffffffffffffffffffffffffff1916908160001a905350612d4a600a89613346565b97505050612cb3565b50949350505050565b65ffffffffffff81168114612d7057600080fd5b50565b600060208284031215612d8557600080fd5b8135611d6281612d5c565b73ffffffffffffffffffffffffffffffffffffffff81168114612d7057600080fd5b8035612dbd81612d90565b919050565b600060208284031215612dd457600080fd5b8135611d6281612d90565b60008060408385031215612df257600080fd5b8235612dfd81612d90565b946020939093013593505050565b7f4e487b7100000000000000000000000000000000000000000000000000000000600052604160045260246000fd5b604051601f82017fffffffffffffffffffffffffffffffffffffffffffffffffffffffffffffffe016810167ffffffffffffffff81118282101715612e8157612e81612e0b565b604052919050565b60008060408385031215612e9c57600080fd5b823567ffffffffffffffff80821115612eb457600080fd5b818501915085601f830112612ec857600080fd5b8135602082821115612edc57612edc612e0b565b8160051b9250612eed818401612e3a565b8281529284018101928181019089851115612f0757600080fd5b948201945b84861015612f315785359350612f2184612d90565b8382529482019490820190612f0c565b9650612f409050878201612db2565b9450505050509250929050565b600080600080600060a08688031215612f6557600080fd5b8535612f7081612d90565b94506020860135612f8081612d90565b94979496505050506040830135926060810135926080909101359150565b60008060408385031215612fb157600080fd5b8235612fbc81612d90565b91506020830135612fcc81612d5c565b809150509250929050565b600080600060608486031215612fec57600080fd5b8335612ff781612d90565b9250602084013561300781612d5c565b929592945050506040919091013590565b6000806040838503121561302b57600080fd5b823561303681612d90565b91506020830135612fcc81612d90565b60006020828403121561305857600080fd5b5035919050565b60006020828403121561307157600080fd5b8151611d6281612d5c565b60006020828403121561308e57600080fd5b8151611d6281612d90565b6000602082840312156130ab57600080fd5b81518015158114611d6257600080fd5b7f4e487b7100000000000000000000000000000000000000000000000000000000600052603260045260246000fd5b7f4e487b7100000000000000000000000000000000000000000000000000000000600052601160045260246000fd5b60007fffffffffffffffffffffffffffffffffffffffffffffffffffffffffffffffff820361314a5761314a6130ea565b5060010190565b600065ffffffffffff808316818516808303821115613172576131726130ea565b01949350505050565b60008282101561318d5761318d6130ea565b500390565b60008060008060008060c087890312156131ab57600080fd5b86516131b681612d90565b60208801519096506131c781612d90565b60408801519095506131d881612d90565b60608801519094506131e981612d90565b60808801519093506131fa81612d5c565b8092505060a087015190509295509295509295565b60006020828403121561322157600080fd5b5051919050565b6000821982111561323b5761323b6130ea565b500190565b600065ffffffffffff8381169083168181101561325f5761325f6130ea565b039392505050565b805160208083015191908110156132a6577fffffffffffffffffffffffffffffffffffffffffffffffffffffffffffffffff8160200360031b1b821691505b50919050565b6000602082840312156132be57600080fd5b815160ff81168114611d6257600080fd5b60005b838110156132ea5781810151838201526020016132d2565b8381111561095f5750506000910152565b6000825161330d8184602087016132cf565b9190910192915050565b7f4e487b7100000000000000000000000000000000000000000000000000000000600052601260045260246000fd5b60008261335557613355613317565b500490565b6000808212827f7fffffffffffffffffffffffffffffffffffffffffffffffffffffffffffffff03841381151615613394576133946130ea565b827f80000000000000000000000000000000000000000000000000000000000000000384128116156133c8576133c86130ea565b50500190565b60007f7fffffffffffffffffffffffffffffffffffffffffffffffffffffffffffffff60008413600084138583048511828216161561340f5761340f6130ea565b7f8000000000000000000000000000000000000000000000000000000000000000600087128682058812818416161561344a5761344a6130ea565b60008712925087820587128484161615613466576134666130ea565b8785058712818416161561347c5761347c6130ea565b505050929093029392505050565b60008261349957613499613317565b7fffffffffffffffffffffffffffffffffffffffffffffffffffffffffffffffff83147f8000000000000000000000000000000000000000000000000000000000000000831416156134ed576134ed6130ea565b500590565b6000808312837f80000000000000000000000000000000000000000000000000000000000000000183128115161561352c5761352c6130ea565b837f7fffffffffffffffffffffffffffffffffffffffffffffffffffffffffffffff018313811615613560576135606130ea565b50500390565b60008261357557613575613317565b500690565b7f30000000000000000000000000000000000000000000000000000000000000008152600082516135b28160018501602087016132cf565b9190910160010192915050565b6000602082840312156135d157600080fd5b815167ffffffffffffffff808211156135e957600080fd5b818401915084601f8301126135fd57600080fd5b81518181111561360f5761360f612e0b565b61364060207fffffffffffffffffffffffffffffffffffffffffffffffffffffffffffffffe0601f84011601612e3a565b915080825285602082850101111561365757600080fd5b612d538160208401602086016132cf565b6000855161367a818460208a016132cf565b7f200000000000000000000000000000000000000000000000000000000000000090830190815285516136b4816001840160208a016132cf565b8082019150507f2d0000000000000000000000000000000000000000000000000000000000000080600183015285516136f4816002850160208a016132cf565b6002920191820152835161370f8160038401602088016132cf565b016003019695505050505050565b6000855161372f818460208a016132cf565b7f2d000000000000000000000000000000000000000000000000000000000000009083019081528551613769816001840160208a016132cf565b855191019061377f8160018401602089016132cf565b84519101906137958160018401602088016132cf565b016001019695505050505050565b6000817fffffffffffffffffffffffffffffffffffffffffffffffffffffffffffffffff04831182151516156137db576137db6130ea565b500290565b600060ff821660ff84168060ff038211156137fd576137fd6130ea565b01939250505056fea2646970667358221220035dfa146538fd3bc538df2d5a9f7d5ca38271a34d62a7a025916d058c6a146e64736f6c634300080f0033608060405234801561001057600080fd5b50610998806100206000396000f3fe608060405234801561001057600080fd5b50600436106100df5760003560e01c80636f307dc31161008c5780639dc29fac116100665780639dc29fac146101d3578063a9059cbb146101e6578063dd62ed3e146101f9578063e184c9be1461022457600080fd5b80636f307dc31461017e57806370a08231146101ab57806395d89b41146101cb57600080fd5b806323b872dd116100bd57806323b872dd1461013c578063313ce5671461014f57806340c10f191461016957600080fd5b806306fdde03146100e4578063095ea7b31461010257806318160ddd14610125575b600080fd5b6100ec610243565b6040516100f991906107ad565b60405180910390f35b610115610110366004610849565b610275565b60405190151581526020016100f9565b61012e60005481565b6040519081526020016100f9565b61011561014a366004610873565b6102ee565b610157610432565b60405160ff90911681526020016100f9565b61017c610177366004610849565b610443565b005b6101866104bd565b60405173ffffffffffffffffffffffffffffffffffffffff90911681526020016100f9565b61012e6101b93660046108af565b60016020526000908152604090205481565b6100ec6104c9565b61017c6101e1366004610849565b6104d5565b6101156101f4366004610849565b61054b565b61012e6102073660046108d1565b600260209081526000928352604080842090915290825290205481565b61022c6105d0565b60405165ffffffffffff90911681526020016100f9565b606061024f60006105d8565b60405160200161026191815260200190565b604051602081830303815290604052905090565b33600081815260026020908152604080832073ffffffffffffffffffffffffffffffffffffffff8716808552925280832085905551919290917f8c5be1e5ebec7d5bd14f71427d1e84f3dd0314c0f7b2291e5b200ac8c7c3b925906102dd9086815260200190565b60405180910390a350600192915050565b73ffffffffffffffffffffffffffffffffffffffff831660009081526002602090815260408083203384529091528120547fffffffffffffffffffffffffffffffffffffffffffffffffffffffffffffffff8114610382576103508382610933565b73ffffffffffffffffffffffffffffffffffffffff861660009081526002602090815260408083203384529091529020555b73ffffffffffffffffffffffffffffffffffffffff8516600090815260016020526040812080548592906103b7908490610933565b909155505073ffffffffffffffffffffffffffffffffffffffff808516600081815260016020526040908190208054870190555190918716907fddf252ad1be2c89b69c2b068fc378daa952ba7f163c4a11628f55a4df523b3ef9061041f9087815260200190565b60405180910390a3506001949350505050565b600061043e6040610618565b905090565b61044b61065b565b73ffffffffffffffffffffffffffffffffffffffff163373ffffffffffffffffffffffffffffffffffffffff16146104af576040517f5451629900000000000000000000000000000000000000000000000000000000815260040160405180910390fd5b6104b98282610667565b5050565b600061043e60416106df565b606061024f60206105d8565b6104dd61065b565b73ffffffffffffffffffffffffffffffffffffffff163373ffffffffffffffffffffffffffffffffffffffff1614610541576040517f5451629900000000000000000000000000000000000000000000000000000000815260040160405180910390fd5b6104b98282610722565b3360009081526001602052604081208054839190839061056c908490610933565b909155505073ffffffffffffffffffffffffffffffffffffffff8316600081815260016020526040908190208054850190555133907fddf252ad1be2c89b69c2b068fc378daa952ba7f163c4a11628f55a4df523b3ef906102dd9086815260200190565b600061043e60555b60008061060d7ffffffffffffffffffffffffffffffffffffffffffffffffffffffffffffffffe368181013560f01c90030190565b929092013592915050565b60008061064d7ffffffffffffffffffffffffffffffffffffffffffffffffffffffffffffffffe368181013560f01c90030190565b929092013560f81c92915050565b600061043e60756106df565b80600080828254610678919061094a565b909155505073ffffffffffffffffffffffffffffffffffffffff82166000818152600160209081526040808320805486019055518481527fddf252ad1be2c89b69c2b068fc378daa952ba7f163c4a11628f55a4df523b3ef91015b60405180910390a35050565b6000806107147ffffffffffffffffffffffffffffffffffffffffffffffffffffffffffffffffe368181013560f01c90030190565b929092013560601c92915050565b73ffffffffffffffffffffffffffffffffffffffff821660009081526001602052604081208054839290610757908490610933565b909155505060008054829003815560405182815273ffffffffffffffffffffffffffffffffffffffff8416907fddf252ad1be2c89b69c2b068fc378daa952ba7f163c4a11628f55a4df523b3ef906020016106d3565b600060208083528351808285015260005b818110156107da578581018301518582016040015282016107be565b818111156107ec576000604083870101525b50601f017fffffffffffffffffffffffffffffffffffffffffffffffffffffffffffffffe016929092016040019392505050565b803573ffffffffffffffffffffffffffffffffffffffff8116811461084457600080fd5b919050565b6000806040838503121561085c57600080fd5b61086583610820565b946020939093013593505050565b60008060006060848603121561088857600080fd5b61089184610820565b925061089f60208501610820565b9150604084013590509250925092565b6000602082840312156108c157600080fd5b6108ca82610820565b9392505050565b600080604083850312156108e457600080fd5b6108ed83610820565b91506108fb60208401610820565b90509250929050565b7f4e487b7100000000000000000000000000000000000000000000000000000000600052601160045260246000fd5b60008282101561094557610945610904565b500390565b6000821982111561095d5761095d610904565b50019056fea2646970667358221220e01c3ac86230ac8ebae62da065fdae3c6a075dcf71330a22afd8379fb95f5b5364736f6c634300080f0033",
    "linkReferences": {}
  },
  "methodIdentifiers": {
    "FEE_DECIMALS()": "ccf288c6",
    "authority()": "bf7e214f",
    "bondTokenImplementation()": "6c436dd5",
    "bondTokens(address,uint48)": "709ea865",
    "claimFees(address[],address)": "2f6fa94e",
    "create(address,uint48,uint256)": "b7314ef9",
    "createFeeDiscount()": "06692a37",
    "deploy(address,uint48)": "c6e38a4b",
    "getBondTokenForMarket(uint256)": "fcdc3126",
    "getFee(address)": "b88c9148",
    "owner()": "8da5cb5b",
    "protocolFee()": "b0e21e8a",
    "purchase(address,address,uint256,uint256,uint256)": "6de5b4cd",
    "redeem(address,uint256)": "1e9a6950",
    "referrerFees(address)": "c23135dd",
    "rewards(address,address)": "e70b9e27",
    "setAuthority(address)": "7a9e5e4b",
    "setOwner(address)": "13af4035",
    "setProtocolFee(uint48)": "b1e55529",
    "setReferrerFee(uint48)": "0d4dfc21"
  }
}