{
  "abi": [
    {
      "inputs": [
        {
          "internalType": "contract IBondTeller",
          "name": "teller_",
          "type": "address"
        },
        {
          "internalType": "contract IBondAggregator",
          "name": "aggregator_",
          "type": "address"
        },
        {
          "internalType": "address",
          "name": "guardian_",
          "type": "address"
        },
        {
          "internalType": "contract Authority",
          "name": "authority_",
          "type": "address"
        }
      ],
      "stateMutability": "nonpayable",
      "type": "constructor"
    },
    {
      "inputs": [],
      "name": "Auctioneer_AmountLessThanMinimum",
      "type": "error"
    },
    {
      "inputs": [],
      "name": "Auctioneer_BadExpiry",
      "type": "error"
    },
    {
      "inputs": [],
      "name": "Auctioneer_InitialPriceLessThanMin",
      "type": "error"
    },
    {
      "inputs": [],
      "name": "Auctioneer_InvalidCallback",
      "type": "error"
    },
    {
      "inputs": [],
      "name": "Auctioneer_InvalidParams",
      "type": "error"
    },
    {
      "inputs": [],
      "name": "Auctioneer_MarketNotActive",
      "type": "error"
    },
    {
      "inputs": [],
      "name": "Auctioneer_MaxPayoutExceeded",
      "type": "error"
    },
    {
      "inputs": [],
      "name": "Auctioneer_NewMarketsNotAllowed",
      "type": "error"
    },
    {
      "inputs": [],
      "name": "Auctioneer_NotAuthorized",
      "type": "error"
    },
    {
      "inputs": [],
      "name": "Auctioneer_NotEnoughCapacity",
      "type": "error"
    },
    {
      "inputs": [],
      "name": "Auctioneer_OnlyMarketOwner",
      "type": "error"
    },
    {
      "inputs": [],
      "name": "Auctioneer_OraclePriceZero",
      "type": "error"
    },
    {
      "anonymous": false,
      "inputs": [
        {
          "indexed": true,
          "internalType": "address",
          "name": "user",
          "type": "address"
        },
        {
          "indexed": true,
          "internalType": "contract Authority",
          "name": "newAuthority",
          "type": "address"
        }
      ],
      "name": "AuthorityUpdated",
      "type": "event"
    },
    {
      "anonymous": false,
      "inputs": [
        {
          "indexed": true,
          "internalType": "uint256",
          "name": "id",
          "type": "uint256"
        }
      ],
      "name": "MarketClosed",
      "type": "event"
    },
    {
      "anonymous": false,
      "inputs": [
        {
          "indexed": true,
          "internalType": "uint256",
          "name": "id",
          "type": "uint256"
        },
        {
          "indexed": true,
          "internalType": "address",
          "name": "payoutToken",
          "type": "address"
        },
        {
          "indexed": true,
          "internalType": "address",
          "name": "quoteToken",
          "type": "address"
        },
        {
          "indexed": false,
          "internalType": "uint48",
          "name": "vesting",
          "type": "uint48"
        }
      ],
      "name": "MarketCreated",
      "type": "event"
    },
    {
      "anonymous": false,
      "inputs": [
        {
          "indexed": true,
          "internalType": "address",
          "name": "user",
          "type": "address"
        },
        {
          "indexed": true,
          "internalType": "address",
          "name": "newOwner",
          "type": "address"
        }
      ],
      "name": "OwnerUpdated",
      "type": "event"
    },
    {
      "anonymous": false,
      "inputs": [
        {
          "indexed": true,
          "internalType": "uint256",
          "name": "id",
          "type": "uint256"
        },
        {
          "indexed": false,
          "internalType": "uint256",
          "name": "oldControlVariable",
          "type": "uint256"
        },
        {
          "indexed": false,
          "internalType": "uint256",
          "name": "newControlVariable",
          "type": "uint256"
        }
      ],
      "name": "Tuned",
      "type": "event"
    },
    {
      "inputs": [],
      "name": "allowNewMarkets",
      "outputs": [
        {
          "internalType": "bool",
          "name": "",
          "type": "bool"
        }
      ],
      "stateMutability": "view",
      "type": "function"
    },
    {
      "inputs": [],
      "name": "authority",
      "outputs": [
        {
          "internalType": "contract Authority",
          "name": "",
          "type": "address"
        }
      ],
      "stateMutability": "view",
      "type": "function"
    },
    {
      "inputs": [
        {
          "internalType": "address",
          "name": "",
          "type": "address"
        }
      ],
      "name": "callbackAuthorized",
      "outputs": [
        {
          "internalType": "bool",
          "name": "",
          "type": "bool"
        }
      ],
      "stateMutability": "view",
      "type": "function"
    },
    {
      "inputs": [
        {
          "internalType": "uint256",
          "name": "id_",
          "type": "uint256"
        }
      ],
      "name": "closeMarket",
      "outputs": [],
      "stateMutability": "nonpayable",
      "type": "function"
    },
    {
      "inputs": [
        {
          "internalType": "bytes",
          "name": "params_",
          "type": "bytes"
        }
      ],
      "name": "createMarket",
      "outputs": [
        {
          "internalType": "uint256",
          "name": "",
          "type": "uint256"
        }
      ],
      "stateMutability": "nonpayable",
      "type": "function"
    },
    {
      "inputs": [
        {
          "internalType": "uint256",
          "name": "id_",
          "type": "uint256"
        }
      ],
      "name": "currentCapacity",
      "outputs": [
        {
          "internalType": "uint256",
          "name": "",
          "type": "uint256"
        }
      ],
      "stateMutability": "view",
      "type": "function"
    },
    {
      "inputs": [],
      "name": "getAggregator",
      "outputs": [
        {
          "internalType": "contract IBondAggregator",
          "name": "",
          "type": "address"
        }
      ],
      "stateMutability": "view",
      "type": "function"
    },
    {
      "inputs": [
        {
          "internalType": "uint256",
          "name": "id_",
          "type": "uint256"
        }
      ],
      "name": "getMarketInfoForPurchase",
      "outputs": [
        {
          "internalType": "address",
          "name": "owner",
          "type": "address"
        },
        {
          "internalType": "address",
          "name": "callbackAddr",
          "type": "address"
        },
        {
          "internalType": "contract ERC20",
          "name": "payoutToken",
          "type": "address"
        },
        {
          "internalType": "contract ERC20",
          "name": "quoteToken",
          "type": "address"
        },
        {
          "internalType": "uint48",
          "name": "vesting",
          "type": "uint48"
        },
        {
          "internalType": "uint256",
          "name": "maxPayout_",
          "type": "uint256"
        }
      ],
      "stateMutability": "view",
      "type": "function"
    },
    {
      "inputs": [],
      "name": "getTeller",
      "outputs": [
        {
          "internalType": "contract IBondTeller",
          "name": "",
          "type": "address"
        }
      ],
      "stateMutability": "view",
      "type": "function"
    },
    {
      "inputs": [
        {
          "internalType": "uint256",
          "name": "id_",
          "type": "uint256"
        }
      ],
      "name": "isInstantSwap",
      "outputs": [
        {
          "internalType": "bool",
          "name": "",
          "type": "bool"
        }
      ],
      "stateMutability": "view",
      "type": "function"
    },
    {
      "inputs": [
        {
          "internalType": "uint256",
          "name": "id_",
          "type": "uint256"
        }
      ],
      "name": "isLive",
      "outputs": [
        {
          "internalType": "bool",
          "name": "",
          "type": "bool"
        }
      ],
      "stateMutability": "view",
      "type": "function"
    },
    {
      "inputs": [
        {
          "internalType": "uint256",
          "name": "id_",
          "type": "uint256"
        }
      ],
      "name": "marketPrice",
      "outputs": [
        {
          "internalType": "uint256",
          "name": "",
          "type": "uint256"
        }
      ],
      "stateMutability": "view",
      "type": "function"
    },
    {
      "inputs": [
        {
          "internalType": "uint256",
          "name": "id_",
          "type": "uint256"
        }
      ],
      "name": "marketScale",
      "outputs": [
        {
          "internalType": "uint256",
          "name": "",
          "type": "uint256"
        }
      ],
      "stateMutability": "view",
      "type": "function"
    },
    {
      "inputs": [
        {
          "internalType": "uint256",
          "name": "",
          "type": "uint256"
        }
      ],
      "name": "markets",
      "outputs": [
        {
          "internalType": "address",
          "name": "owner",
          "type": "address"
        },
        {
          "internalType": "contract ERC20",
          "name": "payoutToken",
          "type": "address"
        },
        {
          "internalType": "contract ERC20",
          "name": "quoteToken",
          "type": "address"
        },
        {
          "internalType": "address",
          "name": "callbackAddr",
          "type": "address"
        },
        {
          "internalType": "bool",
          "name": "capacityInQuote",
          "type": "bool"
        },
        {
          "internalType": "uint256",
          "name": "capacity",
          "type": "uint256"
        },
        {
          "internalType": "uint256",
          "name": "maxPayout",
          "type": "uint256"
        },
        {
          "internalType": "uint256",
          "name": "sold",
          "type": "uint256"
        },
        {
          "internalType": "uint256",
          "name": "purchased",
          "type": "uint256"
        }
      ],
      "stateMutability": "view",
      "type": "function"
    },
    {
      "inputs": [
        {
          "internalType": "uint256",
          "name": "id_",
          "type": "uint256"
        },
        {
          "internalType": "address",
          "name": "referrer_",
          "type": "address"
        }
      ],
      "name": "maxAmountAccepted",
      "outputs": [
        {
          "internalType": "uint256",
          "name": "",
          "type": "uint256"
        }
      ],
      "stateMutability": "view",
      "type": "function"
    },
    {
      "inputs": [
        {
          "internalType": "uint256",
          "name": "id_",
          "type": "uint256"
        }
      ],
      "name": "maxPayout",
      "outputs": [
        {
          "internalType": "uint256",
          "name": "",
          "type": "uint256"
        }
      ],
      "stateMutability": "view",
      "type": "function"
    },
    {
      "inputs": [],
      "name": "minDepositInterval",
      "outputs": [
        {
          "internalType": "uint48",
          "name": "",
          "type": "uint48"
        }
      ],
      "stateMutability": "view",
      "type": "function"
    },
    {
      "inputs": [],
      "name": "minMarketDuration",
      "outputs": [
        {
          "internalType": "uint48",
          "name": "",
          "type": "uint48"
        }
      ],
      "stateMutability": "view",
      "type": "function"
    },
    {
      "inputs": [
        {
          "internalType": "uint256",
          "name": "",
          "type": "uint256"
        }
      ],
      "name": "newOwners",
      "outputs": [
        {
          "internalType": "address",
          "name": "",
          "type": "address"
        }
      ],
      "stateMutability": "view",
      "type": "function"
    },
    {
      "inputs": [],
      "name": "owner",
      "outputs": [
        {
          "internalType": "address",
          "name": "",
          "type": "address"
        }
      ],
      "stateMutability": "view",
      "type": "function"
    },
    {
      "inputs": [
        {
          "internalType": "uint256",
          "name": "id_",
          "type": "uint256"
        }
      ],
      "name": "ownerOf",
      "outputs": [
        {
          "internalType": "address",
          "name": "",
          "type": "address"
        }
      ],
      "stateMutability": "view",
      "type": "function"
    },
    {
      "inputs": [
        {
          "internalType": "uint256",
          "name": "amount_",
          "type": "uint256"
        },
        {
          "internalType": "uint256",
          "name": "id_",
          "type": "uint256"
        },
        {
          "internalType": "address",
          "name": "referrer_",
          "type": "address"
        }
      ],
      "name": "payoutFor",
      "outputs": [
        {
          "internalType": "uint256",
          "name": "",
          "type": "uint256"
        }
      ],
      "stateMutability": "view",
      "type": "function"
    },
    {
      "inputs": [
        {
          "internalType": "uint256",
          "name": "id_",
          "type": "uint256"
        }
      ],
      "name": "pullOwnership",
      "outputs": [],
      "stateMutability": "nonpayable",
      "type": "function"
    },
    {
      "inputs": [
        {
          "internalType": "uint256",
          "name": "id_",
          "type": "uint256"
        },
        {
          "internalType": "uint256",
          "name": "amount_",
          "type": "uint256"
        },
        {
          "internalType": "uint256",
          "name": "minAmountOut_",
          "type": "uint256"
        }
      ],
      "name": "purchaseBond",
      "outputs": [
        {
          "internalType": "uint256",
          "name": "payout",
          "type": "uint256"
        }
      ],
      "stateMutability": "nonpayable",
      "type": "function"
    },
    {
      "inputs": [
        {
          "internalType": "uint256",
          "name": "id_",
          "type": "uint256"
        },
        {
          "internalType": "address",
          "name": "newOwner_",
          "type": "address"
        }
      ],
      "name": "pushOwnership",
      "outputs": [],
      "stateMutability": "nonpayable",
      "type": "function"
    },
    {
      "inputs": [
        {
          "internalType": "bool",
          "name": "status_",
          "type": "bool"
        }
      ],
      "name": "setAllowNewMarkets",
      "outputs": [],
      "stateMutability": "nonpayable",
      "type": "function"
    },
    {
      "inputs": [
        {
          "internalType": "contract Authority",
          "name": "newAuthority",
          "type": "address"
        }
      ],
      "name": "setAuthority",
      "outputs": [],
      "stateMutability": "nonpayable",
      "type": "function"
    },
    {
      "inputs": [
        {
          "internalType": "address",
          "name": "creator_",
          "type": "address"
        },
        {
          "internalType": "bool",
          "name": "status_",
          "type": "bool"
        }
      ],
      "name": "setCallbackAuthStatus",
      "outputs": [],
      "stateMutability": "nonpayable",
      "type": "function"
    },
    {
      "inputs": [
        {
          "internalType": "uint32[6]",
          "name": "defaults_",
          "type": "uint32[6]"
        }
      ],
      "name": "setDefaults",
      "outputs": [],
      "stateMutability": "nonpayable",
      "type": "function"
    },
    {
      "inputs": [
        {
          "internalType": "uint256",
          "name": "id_",
          "type": "uint256"
        },
        {
          "internalType": "uint32[3]",
          "name": "intervals_",
          "type": "uint32[3]"
        }
      ],
      "name": "setIntervals",
      "outputs": [],
      "stateMutability": "nonpayable",
      "type": "function"
    },
    {
      "inputs": [
        {
          "internalType": "uint48",
          "name": "depositInterval_",
          "type": "uint48"
        }
      ],
      "name": "setMinDepositInterval",
      "outputs": [],
      "stateMutability": "nonpayable",
      "type": "function"
    },
    {
      "inputs": [
        {
          "internalType": "uint48",
          "name": "duration_",
          "type": "uint48"
        }
      ],
      "name": "setMinMarketDuration",
      "outputs": [],
      "stateMutability": "nonpayable",
      "type": "function"
    },
    {
      "inputs": [
        {
          "internalType": "address",
          "name": "newOwner",
          "type": "address"
        }
      ],
      "name": "setOwner",
      "outputs": [],
      "stateMutability": "nonpayable",
      "type": "function"
    },
    {
      "inputs": [
        {
          "internalType": "uint256",
          "name": "",
          "type": "uint256"
        }
      ],
      "name": "terms",
      "outputs": [
        {
          "internalType": "contract IBondOracle",
          "name": "oracle",
          "type": "address"
        },
        {
          "internalType": "uint48",
          "name": "start",
          "type": "uint48"
        },
        {
          "internalType": "uint48",
          "name": "conclusion",
          "type": "uint48"
        },
        {
          "internalType": "uint48",
          "name": "vesting",
          "type": "uint48"
        },
        {
          "internalType": "uint48",
          "name": "baseDiscount",
          "type": "uint48"
        },
        {
          "internalType": "uint48",
          "name": "decaySpeed",
          "type": "uint48"
        },
        {
          "internalType": "uint256",
          "name": "minPrice",
          "type": "uint256"
        },
        {
          "internalType": "uint256",
          "name": "scale",
          "type": "uint256"
        },
        {
          "internalType": "uint256",
          "name": "oracleConversion",
          "type": "uint256"
        }
      ],
      "stateMutability": "view",
      "type": "function"
    }
  ],
  "bytecode": {
    "object": "0x60c06040523480156200001157600080fd5b506040516200415e3803806200415e833981016040819052620000349162000125565b600080546001600160a01b03199081166001600160a01b0385811691821784556001805490931690851617909155604051869286928692869284928492909133917f8292fce18fa69edf4db7b94ea2e58241df0ae57f97e0a6c9b29067028bf92d769190a36040516001600160a01b0382169033907fa3396fd7f6e0a21b50e5089d2da70d5ac0a3bbbd1f617a93f134b7638998019890600090a3505050506001600160a01b039081166080521660a0525050600680546001600160681b03191669015180000000000e1001179055506200018d9050565b6001600160a01b03811681146200012257600080fd5b50565b600080600080608085870312156200013c57600080fd5b845162000149816200010c565b60208601519094506200015c816200010c565b60408601519093506200016f816200010c565b606086015190925062000182816200010c565b939692955090935050565b60805160a051613f88620001d66000396000818161045f01528181610d34015281816116fd01528181611beb0152611c9f0152600081816102ae01526129060152613f886000f3fe608060405234801561001057600080fd5b50600436106102265760003560e01c8063946824cd1161012a578063bd1f3a5e116100bd578063c7bf8ca01161008c578063d2bee32311610071578063d2bee323146107ce578063e007fa97146107eb578063f61338f6146107fe57600080fd5b8063c7bf8ca01461078d578063d2040687146107a057600080fd5b8063bd1f3a5e1461061f578063bf48582b14610630578063bf7e214f14610643578063c0aa0e8a1461066357600080fd5b8063afa9d3b0116100f9578063afa9d3b0146104ff578063b1283e771461050c578063bbbdd95a146105f9578063bcf6cde81461060c57600080fd5b8063946824cd146104395780639787d1071461045d578063acc5570c14610483578063ae418095146104ec57600080fd5b806357e333ba116101bd5780636729a41e1161018c5780637a9e5e4b116101715780637a9e5e4b146103f35780638b098db3146104065780638da5cb5b1461041957600080fd5b80636729a41e146103ab578063699e17d9146103e157600080fd5b806357e333ba1461032c5780635dc4d16b1461033f5780635f77274e146103625780636352211e1461037557600080fd5b80633ad59dbc116101f95780633ad59dbc146102ac5780633adec5a7146102f357806344ee01721461030657806353c7f8e01461031957600080fd5b806310b053171461022b57806313af4035146102405780631c063a6c146102535780632750745814610289575b600080fd5b61023e610239366004613657565b610811565b005b61023e61024e3660046136a2565b6108cc565b610276610261366004613657565b60009081526002602052604090206004015490565b6040519081526020015b60405180910390f35b61029c610297366004613657565b6109d5565b6040519015158152602001610280565b7f00000000000000000000000000000000000000000000000000000000000000005b60405173ffffffffffffffffffffffffffffffffffffffff9091168152602001610280565b610276610301366004613657565b610a6e565b61023e6103143660046136de565b610ab5565b6102766103273660046136fb565b610bef565b61027661033a366004613657565b610ddf565b61029c61034d3660046136a2565b60056020526000908152604090205460ff1681565b61023e610370366004613786565b611167565b6102ce610383366004613657565b60009081526002602052604090205473ffffffffffffffffffffffffffffffffffffffff1690565b6102ce6103b9366004613657565b60046020526000908152604090205473ffffffffffffffffffffffffffffffffffffffff1681565b61023e6103ef3660046137a3565b5050565b61023e6104013660046136a2565b61122c565b61029c610414366004613657565b611389565b6000546102ce9073ffffffffffffffffffffffffffffffffffffffff1681565b610276610447366004613657565b6000908152600360208190526040909120015490565b7f00000000000000000000000000000000000000000000000000000000000000006102ce565b610496610491366004613657565b6113bf565b6040805173ffffffffffffffffffffffffffffffffffffffff97881681529587166020870152938616938501939093529316606083015265ffffffffffff909216608082015260a081019190915260c001610280565b61023e6104fa366004613657565b6114af565b60065461029c9060ff1681565b61059461051a366004613657565b60026020819052600091825260409091208054600182015492820154600383015460048401546005850154600686015460079096015473ffffffffffffffffffffffffffffffffffffffff95861697861696948616958416947401000000000000000000000000000000000000000090940460ff16939089565b6040805173ffffffffffffffffffffffffffffffffffffffff9a8b168152988a1660208a015296891696880196909652969093166060860152901515608085015260a084015260c083015260e082019290925261010081019190915261012001610280565b61023e6106073660046137d6565b611515565b61023e61061a36600461380f565b6115ff565b61023e61062d36600461388d565b50565b61027661063e36600461391e565b6116af565b6001546102ce9073ffffffffffffffffffffffffffffffffffffffff1681565b61071e610671366004613657565b60036020819052600091825260409091208054600182015460028301549383015460049093015473ffffffffffffffffffffffffffffffffffffffff83169465ffffffffffff7401000000000000000000000000000000000000000085048116957a01000000000000000000000000000000000000000000000000000090950481169484821694660100000000000081048316946c01000000000000000000000000909104909216929189565b6040805173ffffffffffffffffffffffffffffffffffffffff909a168a5265ffffffffffff98891660208b015296881696890196909652938616606088015291851660808701529390931660a085015260c084019290925260e083019190915261010082015261012001610280565b61027661079b36600461380f565b6117fe565b6006546107b790610100900465ffffffffffff1681565b60405165ffffffffffff9091168152602001610280565b6006546107b790670100000000000000900465ffffffffffff1681565b6102766107f9366004613957565b611c85565b61023e61080c3660046136de565b611fec565b60008181526004602052604090205473ffffffffffffffffffffffffffffffffffffffff16331461086e576040517f2c47703200000000000000000000000000000000000000000000000000000000815260040160405180910390fd5b600090815260046020908152604080832054600290925290912080547fffffffffffffffffffffffff00000000000000000000000000000000000000001673ffffffffffffffffffffffffffffffffffffffff909216919091179055565b6108fa336000357fffffffff0000000000000000000000000000000000000000000000000000000016612125565b610965576040517f08c379a000000000000000000000000000000000000000000000000000000000815260206004820152600c60248201527f554e415554484f52495a4544000000000000000000000000000000000000000060448201526064015b60405180910390fd5b600080547fffffffffffffffffffffffff00000000000000000000000000000000000000001673ffffffffffffffffffffffffffffffffffffffff83169081178255604051909133917f8292fce18fa69edf4db7b94ea2e58241df0ae57f97e0a6c9b29067028bf92d769190a350565b60008181526002602052604081206004015415801590610a2b575060008281526003602052604090205465ffffffffffff4281167a01000000000000000000000000000000000000000000000000000090920416115b8015610a68575060008281526003602052604090205465ffffffffffff428116740100000000000000000000000000000000000000009092041611155b92915050565b600080610a7a83612236565b6000848152600360205260409020600201549091508111610aac57600083815260036020526040902060020154610aae565b805b9392505050565b610ae3336000357fffffffff0000000000000000000000000000000000000000000000000000000016612125565b610b49576040517f08c379a000000000000000000000000000000000000000000000000000000000815260206004820152600c60248201527f554e415554484f52495a45440000000000000000000000000000000000000000604482015260640161095c565b60065465ffffffffffff61010090910481169082161080610b745750620151808165ffffffffffff16105b15610bab576040517f3b596f5f00000000000000000000000000000000000000000000000000000000815260040160405180910390fd5b6006805465ffffffffffff909216670100000000000000027fffffffffffffffffffffffffffffffffffffff000000000000ffffffffffffff909216919091179055565b600080610bfe83850185613983565b905062015180816101400151610c149190613ad8565b610c219062015180613afd565b65ffffffffffff9081166101408301526101608201516000911615610c4b57816101600151610c4d565b425b9050600082610180015182610c629190613b2b565b905082610140015165ffffffffffff16600014158015610c9657508065ffffffffffff1683610140015165ffffffffffff16105b15610ccd576040517f3b596f5f00000000000000000000000000000000000000000000000000000000815260040160405180910390fd5b6000610cd8846127a0565b905083610140015165ffffffffffff16600014610dd55783516101408501516040517fc6e38a4b00000000000000000000000000000000000000000000000000000000815273ffffffffffffffffffffffffffffffffffffffff7f0000000000000000000000000000000000000000000000000000000000000000169263c6e38a4b92610d909260040173ffffffffffffffffffffffffffffffffffffffff92909216825265ffffffffffff16602082015260400190565b6020604051808303816000875af1158015610daf573d6000803e3d6000fd5b505050506040513d601f19601f82011682018060405250810190610dd39190613b55565b505b9695505050505050565b600080610deb83610a6e565b9050600060026000858152602001908152602001600020604051806101200160405290816000820160009054906101000a900473ffffffffffffffffffffffffffffffffffffffff1673ffffffffffffffffffffffffffffffffffffffff1673ffffffffffffffffffffffffffffffffffffffff1681526020016001820160009054906101000a900473ffffffffffffffffffffffffffffffffffffffff1673ffffffffffffffffffffffffffffffffffffffff1673ffffffffffffffffffffffffffffffffffffffff1681526020016002820160009054906101000a900473ffffffffffffffffffffffffffffffffffffffff1673ffffffffffffffffffffffffffffffffffffffff1673ffffffffffffffffffffffffffffffffffffffff1681526020016003820160009054906101000a900473ffffffffffffffffffffffffffffffffffffffff1673ffffffffffffffffffffffffffffffffffffffff1673ffffffffffffffffffffffffffffffffffffffff1681526020016003820160149054906101000a900460ff161515151581526020016004820154815260200160058201548152602001600682015481526020016007820154815250509050600060036000868152602001908152602001600020604051806101200160405290816000820160009054906101000a900473ffffffffffffffffffffffffffffffffffffffff1673ffffffffffffffffffffffffffffffffffffffff1673ffffffffffffffffffffffffffffffffffffffff1681526020016000820160149054906101000a900465ffffffffffff1665ffffffffffff1665ffffffffffff16815260200160008201601a9054906101000a900465ffffffffffff1665ffffffffffff1665ffffffffffff1681526020016001820160009054906101000a900465ffffffffffff1665ffffffffffff1665ffffffffffff1681526020016001820160069054906101000a900465ffffffffffff1665ffffffffffff1665ffffffffffff16815260200160018201600c9054906101000a900465ffffffffffff1665ffffffffffff1665ffffffffffff1681526020016002820154815260200160038201548152602001600482015481525050905060008260800151611133578260a00151611147565b60e082015160a08401516111479186612f2b565b9050808360c001511161115e578260c00151610dd5565b95945050505050565b611195336000357fffffffff0000000000000000000000000000000000000000000000000000000016612125565b6111fb576040517f08c379a000000000000000000000000000000000000000000000000000000000815260206004820152600c60248201527f554e415554484f52495a45440000000000000000000000000000000000000000604482015260640161095c565b600680547fffffffffffffffffffffffffffffffffffffffffffffffffffffffffffffff0016911515919091179055565b60005473ffffffffffffffffffffffffffffffffffffffff1633148061130f57506001546040517fb70096130000000000000000000000000000000000000000000000000000000081523360048201523060248201526000357fffffffff0000000000000000000000000000000000000000000000000000000016604482015273ffffffffffffffffffffffffffffffffffffffff9091169063b700961390606401602060405180830381865afa1580156112eb573d6000803e3d6000fd5b505050506040513d601f19601f8201168201806040525081019061130f9190613b72565b61131857600080fd5b600180547fffffffffffffffffffffffff00000000000000000000000000000000000000001673ffffffffffffffffffffffffffffffffffffffff831690811790915560405133907fa3396fd7f6e0a21b50e5089d2da70d5ac0a3bbbd1f617a93f134b7638998019890600090a350565b60008181526003602052604081206001015465ffffffffffff16635dba24008111156113b85742811115610aae565b1592915050565b6000818152600260208181526040808420815161012081018352815473ffffffffffffffffffffffffffffffffffffffff9081168083526001808501548316848801819052978501548316848701819052600380870154948516606087018190527401000000000000000000000000000000000000000090950460ff1615156080870152600487015460a0870152600587015460c0870152600687015460e08701526007909601546101008601528a8a529490965293872090940154869586958695869586959491939165ffffffffffff1661149a8d610ddf565b949d939c50919a509850965090945092505050565b60008181526002602052604090205473ffffffffffffffffffffffffffffffffffffffff16331461150c576040517f4e1c8b5d00000000000000000000000000000000000000000000000000000000815260040160405180910390fd5b61062d81612ff7565b611543336000357fffffffff0000000000000000000000000000000000000000000000000000000016612125565b6115a9576040517f08c379a000000000000000000000000000000000000000000000000000000000815260206004820152600c60248201527f554e415554484f52495a45440000000000000000000000000000000000000000604482015260640161095c565b73ffffffffffffffffffffffffffffffffffffffff91909116600090815260056020526040902080547fffffffffffffffffffffffffffffffffffffffffffffffffffffffffffffff0016911515919091179055565b60008281526002602052604090205473ffffffffffffffffffffffffffffffffffffffff16331461165c576040517f4e1c8b5d00000000000000000000000000000000000000000000000000000000815260040160405180910390fd5b60009182526004602052604090912080547fffffffffffffffffffffffff00000000000000000000000000000000000000001673ffffffffffffffffffffffffffffffffffffffff909216919091179055565b6040517fb88c914800000000000000000000000000000000000000000000000000000000815273ffffffffffffffffffffffffffffffffffffffff8281166004830152600091829161177d917f00000000000000000000000000000000000000000000000000000000000000009091169063b88c914890602401602060405180830381865afa158015611746573d6000803e3d6000fd5b505050506040513d601f19601f8201168201806040525081019061176a9190613b8f565b869065ffffffffffff16620186a0612f2b565b600085815260036020819052604082200154919250906117b1906117a087610a6e565b6117aa858a613bac565b9190612f2b565b90506117bc85610ddf565b8111156117f5576040517f5c430eae00000000000000000000000000000000000000000000000000000000815260040160405180910390fd5b9150610aae9050565b60008060026000858152602001908152602001600020604051806101200160405290816000820160009054906101000a900473ffffffffffffffffffffffffffffffffffffffff1673ffffffffffffffffffffffffffffffffffffffff1673ffffffffffffffffffffffffffffffffffffffff1681526020016001820160009054906101000a900473ffffffffffffffffffffffffffffffffffffffff1673ffffffffffffffffffffffffffffffffffffffff1673ffffffffffffffffffffffffffffffffffffffff1681526020016002820160009054906101000a900473ffffffffffffffffffffffffffffffffffffffff1673ffffffffffffffffffffffffffffffffffffffff1673ffffffffffffffffffffffffffffffffffffffff1681526020016003820160009054906101000a900473ffffffffffffffffffffffffffffffffffffffff1673ffffffffffffffffffffffffffffffffffffffff1673ffffffffffffffffffffffffffffffffffffffff1681526020016003820160149054906101000a900460ff161515151581526020016004820154815260200160058201548152602001600682015481526020016007820154815250509050600060036000868152602001908152602001600020604051806101200160405290816000820160009054906101000a900473ffffffffffffffffffffffffffffffffffffffff1673ffffffffffffffffffffffffffffffffffffffff1673ffffffffffffffffffffffffffffffffffffffff1681526020016000820160149054906101000a900465ffffffffffff1665ffffffffffff1665ffffffffffff16815260200160008201601a9054906101000a900465ffffffffffff1665ffffffffffff1665ffffffffffff1681526020016001820160009054906101000a900465ffffffffffff1665ffffffffffff1665ffffffffffff1681526020016001820160069054906101000a900465ffffffffffff1665ffffffffffff1665ffffffffffff16815260200160018201600c9054906101000a900465ffffffffffff1665ffffffffffff1665ffffffffffff168152602001600282015481526020016003820154815260200160048201548152505090506000611b3b86610a6e565b905060008360800151611b625760e083015160a0850151611b5d918490612f2b565b611b68565b8360a001515b90506000611b89838560e001518760c00151612f2b9092919063ffffffff16565b90506000818310611b9a5781611b9c565b825b6040517fb88c914800000000000000000000000000000000000000000000000000000000815273ffffffffffffffffffffffffffffffffffffffff8a81166004830152919250600091611c6b917f00000000000000000000000000000000000000000000000000000000000000009091169063b88c914890602401602060405180830381865afa158015611c34573d6000803e3d6000fd5b505050506040513d601f19601f82011682018060405250810190611c589190613b8f565b839065ffffffffffff16620186a0612f2b565b9050611c778183613bc3565b9a9950505050505050505050565b60003373ffffffffffffffffffffffffffffffffffffffff7f00000000000000000000000000000000000000000000000000000000000000001614611cf6576040517f2c47703200000000000000000000000000000000000000000000000000000000815260040160405180910390fd5b6000848152600260208181526040808420600380845294829020825161012081018452815473ffffffffffffffffffffffffffffffffffffffff808216835265ffffffffffff7401000000000000000000000000000000000000000083048116978401979097527a0100000000000000000000000000000000000000000000000000009091048616948201949094526001820154808616606083015266010000000000008104861660808301526c01000000000000000000000000900490941660a08501529384015460c08401528385015460e084015260049093015461010083015292820154919290911615801590611e175750815473ffffffffffffffffffffffffffffffffffffffff1660009081526005602052604090205460ff16155b15611e4e576040517f2c47703200000000000000000000000000000000000000000000000000000000815260040160405180910390fd5b611e57866109d5565b611e8d576040517fa24c407400000000000000000000000000000000000000000000000000000000815260040160405180910390fd5b6000611e9887610a6e565b60e0830151909150611eac90879083612f2b565b935084841015611ee8576040517f74ec9d5b00000000000000000000000000000000000000000000000000000000815260040160405180910390fd5b8260050154841115611f26576040517f5c430eae00000000000000000000000000000000000000000000000000000000815260040160405180910390fd5b600383015474010000000000000000000000000000000000000000900460ff16611f565782600401548411611f5e565b826004015486115b15611f95576040517ff3383dc900000000000000000000000000000000000000000000000000000000815260040160405180910390fd5b600383015474010000000000000000000000000000000000000000900460ff16611fbf5783611fc1565b855b6004840180549190910390555050600781018054909401909355600690920180548301905550919050565b61201a336000357fffffffff0000000000000000000000000000000000000000000000000000000016612125565b612080576040517f08c379a000000000000000000000000000000000000000000000000000000000815260206004820152600c60248201527f554e415554484f52495a45440000000000000000000000000000000000000000604482015260640161095c565b60065465ffffffffffff670100000000000000909104811690821611806120b05750610e108165ffffffffffff16105b156120e7576040517f3b596f5f00000000000000000000000000000000000000000000000000000000815260040160405180910390fd5b6006805465ffffffffffff909216610100027fffffffffffffffffffffffffffffffffffffffffffffffffff000000000000ff909216919091179055565b60015460009073ffffffffffffffffffffffffffffffffffffffff16801580159061220957506040517fb700961300000000000000000000000000000000000000000000000000000000815273ffffffffffffffffffffffffffffffffffffffff85811660048301523060248301527fffffffff000000000000000000000000000000000000000000000000000000008516604483015282169063b700961390606401602060405180830381865afa1580156121e5573d6000803e3d6000fd5b505050506040513d601f19601f820116820180604052508101906122099190613b72565b8061222e575060005473ffffffffffffffffffffffffffffffffffffffff8581169116145b949350505050565b60008060026000848152602001908152602001600020604051806101200160405290816000820160009054906101000a900473ffffffffffffffffffffffffffffffffffffffff1673ffffffffffffffffffffffffffffffffffffffff1673ffffffffffffffffffffffffffffffffffffffff1681526020016001820160009054906101000a900473ffffffffffffffffffffffffffffffffffffffff1673ffffffffffffffffffffffffffffffffffffffff1673ffffffffffffffffffffffffffffffffffffffff1681526020016002820160009054906101000a900473ffffffffffffffffffffffffffffffffffffffff1673ffffffffffffffffffffffffffffffffffffffff1673ffffffffffffffffffffffffffffffffffffffff1681526020016003820160009054906101000a900473ffffffffffffffffffffffffffffffffffffffff1673ffffffffffffffffffffffffffffffffffffffff1673ffffffffffffffffffffffffffffffffffffffff1681526020016003820160149054906101000a900460ff161515151581526020016004820154815260200160058201548152602001600682015481526020016007820154815250509050600060036000858152602001908152602001600020604051806101200160405290816000820160009054906101000a900473ffffffffffffffffffffffffffffffffffffffff1673ffffffffffffffffffffffffffffffffffffffff1673ffffffffffffffffffffffffffffffffffffffff1681526020016000820160149054906101000a900465ffffffffffff1665ffffffffffff1665ffffffffffff16815260200160008201601a9054906101000a900465ffffffffffff1665ffffffffffff1665ffffffffffff1681526020016001820160009054906101000a900465ffffffffffff1665ffffffffffff1665ffffffffffff1681526020016001820160069054906101000a900465ffffffffffff1665ffffffffffff1665ffffffffffff16815260200160018201600c9054906101000a900465ffffffffffff1665ffffffffffff1665ffffffffffff1681526020016002820154815260200160038201548152602001600482015481525050905060006126398260800151620186a06125809190613bdb565b61010084015184516040517f7a3c4c17000000000000000000000000000000000000000000000000000000008152600481018a905265ffffffffffff9390931692620186a0929173ffffffffffffffffffffffffffffffffffffffff1690637a3c4c1790602401602060405180830381865afa158015612604573d6000803e3d6000fd5b505050506040513d601f19601f820116820180604052508101906126289190613c02565b6126329190613c1b565b9190613086565b905080600003612675576040517fe67b3f4400000000000000000000000000000000000000000000000000000000815260040160405180910390fd5b6000836080015161268a578360e00151612691565b8361010001515b8460a001516126a09190613bc3565b604084015190915065ffffffffffff1660006126bc4283613bac565b905060006126e482876020015165ffffffffffff16856126dc9190613bac565b869190612f2b565b905060008760a0015182111561273a57848860a00151836127059190613bac565b8860a0015165ffffffffffff1661271c9190613c1b565b6127269190613c58565b61273390620186a0613bc3565b9050612792565b600085838a60a0015161274d9190613bac565b8960a0015165ffffffffffff166127649190613c1b565b61276e9190613c58565b9050620186a0811061278157600061278e565b61278e81620186a0613bac565b9150505b611c778682620186a0613086565b60065460009060ff166127df576040517f64be3ffa00000000000000000000000000000000000000000000000000000000815260040160405180910390fd5b3360009081526005602052604090205460ff161580156128185750604082015173ffffffffffffffffffffffffffffffffffffffff1615155b1561284f576040517f2c47703200000000000000000000000000000000000000000000000000000000815260040160405180910390fd5b600082610160015165ffffffffffff1611801561287857504282610160015165ffffffffffff16105b156128af576040517f3b596f5f00000000000000000000000000000000000000000000000000000000815260040160405180910390fd5b815160208301516040517fb435914300000000000000000000000000000000000000000000000000000000815273ffffffffffffffffffffffffffffffffffffffff928316600482015290821660248201526000917f0000000000000000000000000000000000000000000000000000000000000000169063b4359143906044016020604051808303816000875af115801561294f573d6000803e3d6000fd5b505050506040513d601f19601f820116820180604052508101906129739190613c02565b600081815260026020818152604080842080547fffffffffffffffffffffffff00000000000000000000000000000000000000009081163317825589840151948201805473ffffffffffffffffffffffffffffffffffffffff968716908316179055895160018301805491871691909216179055888201516003808301805460e08d0151151574010000000000000000000000000000000000000000027fffffffffffffffffffffff000000000000000000000000000000000000000000909116939097169290921795909517905561010089015160048201559290915290912060808601519293509091620186a065ffffffffffff91909116101580612a9157508460a0015165ffffffffffff16856080015165ffffffffffff16115b15612ac8576040517f3b596f5f00000000000000000000000000000000000000000000000000000000815260040160405180910390fd5b60808501516001820180547fffffffffffffffffffffffffffffffffffffffff000000000000ffffffffffff16660100000000000065ffffffffffff84160217905560608601516020870151875160009384938493612b28938a936130e4565b60608b015187547fffffffffffffffffffffffff00000000000000000000000000000000000000001673ffffffffffffffffffffffffffffffffffffffff909116178755600487018290556003870181905560a08b01519295509093509150620186a065ffffffffffff9091161115612bcd576040517f3b596f5f00000000000000000000000000000000000000000000000000000000815260040160405180910390fd5b612bf68860a00151620186a0612be39190613bdb565b849065ffffffffffff16620186a0613086565b600285015560065461018089015165ffffffffffff670100000000000000909204821691161080612c3e575060065461012089015165ffffffffffff61010090920482169116105b80612c62575087610180015165ffffffffffff1688610120015165ffffffffffff16115b15612c99576040517f3b596f5f00000000000000000000000000000000000000000000000000000000815260040160405180910390fd5b60008860e00151612caf57886101000151612ce9565b612ce982612cdc8b60800151620186a0612cc99190613bdb565b879065ffffffffffff16620186a0613086565b6101008c01519190612f2b565b9050612d1a89610120015165ffffffffffff168a610180015165ffffffffffff1683612f2b9092919063ffffffff16565b600587015560c0890151620186a065ffffffffffff9091161115612d6a576040517f3b596f5f00000000000000000000000000000000000000000000000000000000815260040160405180910390fd5b8861012001518960c001518a6101800151612d859190613afd565b612d8f9190613ad8565b6001860180546101408c01517fffffffffffffffffffffffffffff000000000000ffffffffffff0000000000009091166c0100000000000000000000000065ffffffffffff948516027fffffffffffffffffffffffffffffffffffffffffffffffffffff00000000000016179083161790556101608a01516000911615612e1b57896101600151612e1d565b425b86547fffffffffffff000000000000ffffffffffffffffffffffffffffffffffffffff167401000000000000000000000000000000000000000065ffffffffffff8316021787556101808b0151909150612e779082613b2b565b865479ffffffffffffffffffffffffffffffffffffffffffffffffffff167a01000000000000000000000000000000000000000000000000000065ffffffffffff9283160217875560208b8101518c516101408e01516040519416845273ffffffffffffffffffffffffffffffffffffffff918216939116918b917f9cc08aa705173351ee44462d57949faf65814067be71f3271ec1f5636f9efa2d910160405180910390a4509598975050505050505050565b600080807fffffffffffffffffffffffffffffffffffffffffffffffffffffffffffffffff85870985870292508281108382030391505080600003612f825760008411612f7757600080fd5b508290049050610aae565b808411612f8e57600080fd5b60008486880960026001871981018816978890046003810283188082028403028082028403028082028403028082028403028082028403029081029092039091026000889003889004909101858311909403939093029303949094049190911702949350505050565b6000818152600360209081526040808320805479ffffffffffffffffffffffffffffffffffffffffffffffffffff167a0100000000000000000000000000000000000000000000000000004265ffffffffffff160217905560029091528082206004018290555182917f9dc30b8eda31a6a144e092e5de600955523a6a925cc15cc1d1b9b4872cfa615591a250565b6000613093848484612f2b565b9050600082806130a5576130a5613a7a565b8486091115610aae577fffffffffffffffffffffffffffffffffffffffffffffffffffffffffffffffff81106130da57600080fd5b6001019392505050565b6000806000808573ffffffffffffffffffffffffffffffffffffffff1663313ce5676040518163ffffffff1660e01b8152600401602060405180830381865afa158015613135573d6000803e3d6000fd5b505050506040513d601f19601f820116820180604052508101906131599190613c6c565b905060008773ffffffffffffffffffffffffffffffffffffffff1663313ce5676040518163ffffffff1660e01b8152600401602060405180830381865afa1580156131a8573d6000803e3d6000fd5b505050506040513d601f19601f820116820180604052508101906131cc9190613c6c565b905060068260ff1610806131e3575060128260ff16115b1561321a576040517f3b596f5f00000000000000000000000000000000000000000000000000000000815260040160405180910390fd5b60068160ff16108061322f575060128160ff16115b15613266576040517f3b596f5f00000000000000000000000000000000000000000000000000000000815260040160405180910390fd5b73ffffffffffffffffffffffffffffffffffffffff8916158061329e575073ffffffffffffffffffffffffffffffffffffffff89163b155b156132d5576040517f3b596f5f00000000000000000000000000000000000000000000000000000000815260040160405180910390fd5b6040517f5538adb7000000000000000000000000000000000000000000000000000000008152600481018b905273ffffffffffffffffffffffffffffffffffffffff898116602483015288811660448301528a1690635538adb790606401600060405180830381600087803b15801561334d57600080fd5b505af1158015613361573d6000803e3d6000fd5b50506040517f7a3c4c17000000000000000000000000000000000000000000000000000000008152600481018d90526000925073ffffffffffffffffffffffffffffffffffffffff8c169150637a3c4c1790602401602060405180830381865afa1580156133d3573d6000803e3d6000fd5b505050506040513d601f19601f820116820180604052508101906133f79190613c02565b905080600003613433576040517fe67b3f4400000000000000000000000000000000000000000000000000000000815260040160405180910390fd5b6040517f3f47e662000000000000000000000000000000000000000000000000000000008152600481018c905260009073ffffffffffffffffffffffffffffffffffffffff8c1690633f47e66290602401602060405180830381865afa1580156134a1573d6000803e3d6000fd5b505050506040513d601f19601f820116820180604052508101906134c59190613c6c565b905060068160ff1610806134dc575060128160ff16115b15613513576040517f3b596f5f00000000000000000000000000000000000000000000000000000000815260040160405180910390fd5b600061354161353b6135288b620186a0613bdb565b859065ffffffffffff16620186a0613086565b83613622565b905061354c81613c8f565b60000b8260000b131580613563575060188160000b135b1561359a576040517f3b596f5f00000000000000000000000000000000000000000000000000000000815260040160405180910390fd5b6000826135a8600284613ccd565b6135b3906024613d41565b6135bd9190613d41565b6135c890600a613ec3565b905060006135d7600284613ccd565b866135e3896024613ed2565b6135ed9190613d41565b6135f79190613d41565b61360290600a613ec3565b905061360e8286613c1b565b9f919e509c509a5050505050505050505050565b6000805b600a841061364d57613639600a85613c58565b93508061364581613f33565b915050613626565b61222e8382613d41565b60006020828403121561366957600080fd5b5035919050565b73ffffffffffffffffffffffffffffffffffffffff8116811461062d57600080fd5b803561369d81613670565b919050565b6000602082840312156136b457600080fd5b8135610aae81613670565b65ffffffffffff8116811461062d57600080fd5b803561369d816136bf565b6000602082840312156136f057600080fd5b8135610aae816136bf565b6000806020838503121561370e57600080fd5b823567ffffffffffffffff8082111561372657600080fd5b818501915085601f83011261373a57600080fd5b81358181111561374957600080fd5b86602082850101111561375b57600080fd5b60209290920196919550909350505050565b801515811461062d57600080fd5b803561369d8161376d565b60006020828403121561379857600080fd5b8135610aae8161376d565b600080608083850312156137b657600080fd5b82359150836080840111156137ca57600080fd5b50926020919091019150565b600080604083850312156137e957600080fd5b82356137f481613670565b915060208301356138048161376d565b809150509250929050565b6000806040838503121561382257600080fd5b82359150602083013561380481613670565b7f4e487b7100000000000000000000000000000000000000000000000000000000600052604160045260246000fd5b6040516101a0810167ffffffffffffffff8111828210171561388757613887613834565b60405290565b600060c0828403121561389f57600080fd5b82601f8301126138ae57600080fd5b60405160c0810181811067ffffffffffffffff821117156138d1576138d1613834565b6040528060c08401858111156138e657600080fd5b845b8181101561391357803563ffffffff811681146139055760008081fd5b8352602092830192016138e8565b509195945050505050565b60008060006060848603121561393357600080fd5b8335925060208401359150604084013561394c81613670565b809150509250925092565b60008060006060848603121561396c57600080fd5b505081359360208301359350604090920135919050565b60006101a0828403121561399657600080fd5b61399e613863565b6139a783613692565b81526139b560208401613692565b60208201526139c660408401613692565b60408201526139d760608401613692565b60608201526139e8608084016136d3565b60808201526139f960a084016136d3565b60a0820152613a0a60c084016136d3565b60c0820152613a1b60e0840161377b565b60e08201526101008381013590820152610120613a398185016136d3565b90820152610140613a4b8482016136d3565b90820152610160613a5d8482016136d3565b90820152610180613a6f8482016136d3565b908201529392505050565b7f4e487b7100000000000000000000000000000000000000000000000000000000600052601260045260246000fd5b7f4e487b7100000000000000000000000000000000000000000000000000000000600052601160045260246000fd5b600065ffffffffffff80841680613af157613af1613a7a565b92169190910492915050565b600065ffffffffffff80831681851681830481118215151615613b2257613b22613aa9565b02949350505050565b600065ffffffffffff808316818516808303821115613b4c57613b4c613aa9565b01949350505050565b600060208284031215613b6757600080fd5b8151610aae81613670565b600060208284031215613b8457600080fd5b8151610aae8161376d565b600060208284031215613ba157600080fd5b8151610aae816136bf565b600082821015613bbe57613bbe613aa9565b500390565b60008219821115613bd657613bd6613aa9565b500190565b600065ffffffffffff83811690831681811015613bfa57613bfa613aa9565b039392505050565b600060208284031215613c1457600080fd5b5051919050565b6000817fffffffffffffffffffffffffffffffffffffffffffffffffffffffffffffffff0483118215151615613c5357613c53613aa9565b500290565b600082613c6757613c67613a7a565b500490565b600060208284031215613c7e57600080fd5b815160ff81168114610aae57600080fd5b60008160000b7fffffffffffffffffffffffffffffffffffffffffffffffffffffffffffffff808103613cc457613cc4613aa9565b60000392915050565b60008160000b8360000b80613ce457613ce4613a7a565b7fffffffffffffffffffffffffffffffffffffffffffffffffffffffffffffffff81147fffffffffffffffffffffffffffffffffffffffffffffffffffffffffffffff8083141615613d3857613d38613aa9565b90059392505050565b60008160000b8360000b60008112817fffffffffffffffffffffffffffffffffffffffffffffffffffffffffffffff8001831281151615613d8457613d84613aa9565b81607f018313811615613d9957613d99613aa9565b5090039392505050565b600181815b80851115613dfc57817fffffffffffffffffffffffffffffffffffffffffffffffffffffffffffffffff04821115613de257613de2613aa9565b80851615613def57918102915b93841c9390800290613da8565b509250929050565b600082613e1357506001610a68565b81613e2057506000610a68565b8160018114613e365760028114613e4057613e5c565b6001915050610a68565b60ff841115613e5157613e51613aa9565b50506001821b610a68565b5060208310610133831016604e8410600b8410161715613e7f575081810a610a68565b613e898383613da3565b807fffffffffffffffffffffffffffffffffffffffffffffffffffffffffffffffff04821115613ebb57613ebb613aa9565b029392505050565b6000610aae60ff841683613e04565b60008160000b8360000b6000821282607f03821381151615613ef657613ef6613aa9565b827fffffffffffffffffffffffffffffffffffffffffffffffffffffffffffffff80038212811615613f2a57613f2a613aa9565b50019392505050565b60008160000b607f8103613f4957613f49613aa9565b6001019291505056fea264697066735822122087d8b90226aa47ff00ed9b72b597303b09fec23b5fbce7f55f285c7429ceb95864736f6c634300080f0033",
    "linkReferences": {}
  },
  "methodIdentifiers": {
    "allowNewMarkets()": "afa9d3b0",
    "authority()": "bf7e214f",
    "callbackAuthorized(address)": "5dc4d16b",
    "closeMarket(uint256)": "ae418095",
    "createMarket(bytes)": "53c7f8e0",
    "currentCapacity(uint256)": "1c063a6c",
    "getAggregator()": "3ad59dbc",
    "getMarketInfoForPurchase(uint256)": "acc5570c",
    "getTeller()": "9787d107",
    "isInstantSwap(uint256)": "8b098db3",
    "isLive(uint256)": "27507458",
    "marketPrice(uint256)": "3adec5a7",
    "marketScale(uint256)": "946824cd",
    "markets(uint256)": "b1283e77",
    "maxAmountAccepted(uint256,address)": "c7bf8ca0",
    "maxPayout(uint256)": "57e333ba",
    "minDepositInterval()": "d2040687",
    "minMarketDuration()": "d2bee323",
    "newOwners(uint256)": "6729a41e",
    "owner()": "8da5cb5b",
    "ownerOf(uint256)": "6352211e",
    "payoutFor(uint256,uint256,address)": "bf48582b",
    "pullOwnership(uint256)": "10b05317",
    "purchaseBond(uint256,uint256,uint256)": "e007fa97",
    "pushOwnership(uint256,address)": "bcf6cde8",
    "setAllowNewMarkets(bool)": "5f77274e",
    "setAuthority(address)": "7a9e5e4b",
    "setCallbackAuthStatus(address,bool)": "bbbdd95a",
    "setDefaults(uint32[6])": "bd1f3a5e",
    "setIntervals(uint256,uint32[3])": "699e17d9",
    "setMinDepositInterval(uint48)": "f61338f6",
    "setMinMarketDuration(uint48)": "44ee0172",
    "setOwner(address)": "13af4035",
    "terms(uint256)": "c0aa0e8a"
  },
  "id": 32
}