{
  "abi": [
    {
      "inputs": [
        {
          "internalType": "address",
          "name": "aggregator_",
          "type": "address"
        },
        {
          "internalType": "address[]",
          "name": "auctioneers_",
          "type": "address[]"
        }
      ],
      "stateMutability": "nonpayable",
      "type": "constructor"
    },
    {
      "inputs": [
        {
          "internalType": "address",
          "name": "feed_",
          "type": "address"
        }
      ],
      "name": "BondOracle_BadFeed",
      "type": "error"
    },
    {
      "inputs": [],
      "name": "BondOracle_InvalidParams",
      "type": "error"
    },
    {
      "inputs": [
        {
          "internalType": "uint256",
          "name": "id",
          "type": "uint256"
        }
      ],
      "name": "BondOracle_MarketNotRegistered",
      "type": "error"
    },
    {
      "inputs": [
        {
          "internalType": "address",
          "name": "auctioneer",
          "type": "address"
        }
      ],
      "name": "BondOracle_NotAuctioneer",
      "type": "error"
    },
    {
      "inputs": [
        {
          "internalType": "contract ERC20",
          "name": "quoteToken",
          "type": "address"
        },
        {
          "internalType": "contract ERC20",
          "name": "payoutToken",
          "type": "address"
        }
      ],
      "name": "BondOracle_PairNotSupported",
      "type": "error"
    },
    {
      "anonymous": false,
      "inputs": [
        {
          "indexed": false,
          "internalType": "address",
          "name": "auctioneer",
          "type": "address"
        },
        {
          "indexed": false,
          "internalType": "bool",
          "name": "supported",
          "type": "bool"
        }
      ],
      "name": "AuctioneerUpdated",
      "type": "event"
    },
    {
      "anonymous": false,
      "inputs": [
        {
          "indexed": false,
          "internalType": "uint256",
          "name": "id",
          "type": "uint256"
        },
        {
          "indexed": false,
          "internalType": "contract ERC20",
          "name": "quoteToken",
          "type": "address"
        },
        {
          "indexed": false,
          "internalType": "contract ERC20",
          "name": "payoutToken",
          "type": "address"
        }
      ],
      "name": "MarketRegistered",
      "type": "event"
    },
    {
      "anonymous": false,
      "inputs": [
        {
          "indexed": true,
          "internalType": "address",
          "name": "previousOwner",
          "type": "address"
        },
        {
          "indexed": true,
          "internalType": "address",
          "name": "newOwner",
          "type": "address"
        }
      ],
      "name": "OwnershipTransferred",
      "type": "event"
    },
    {
      "anonymous": false,
      "inputs": [
        {
          "indexed": false,
          "internalType": "contract ERC20",
          "name": "quoteToken",
          "type": "address"
        },
        {
          "indexed": false,
          "internalType": "contract ERC20",
          "name": "payoutToken",
          "type": "address"
        },
        {
          "indexed": false,
          "internalType": "bool",
          "name": "supported",
          "type": "bool"
        }
      ],
      "name": "PairUpdated",
      "type": "event"
    },
    {
      "inputs": [],
      "name": "aggregator",
      "outputs": [
        {
          "internalType": "contract IBondAggregator",
          "name": "",
          "type": "address"
        }
      ],
      "stateMutability": "view",
      "type": "function"
    },
    {
      "inputs": [
        {
          "internalType": "uint256",
          "name": "id_",
          "type": "uint256"
        }
      ],
      "name": "currentPrice",
      "outputs": [
        {
          "internalType": "uint256",
          "name": "",
          "type": "uint256"
        }
      ],
      "stateMutability": "view",
      "type": "function"
    },
    {
      "inputs": [
        {
          "internalType": "contract ERC20",
          "name": "quoteToken_",
          "type": "address"
        },
        {
          "internalType": "contract ERC20",
          "name": "payoutToken_",
          "type": "address"
        }
      ],
      "name": "currentPrice",
      "outputs": [
        {
          "internalType": "uint256",
          "name": "",
          "type": "uint256"
        }
      ],
      "stateMutability": "view",
      "type": "function"
    },
    {
      "inputs": [
        {
          "internalType": "uint256",
          "name": "id_",
          "type": "uint256"
        }
      ],
      "name": "decimals",
      "outputs": [
        {
          "internalType": "uint8",
          "name": "",
          "type": "uint8"
        }
      ],
      "stateMutability": "view",
      "type": "function"
    },
    {
      "inputs": [
        {
          "internalType": "contract ERC20",
          "name": "quoteToken_",
          "type": "address"
        },
        {
          "internalType": "contract ERC20",
          "name": "payoutToken_",
          "type": "address"
        }
      ],
      "name": "decimals",
      "outputs": [
        {
          "internalType": "uint8",
          "name": "",
          "type": "uint8"
        }
      ],
      "stateMutability": "view",
      "type": "function"
    },
    {
      "inputs": [
        {
          "internalType": "address",
          "name": "",
          "type": "address"
        }
      ],
      "name": "isAuctioneer",
      "outputs": [
        {
          "internalType": "bool",
          "name": "",
          "type": "bool"
        }
      ],
      "stateMutability": "view",
      "type": "function"
    },
    {
      "inputs": [
        {
          "internalType": "uint256",
          "name": "",
          "type": "uint256"
        },
        {
          "internalType": "uint256",
          "name": "",
          "type": "uint256"
        }
      ],
      "name": "markets",
      "outputs": [
        {
          "internalType": "contract ERC20",
          "name": "",
          "type": "address"
        }
      ],
      "stateMutability": "view",
      "type": "function"
    },
    {
      "inputs": [],
      "name": "owner",
      "outputs": [
        {
          "internalType": "address",
          "name": "",
          "type": "address"
        }
      ],
      "stateMutability": "view",
      "type": "function"
    },
    {
      "inputs": [
        {
          "internalType": "contract ERC20",
          "name": "",
          "type": "address"
        },
        {
          "internalType": "contract ERC20",
          "name": "",
          "type": "address"
        }
      ],
      "name": "priceFeedParams",
      "outputs": [
        {
          "internalType": "contract AggregatorV2V3Interface",
          "name": "numeratorFeed",
          "type": "address"
        },
        {
          "internalType": "uint48",
          "name": "numeratorUpdateThreshold",
          "type": "uint48"
        },
        {
          "internalType": "contract AggregatorV2V3Interface",
          "name": "denominatorFeed",
          "type": "address"
        },
        {
          "internalType": "uint48",
          "name": "denominatorUpdateThreshold",
          "type": "uint48"
        },
        {
          "internalType": "uint8",
          "name": "decimals",
          "type": "uint8"
        },
        {
          "internalType": "bool",
          "name": "div",
          "type": "bool"
        }
      ],
      "stateMutability": "view",
      "type": "function"
    },
    {
      "inputs": [
        {
          "internalType": "uint256",
          "name": "id_",
          "type": "uint256"
        },
        {
          "internalType": "contract ERC20",
          "name": "quoteToken_",
          "type": "address"
        },
        {
          "internalType": "contract ERC20",
          "name": "payoutToken_",
          "type": "address"
        }
      ],
      "name": "registerMarket",
      "outputs": [],
      "stateMutability": "nonpayable",
      "type": "function"
    },
    {
      "inputs": [],
      "name": "renounceOwnership",
      "outputs": [],
      "stateMutability": "nonpayable",
      "type": "function"
    },
    {
      "inputs": [
        {
          "internalType": "address",
          "name": "auctioneer_",
          "type": "address"
        },
        {
          "internalType": "bool",
          "name": "supported_",
          "type": "bool"
        }
      ],
      "name": "setAuctioneer",
      "outputs": [],
      "stateMutability": "nonpayable",
      "type": "function"
    },
    {
      "inputs": [
        {
          "internalType": "contract ERC20",
          "name": "quoteToken_",
          "type": "address"
        },
        {
          "internalType": "contract ERC20",
          "name": "payoutToken_",
          "type": "address"
        },
        {
          "internalType": "bool",
          "name": "supported_",
          "type": "bool"
        },
        {
          "internalType": "bytes",
          "name": "oracleData_",
          "type": "bytes"
        }
      ],
      "name": "setPair",
      "outputs": [],
      "stateMutability": "nonpayable",
      "type": "function"
    },
    {
      "inputs": [
        {
          "internalType": "contract ERC20",
          "name": "",
          "type": "address"
        },
        {
          "internalType": "contract ERC20",
          "name": "",
          "type": "address"
        }
      ],
      "name": "supportedPairs",
      "outputs": [
        {
          "internalType": "bool",
          "name": "",
          "type": "bool"
        }
      ],
      "stateMutability": "view",
      "type": "function"
    },
    {
      "inputs": [
        {
          "internalType": "address",
          "name": "newOwner",
          "type": "address"
        }
      ],
      "name": "transferOwnership",
      "outputs": [],
      "stateMutability": "nonpayable",
      "type": "function"
    }
  ],
  "bytecode": {
    "object": "0x60a06040523480156200001157600080fd5b50604051620026d7380380620026d783398101604081905262000034916200014b565b81816200004133620000c8565b6001600160a01b038216608052805160005b81811015620000bc5760016003600085848151811062000077576200007762000234565b6020908102919091018101516001600160a01b03168252810191909152604001600020805460ff1916911515919091179055620000b4816200024a565b905062000053565b50505050505062000272565b600080546001600160a01b038381166001600160a01b0319831681178455604051919092169283917f8be0079c531659141344cd1fd0a4f28419497f9722a3daafe3b4186f6b6457e09190a35050565b80516001600160a01b03811681146200013057600080fd5b919050565b634e487b7160e01b600052604160045260246000fd5b600080604083850312156200015f57600080fd5b6200016a8362000118565b602084810151919350906001600160401b03808211156200018a57600080fd5b818601915086601f8301126200019f57600080fd5b815181811115620001b457620001b462000135565b8060051b604051601f19603f83011681018181108582111715620001dc57620001dc62000135565b604052918252848201925083810185019189831115620001fb57600080fd5b938501935b828510156200022457620002148562000118565b8452938501939285019262000200565b8096505050505050509250929050565b634e487b7160e01b600052603260045260246000fd5b6000600182016200026b57634e487b7160e01b600052601160045260246000fd5b5060010190565b608051612443620002946000396000818160ff015261071d01526124436000f3fe608060405234801561001057600080fd5b50600436106100f55760003560e01c80637a3c4c1711610097578063a1a0603411610066578063a1a0603414610266578063c0918a7d14610379578063f2fde38b1461038c578063fe11edc91461039f57600080fd5b80637a3c4c17146101f1578063831e81a4146102125780638da5cb5b146102255780639cd85b5b1461024357600080fd5b8063461100bb116100d3578063461100bb146101855780635538adb7146101c357806358e2d3a8146101d6578063715018a6146101e957600080fd5b8063245a7bfc146100fa57806334db591c1461014b5780633f47e66214610160575b600080fd5b6101217f000000000000000000000000000000000000000000000000000000000000000081565b60405173ffffffffffffffffffffffffffffffffffffffff90911681526020015b60405180910390f35b61015e610159366004611ece565b6103b2565b005b61017361016e366004611f07565b61052d565b60405160ff9091168152602001610142565b6101b3610193366004611f20565b600260209081526000928352604080842090915290825290205460ff1681565b6040519015158152602001610142565b61015e6101d1366004611f4e565b61068c565b6101736101e4366004611f20565b610904565b61015e610a33565b6102046101ff366004611f07565b610ac0565b604051908152602001610142565b610204610220366004611f20565b610bc9565b60005473ffffffffffffffffffffffffffffffffffffffff16610121565b6101b3610251366004611f90565b60036020526000908152604090205460ff1681565b610321610274366004611f20565b60046020908152600092835260408084209091529082529020805460019091015473ffffffffffffffffffffffffffffffffffffffff8083169265ffffffffffff740100000000000000000000000000000000000000009182900481169392831692918204169060ff7a01000000000000000000000000000000000000000000000000000082048116917b0100000000000000000000000000000000000000000000000000000090041686565b6040805173ffffffffffffffffffffffffffffffffffffffff978816815265ffffffffffff968716602082015296909416938601939093529216606084015260ff9091166080830152151560a082015260c001610142565b61015e610387366004611fad565b610ca1565b61015e61039a366004611f90565b610e8d565b6101216103ad366004612055565b610fbd565b60005473ffffffffffffffffffffffffffffffffffffffff163314610438576040517f08c379a000000000000000000000000000000000000000000000000000000000815260206004820181905260248201527f4f776e61626c653a2063616c6c6572206973206e6f7420746865206f776e657260448201526064015b60405180910390fd5b73ffffffffffffffffffffffffffffffffffffffff821660009081526003602052604090205481151560ff90911615150361049f576040517f28692ca100000000000000000000000000000000000000000000000000000000815260040160405180910390fd5b73ffffffffffffffffffffffffffffffffffffffff821660008181526003602090815260409182902080547fffffffffffffffffffffffffffffffffffffffffffffffffffffffffffffff00168515159081179091558251938452908301527f427bb985583b2c3b3ca62f7fbe07ab47e090258ed1f52e1a9287b95147846a72910160405180910390a15050565b600081815260016020526040808220815180830192839052839290919060029082845b815473ffffffffffffffffffffffffffffffffffffffff1681526001909101906020018083116105505750505050509050600073ffffffffffffffffffffffffffffffffffffffff16816000600281106105ac576105ac612077565b602002015173ffffffffffffffffffffffffffffffffffffffff1614806105eb5750602081015173ffffffffffffffffffffffffffffffffffffffff16155b15610625576040517f436225170000000000000000000000000000000000000000000000000000000081526004810184905260240161042f565b805160208083015173ffffffffffffffffffffffffffffffffffffffff9283166000908152600483526040808220949092168152929091529020600101547a010000000000000000000000000000000000000000000000000000900460ff165b9392505050565b3360009081526003602052604090205460ff166106d7576040517f0b7f48c000000000000000000000000000000000000000000000000000000000815233600482015260240161042f565b6040517f5204794200000000000000000000000000000000000000000000000000000000815260048101849052339073ffffffffffffffffffffffffffffffffffffffff7f00000000000000000000000000000000000000000000000000000000000000001690635204794290602401602060405180830381865afa158015610764573d6000803e3d6000fd5b505050506040513d601f19601f8201168201806040525081019061078891906120a6565b73ffffffffffffffffffffffffffffffffffffffff16146107d5576040517f28692ca100000000000000000000000000000000000000000000000000000000815260040160405180910390fd5b73ffffffffffffffffffffffffffffffffffffffff80831660009081526002602090815260408083209385168352929052205460ff16610861576040517f8192a3bc00000000000000000000000000000000000000000000000000000000815273ffffffffffffffffffffffffffffffffffffffff80841660048301528216602482015260440161042f565b60408051808201825273ffffffffffffffffffffffffffffffffffffffff8085168252831660208083019190915260008681526001909152919091206108a8916002611e0c565b506040805184815273ffffffffffffffffffffffffffffffffffffffff848116602083015283168183015290517f30e1415553627aaa36f9117b16307cc661ccbe74d89fbb40942907190b58a37e9181900360600190a1505050565b600073ffffffffffffffffffffffffffffffffffffffff8316158061093d575073ffffffffffffffffffffffffffffffffffffffff8216155b8061097b575073ffffffffffffffffffffffffffffffffffffffff80841660009081526002602090815260408083209386168352929052205460ff16155b156109d2576040517f8192a3bc00000000000000000000000000000000000000000000000000000000815273ffffffffffffffffffffffffffffffffffffffff80851660048301528316602482015260440161042f565b73ffffffffffffffffffffffffffffffffffffffff8381166000908152600460209081526040808320938616835292905220600101547a010000000000000000000000000000000000000000000000000000900460ff165b90505b92915050565b60005473ffffffffffffffffffffffffffffffffffffffff163314610ab4576040517f08c379a000000000000000000000000000000000000000000000000000000000815260206004820181905260248201527f4f776e61626c653a2063616c6c6572206973206e6f7420746865206f776e6572604482015260640161042f565b610abe6000610ff8565b565b600081815260016020526040808220815180830192839052839290919060029082845b815473ffffffffffffffffffffffffffffffffffffffff168152600190910190602001808311610ae35750505050509050600073ffffffffffffffffffffffffffffffffffffffff1681600060028110610b3f57610b3f612077565b602002015173ffffffffffffffffffffffffffffffffffffffff161480610b7e5750602081015173ffffffffffffffffffffffffffffffffffffffff16155b15610bb8576040517f436225170000000000000000000000000000000000000000000000000000000081526004810184905260240161042f565b80516020820151610685919061106d565b600073ffffffffffffffffffffffffffffffffffffffff83161580610c02575073ffffffffffffffffffffffffffffffffffffffff8216155b80610c40575073ffffffffffffffffffffffffffffffffffffffff80841660009081526002602090815260408083209386168352929052205460ff16155b15610c97576040517f8192a3bc00000000000000000000000000000000000000000000000000000000815273ffffffffffffffffffffffffffffffffffffffff80851660048301528316602482015260440161042f565b610a2a838361106d565b60005473ffffffffffffffffffffffffffffffffffffffff163314610d22576040517f08c379a000000000000000000000000000000000000000000000000000000000815260206004820181905260248201527f4f776e61626c653a2063616c6c6572206973206e6f7420746865206f776e6572604482015260640161042f565b73ffffffffffffffffffffffffffffffffffffffff85161580610d59575073ffffffffffffffffffffffffffffffffffffffff8416155b15610d90576040517f28692ca100000000000000000000000000000000000000000000000000000000815260040160405180910390fd5b73ffffffffffffffffffffffffffffffffffffffff858116600090815260026020908152604080832093881683529281529082902080547fffffffffffffffffffffffffffffffffffffffffffffffffffffffffffffff00168615151790558151601f8401829004820281018201909252828252610e2e9187918791879187908790819084018382808284376000920191909152506111bb92505050565b6040805173ffffffffffffffffffffffffffffffffffffffff8781168252861660208201528415158183015290517fa0be238839c65552a544da5e66b7a224fe553eccb19681bc2ddd043f4ec863ce9181900360600190a15050505050565b60005473ffffffffffffffffffffffffffffffffffffffff163314610f0e576040517f08c379a000000000000000000000000000000000000000000000000000000000815260206004820181905260248201527f4f776e61626c653a2063616c6c6572206973206e6f7420746865206f776e6572604482015260640161042f565b73ffffffffffffffffffffffffffffffffffffffff8116610fb1576040517f08c379a000000000000000000000000000000000000000000000000000000000815260206004820152602660248201527f4f776e61626c653a206e6577206f776e657220697320746865207a65726f206160448201527f6464726573730000000000000000000000000000000000000000000000000000606482015260840161042f565b610fba81610ff8565b50565b60016020528160005260406000208160028110610fd957600080fd5b015473ffffffffffffffffffffffffffffffffffffffff169150829050565b6000805473ffffffffffffffffffffffffffffffffffffffff8381167fffffffffffffffffffffffff0000000000000000000000000000000000000000831681178455604051919092169283917f8be0079c531659141344cd1fd0a4f28419497f9722a3daafe3b4186f6b6457e09190a35050565b73ffffffffffffffffffffffffffffffffffffffff808316600090815260046020908152604080832085851684528252808320815160c081018352815480871680835265ffffffffffff740100000000000000000000000000000000000000009283900481169684019690965260019093015496871693820193909352918504909216606082015260ff7a0100000000000000000000000000000000000000000000000000008504811660808301527b01000000000000000000000000000000000000000000000000000000909404909316151560a0840152909190611182576040517fdb4c7bcc0000000000000000000000000000000000000000000000000000000081526000600482015260240161042f565b604081015173ffffffffffffffffffffffffffffffffffffffff166111b2576111aa816116ba565b915050610a2d565b6111aa81611813565b8115611632576000818060200190518101906111d79190612105565b90506000816000015173ffffffffffffffffffffffffffffffffffffffff1663313ce5676040518163ffffffff1660e01b8152600401602060405180830381865afa15801561122a573d6000803e3d6000fd5b505050506040513d601f19601f8201168201806040525081019061124e91906121cb565b604083015190915060009073ffffffffffffffffffffffffffffffffffffffff1661127a5760006112ed565b826040015173ffffffffffffffffffffffffffffffffffffffff1663313ce5676040518163ffffffff1660e01b8152600401602060405180830381865afa1580156112c9573d6000803e3d6000fd5b505050506040513d601f19601f820116820180604052508101906112ed91906121cb565b835190915073ffffffffffffffffffffffffffffffffffffffff1615806113295750610e1065ffffffffffff16836020015165ffffffffffff16105b8061134a575062093a8065ffffffffffff16836020015165ffffffffffff16115b8061135c57506006836080015160ff16105b8061136e57506012836080015160ff16115b8061137c575060068260ff16105b8061138a575060128260ff16115b806113cf5750604083015173ffffffffffffffffffffffffffffffffffffffff161580156113ba57508260a00151155b80156113cf57508160ff16836080015160ff16105b806114a45750604083015173ffffffffffffffffffffffffffffffffffffffff16158015906114a45750610e1065ffffffffffff16836060015165ffffffffffff161080611433575062093a8065ffffffffffff16836060015165ffffffffffff16115b80611441575060068160ff16105b8061144f575060128160ff16115b8061147a57508260a00151801561147a57508160ff168184608001516114759190612215565b60ff16105b806114a457508260a001511580156114a45750608083015160ff1661149f8284612215565b60ff16105b156114db576040517f28692ca100000000000000000000000000000000000000000000000000000000815260040160405180910390fd5b505073ffffffffffffffffffffffffffffffffffffffff80861660009081526004602090815260408083208885168452825291829020845181549286015165ffffffffffff908116740100000000000000000000000000000000000000009081027fffffffffffff00000000000000000000000000000000000000000000000000009586169388169390931792909217835593860151600190920180546060880151608089015160a09099015115157b01000000000000000000000000000000000000000000000000000000027fffffffff00ffffffffffffffffffffffffffffffffffffffffffffffffffffff60ff909a167a01000000000000000000000000000000000000000000000000000002999099167fffffffff0000ffffffffffffffffffffffffffffffffffffffffffffffffffff91909716909302941692909516919091179190911716179190911790556116b4565b73ffffffffffffffffffffffffffffffffffffffff808516600090815260046020908152604080832093871683529290522080547fffffffffffff000000000000000000000000000000000000000000000000000016815560010180547fffffffff000000000000000000000000000000000000000000000000000000001690555b50505050565b6000806116cf83600001518460200151611c24565b90508260a00151611779576117748360800151600a6116ee919061235a565b846000015173ffffffffffffffffffffffffffffffffffffffff1663313ce5676040518163ffffffff1660e01b8152600401602060405180830381865afa15801561173d573d6000803e3d6000fd5b505050506040513d601f19601f8201168201806040525081019061176191906121cb565b61176c90600a61235a565b839190611d41565b610685565b610685836000015173ffffffffffffffffffffffffffffffffffffffff1663313ce5676040518163ffffffff1660e01b8152600401602060405180830381865afa1580156117cb573d6000803e3d6000fd5b505050506040513d601f19601f820116820180604052508101906117ef91906121cb565b6117fa90600a61235a565b828560800151600a61180c919061235a565b9190611d41565b6000806000836040015173ffffffffffffffffffffffffffffffffffffffff1663313ce5676040518163ffffffff1660e01b8152600401602060405180830381865afa158015611867573d6000803e3d6000fd5b505050506040513d601f19601f8201168201806040525081019061188b91906121cb565b90506000846000015173ffffffffffffffffffffffffffffffffffffffff1663313ce5676040518163ffffffff1660e01b8152600401602060405180830381865afa1580156118de573d6000803e3d6000fd5b505050506040513d601f19601f8201168201806040525081019061190291906121cb565b90508460a0015115611a63578060ff168286608001516119229190612215565b60ff16101561195d576040517f28692ca100000000000000000000000000000000000000000000000000000000815260040160405180910390fd5b846000015173ffffffffffffffffffffffffffffffffffffffff1663313ce5676040518163ffffffff1660e01b8152600401602060405180830381865afa1580156119ac573d6000803e3d6000fd5b505050506040513d601f19601f820116820180604052508101906119d091906121cb565b856040015173ffffffffffffffffffffffffffffffffffffffff1663313ce5676040518163ffffffff1660e01b8152600401602060405180830381865afa158015611a1f573d6000803e3d6000fd5b505050506040513d601f19601f82011682018060405250810190611a4391906121cb565b8660800151611a529190612215565b611a5c9190612369565b9250611bb2565b608085015160ff16611a758383612215565b60ff161015611ab0576040517f28692ca100000000000000000000000000000000000000000000000000000000815260040160405180910390fd5b8460800151856000015173ffffffffffffffffffffffffffffffffffffffff1663313ce5676040518163ffffffff1660e01b8152600401602060405180830381865afa158015611b04573d6000803e3d6000fd5b505050506040513d601f19601f82011682018060405250810190611b2891906121cb565b866040015173ffffffffffffffffffffffffffffffffffffffff1663313ce5676040518163ffffffff1660e01b8152600401602060405180830381865afa158015611b77573d6000803e3d6000fd5b505050506040513d601f19601f82011682018060405250810190611b9b91906121cb565b611ba59190612215565b611baf9190612369565b92505b6000611bc686600001518760200151611c24565b90506000611bdc87604001518860600151611c24565b90508660a00151611c0357611bfe81611bf687600a61235a565b849190611d41565b611c19565b611c19611c1186600a61235a565b839083611d41565b979650505050505050565b60008060008060008673ffffffffffffffffffffffffffffffffffffffff1663feaf968c6040518163ffffffff1660e01b815260040160a060405180830381865afa158015611c77573d6000803e3d6000fd5b505050506040513d601f19601f82011682018060405250810190611c9b91906123a6565b945094505093509350600083131580611cc45750611cc165ffffffffffff8716426123f6565b82105b80611ce757508369ffffffffffffffffffff168169ffffffffffffffffffff1614155b15611d36576040517fdb4c7bcc00000000000000000000000000000000000000000000000000000000815273ffffffffffffffffffffffffffffffffffffffff8816600482015260240161042f565b509095945050505050565b600080807fffffffffffffffffffffffffffffffffffffffffffffffffffffffffffffffff85870985870292508281108382030391505080600003611d985760008411611d8d57600080fd5b508290049050610685565b808411611da457600080fd5b600084868809600260036001881981018916988990049182028318808302840302808302840302808302840302808302840302808302840302918202909203026000889003889004909101858311909403939093029303949094049190911702949350505050565b8260028101928215611e79579160200282015b82811115611e7957825182547fffffffffffffffffffffffff00000000000000000000000000000000000000001673ffffffffffffffffffffffffffffffffffffffff909116178255602090920191600190910190611e1f565b50611e85929150611e89565b5090565b5b80821115611e855760008155600101611e8a565b73ffffffffffffffffffffffffffffffffffffffff81168114610fba57600080fd5b8015158114610fba57600080fd5b60008060408385031215611ee157600080fd5b8235611eec81611e9e565b91506020830135611efc81611ec0565b809150509250929050565b600060208284031215611f1957600080fd5b5035919050565b60008060408385031215611f3357600080fd5b8235611f3e81611e9e565b91506020830135611efc81611e9e565b600080600060608486031215611f6357600080fd5b833592506020840135611f7581611e9e565b91506040840135611f8581611e9e565b809150509250925092565b600060208284031215611fa257600080fd5b813561068581611e9e565b600080600080600060808688031215611fc557600080fd5b8535611fd081611e9e565b94506020860135611fe081611e9e565b93506040860135611ff081611ec0565b9250606086013567ffffffffffffffff8082111561200d57600080fd5b818801915088601f83011261202157600080fd5b81358181111561203057600080fd5b89602082850101111561204257600080fd5b9699959850939650602001949392505050565b6000806040838503121561206857600080fd5b50508035926020909101359150565b7f4e487b7100000000000000000000000000000000000000000000000000000000600052603260045260246000fd5b6000602082840312156120b857600080fd5b815161068581611e9e565b80516120ce81611e9e565b919050565b805165ffffffffffff811681146120ce57600080fd5b805160ff811681146120ce57600080fd5b80516120ce81611ec0565b600060c0828403121561211757600080fd5b60405160c0810181811067ffffffffffffffff82111715612161577f4e487b7100000000000000000000000000000000000000000000000000000000600052604160045260246000fd5b60405261216d836120c3565b815261217b602084016120d3565b602082015261218c604084016120c3565b604082015261219d606084016120d3565b60608201526121ae608084016120e9565b60808201526121bf60a084016120fa565b60a08201529392505050565b6000602082840312156121dd57600080fd5b610a2a826120e9565b7f4e487b7100000000000000000000000000000000000000000000000000000000600052601160045260246000fd5b600060ff821660ff84168060ff03821115612232576122326121e6565b019392505050565b600181815b8085111561229357817fffffffffffffffffffffffffffffffffffffffffffffffffffffffffffffffff04821115612279576122796121e6565b8085161561228657918102915b93841c939080029061223f565b509250929050565b6000826122aa57506001610a2d565b816122b757506000610a2d565b81600181146122cd57600281146122d7576122f3565b6001915050610a2d565b60ff8411156122e8576122e86121e6565b50506001821b610a2d565b5060208310610133831016604e8410600b8410161715612316575081810a610a2d565b612320838361223a565b807fffffffffffffffffffffffffffffffffffffffffffffffffffffffffffffffff04821115612352576123526121e6565b029392505050565b6000610a2a60ff84168361229b565b600060ff821660ff841680821015612383576123836121e6565b90039392505050565b805169ffffffffffffffffffff811681146120ce57600080fd5b600080600080600060a086880312156123be57600080fd5b6123c78661238c565b94506020860151935060408601519250606086015191506123ea6080870161238c565b90509295509295909350565b600082821015612408576124086121e6565b50039056fea26469706673582212205505c389ba70ebc7fe678e273af39fb18dc4e99345afb4175f8c4022e11a9c7e64736f6c634300080f0033",
    "linkReferences": {}
  },
  "methodIdentifiers": {
    "aggregator()": "245a7bfc",
    "currentPrice(address,address)": "831e81a4",
    "currentPrice(uint256)": "7a3c4c17",
    "decimals(address,address)": "58e2d3a8",
    "decimals(uint256)": "3f47e662",
    "isAuctioneer(address)": "9cd85b5b",
    "markets(uint256,uint256)": "fe11edc9",
    "owner()": "8da5cb5b",
    "priceFeedParams(address,address)": "a1a06034",
    "registerMarket(uint256,address,address)": "5538adb7",
    "renounceOwnership()": "715018a6",
    "setAuctioneer(address,bool)": "34db591c",
    "setPair(address,address,bool,bytes)": "c0918a7d",
    "supportedPairs(address,address)": "461100bb",
    "transferOwnership(address)": "f2fde38b"
  },
  "id": 71
}