{
  "abi": [
    {
      "inputs": [
        {
          "internalType": "contract IBondTeller",
          "name": "teller_",
          "type": "address"
        },
        {
          "internalType": "contract IBondAggregator",
          "name": "aggregator_",
          "type": "address"
        },
        {
          "internalType": "address",
          "name": "guardian_",
          "type": "address"
        },
        {
          "internalType": "contract Authority",
          "name": "authority_",
          "type": "address"
        }
      ],
      "stateMutability": "nonpayable",
      "type": "constructor"
    },
    {
      "inputs": [],
      "name": "Auctioneer_AmountLessThanMinimum",
      "type": "error"
    },
    {
      "inputs": [],
      "name": "Auctioneer_BadExpiry",
      "type": "error"
    },
    {
      "inputs": [],
      "name": "Auctioneer_InvalidCallback",
      "type": "error"
    },
    {
      "inputs": [],
      "name": "Auctioneer_InvalidParams",
      "type": "error"
    },
    {
      "inputs": [],
      "name": "Auctioneer_MarketNotActive",
      "type": "error"
    },
    {
      "inputs": [],
      "name": "Auctioneer_MaxPayoutExceeded",
      "type": "error"
    },
    {
      "inputs": [],
      "name": "Auctioneer_NewMarketsNotAllowed",
      "type": "error"
    },
    {
      "inputs": [],
      "name": "Auctioneer_NotAuthorized",
      "type": "error"
    },
    {
      "inputs": [],
      "name": "Auctioneer_NotEnoughCapacity",
      "type": "error"
    },
    {
      "inputs": [],
      "name": "Auctioneer_OnlyMarketOwner",
      "type": "error"
    },
    {
      "anonymous": false,
      "inputs": [
        {
          "indexed": true,
          "internalType": "address",
          "name": "user",
          "type": "address"
        },
        {
          "indexed": true,
          "internalType": "contract Authority",
          "name": "newAuthority",
          "type": "address"
        }
      ],
      "name": "AuthorityUpdated",
      "type": "event"
    },
    {
      "anonymous": false,
      "inputs": [
        {
          "indexed": true,
          "internalType": "uint256",
          "name": "id",
          "type": "uint256"
        }
      ],
      "name": "MarketClosed",
      "type": "event"
    },
    {
      "anonymous": false,
      "inputs": [
        {
          "indexed": true,
          "internalType": "uint256",
          "name": "id",
          "type": "uint256"
        },
        {
          "indexed": true,
          "internalType": "address",
          "name": "payoutToken",
          "type": "address"
        },
        {
          "indexed": true,
          "internalType": "address",
          "name": "quoteToken",
          "type": "address"
        },
        {
          "indexed": false,
          "internalType": "uint48",
          "name": "vesting",
          "type": "uint48"
        },
        {
          "indexed": false,
          "internalType": "uint256",
          "name": "fixedPrice",
          "type": "uint256"
        }
      ],
      "name": "MarketCreated",
      "type": "event"
    },
    {
      "anonymous": false,
      "inputs": [
        {
          "indexed": true,
          "internalType": "address",
          "name": "user",
          "type": "address"
        },
        {
          "indexed": true,
          "internalType": "address",
          "name": "newOwner",
          "type": "address"
        }
      ],
      "name": "OwnerUpdated",
      "type": "event"
    },
    {
      "inputs": [],
      "name": "allowNewMarkets",
      "outputs": [
        {
          "internalType": "bool",
          "name": "",
          "type": "bool"
        }
      ],
      "stateMutability": "view",
      "type": "function"
    },
    {
      "inputs": [],
      "name": "authority",
      "outputs": [
        {
          "internalType": "contract Authority",
          "name": "",
          "type": "address"
        }
      ],
      "stateMutability": "view",
      "type": "function"
    },
    {
      "inputs": [
        {
          "internalType": "address",
          "name": "",
          "type": "address"
        }
      ],
      "name": "callbackAuthorized",
      "outputs": [
        {
          "internalType": "bool",
          "name": "",
          "type": "bool"
        }
      ],
      "stateMutability": "view",
      "type": "function"
    },
    {
      "inputs": [
        {
          "internalType": "uint256",
          "name": "id_",
          "type": "uint256"
        }
      ],
      "name": "closeMarket",
      "outputs": [],
      "stateMutability": "nonpayable",
      "type": "function"
    },
    {
      "inputs": [
        {
          "internalType": "bytes",
          "name": "params_",
          "type": "bytes"
        }
      ],
      "name": "createMarket",
      "outputs": [
        {
          "internalType": "uint256",
          "name": "",
          "type": "uint256"
        }
      ],
      "stateMutability": "nonpayable",
      "type": "function"
    },
    {
      "inputs": [
        {
          "internalType": "uint256",
          "name": "id_",
          "type": "uint256"
        }
      ],
      "name": "currentCapacity",
      "outputs": [
        {
          "internalType": "uint256",
          "name": "",
          "type": "uint256"
        }
      ],
      "stateMutability": "view",
      "type": "function"
    },
    {
      "inputs": [],
      "name": "getAggregator",
      "outputs": [
        {
          "internalType": "contract IBondAggregator",
          "name": "",
          "type": "address"
        }
      ],
      "stateMutability": "view",
      "type": "function"
    },
    {
      "inputs": [
        {
          "internalType": "uint256",
          "name": "id_",
          "type": "uint256"
        }
      ],
      "name": "getMarketInfoForPurchase",
      "outputs": [
        {
          "internalType": "address",
          "name": "owner",
          "type": "address"
        },
        {
          "internalType": "address",
          "name": "callbackAddr",
          "type": "address"
        },
        {
          "internalType": "contract ERC20",
          "name": "payoutToken",
          "type": "address"
        },
        {
          "internalType": "contract ERC20",
          "name": "quoteToken",
          "type": "address"
        },
        {
          "internalType": "uint48",
          "name": "vesting",
          "type": "uint48"
        },
        {
          "internalType": "uint256",
          "name": "maxPayout_",
          "type": "uint256"
        }
      ],
      "stateMutability": "view",
      "type": "function"
    },
    {
      "inputs": [],
      "name": "getTeller",
      "outputs": [
        {
          "internalType": "contract IBondTeller",
          "name": "",
          "type": "address"
        }
      ],
      "stateMutability": "view",
      "type": "function"
    },
    {
      "inputs": [
        {
          "internalType": "uint256",
          "name": "id_",
          "type": "uint256"
        }
      ],
      "name": "isInstantSwap",
      "outputs": [
        {
          "internalType": "bool",
          "name": "",
          "type": "bool"
        }
      ],
      "stateMutability": "view",
      "type": "function"
    },
    {
      "inputs": [
        {
          "internalType": "uint256",
          "name": "id_",
          "type": "uint256"
        }
      ],
      "name": "isLive",
      "outputs": [
        {
          "internalType": "bool",
          "name": "",
          "type": "bool"
        }
      ],
      "stateMutability": "view",
      "type": "function"
    },
    {
      "inputs": [
        {
          "internalType": "uint256",
          "name": "id_",
          "type": "uint256"
        }
      ],
      "name": "marketPrice",
      "outputs": [
        {
          "internalType": "uint256",
          "name": "",
          "type": "uint256"
        }
      ],
      "stateMutability": "view",
      "type": "function"
    },
    {
      "inputs": [
        {
          "internalType": "uint256",
          "name": "id_",
          "type": "uint256"
        }
      ],
      "name": "marketScale",
      "outputs": [
        {
          "internalType": "uint256",
          "name": "",
          "type": "uint256"
        }
      ],
      "stateMutability": "view",
      "type": "function"
    },
    {
      "inputs": [
        {
          "internalType": "uint256",
          "name": "",
          "type": "uint256"
        }
      ],
      "name": "markets",
      "outputs": [
        {
          "internalType": "address",
          "name": "owner",
          "type": "address"
        },
        {
          "internalType": "contract ERC20",
          "name": "payoutToken",
          "type": "address"
        },
        {
          "internalType": "contract ERC20",
          "name": "quoteToken",
          "type": "address"
        },
        {
          "internalType": "address",
          "name": "callbackAddr",
          "type": "address"
        },
        {
          "internalType": "bool",
          "name": "capacityInQuote",
          "type": "bool"
        },
        {
          "internalType": "uint256",
          "name": "capacity",
          "type": "uint256"
        },
        {
          "internalType": "uint256",
          "name": "maxPayout",
          "type": "uint256"
        },
        {
          "internalType": "uint256",
          "name": "price",
          "type": "uint256"
        },
        {
          "internalType": "uint256",
          "name": "scale",
          "type": "uint256"
        },
        {
          "internalType": "uint256",
          "name": "sold",
          "type": "uint256"
        },
        {
          "internalType": "uint256",
          "name": "purchased",
          "type": "uint256"
        }
      ],
      "stateMutability": "view",
      "type": "function"
    },
    {
      "inputs": [
        {
          "internalType": "uint256",
          "name": "id_",
          "type": "uint256"
        },
        {
          "internalType": "address",
          "name": "referrer_",
          "type": "address"
        }
      ],
      "name": "maxAmountAccepted",
      "outputs": [
        {
          "internalType": "uint256",
          "name": "",
          "type": "uint256"
        }
      ],
      "stateMutability": "view",
      "type": "function"
    },
    {
      "inputs": [
        {
          "internalType": "uint256",
          "name": "id_",
          "type": "uint256"
        }
      ],
      "name": "maxPayout",
      "outputs": [
        {
          "internalType": "uint256",
          "name": "",
          "type": "uint256"
        }
      ],
      "stateMutability": "view",
      "type": "function"
    },
    {
      "inputs": [],
      "name": "minDepositInterval",
      "outputs": [
        {
          "internalType": "uint48",
          "name": "",
          "type": "uint48"
        }
      ],
      "stateMutability": "view",
      "type": "function"
    },
    {
      "inputs": [],
      "name": "minMarketDuration",
      "outputs": [
        {
          "internalType": "uint48",
          "name": "",
          "type": "uint48"
        }
      ],
      "stateMutability": "view",
      "type": "function"
    },
    {
      "inputs": [
        {
          "internalType": "uint256",
          "name": "",
          "type": "uint256"
        }
      ],
      "name": "newOwners",
      "outputs": [
        {
          "internalType": "address",
          "name": "",
          "type": "address"
        }
      ],
      "stateMutability": "view",
      "type": "function"
    },
    {
      "inputs": [],
      "name": "owner",
      "outputs": [
        {
          "internalType": "address",
          "name": "",
          "type": "address"
        }
      ],
      "stateMutability": "view",
      "type": "function"
    },
    {
      "inputs": [
        {
          "internalType": "uint256",
          "name": "id_",
          "type": "uint256"
        }
      ],
      "name": "ownerOf",
      "outputs": [
        {
          "internalType": "address",
          "name": "",
          "type": "address"
        }
      ],
      "stateMutability": "view",
      "type": "function"
    },
    {
      "inputs": [
        {
          "internalType": "uint256",
          "name": "amount_",
          "type": "uint256"
        },
        {
          "internalType": "uint256",
          "name": "id_",
          "type": "uint256"
        },
        {
          "internalType": "address",
          "name": "referrer_",
          "type": "address"
        }
      ],
      "name": "payoutFor",
      "outputs": [
        {
          "internalType": "uint256",
          "name": "",
          "type": "uint256"
        }
      ],
      "stateMutability": "view",
      "type": "function"
    },
    {
      "inputs": [
        {
          "internalType": "uint256",
          "name": "id_",
          "type": "uint256"
        }
      ],
      "name": "pullOwnership",
      "outputs": [],
      "stateMutability": "nonpayable",
      "type": "function"
    },
    {
      "inputs": [
        {
          "internalType": "uint256",
          "name": "id_",
          "type": "uint256"
        },
        {
          "internalType": "uint256",
          "name": "amount_",
          "type": "uint256"
        },
        {
          "internalType": "uint256",
          "name": "minAmountOut_",
          "type": "uint256"
        }
      ],
      "name": "purchaseBond",
      "outputs": [
        {
          "internalType": "uint256",
          "name": "payout",
          "type": "uint256"
        }
      ],
      "stateMutability": "nonpayable",
      "type": "function"
    },
    {
      "inputs": [
        {
          "internalType": "uint256",
          "name": "id_",
          "type": "uint256"
        },
        {
          "internalType": "address",
          "name": "newOwner_",
          "type": "address"
        }
      ],
      "name": "pushOwnership",
      "outputs": [],
      "stateMutability": "nonpayable",
      "type": "function"
    },
    {
      "inputs": [
        {
          "internalType": "bool",
          "name": "status_",
          "type": "bool"
        }
      ],
      "name": "setAllowNewMarkets",
      "outputs": [],
      "stateMutability": "nonpayable",
      "type": "function"
    },
    {
      "inputs": [
        {
          "internalType": "contract Authority",
          "name": "newAuthority",
          "type": "address"
        }
      ],
      "name": "setAuthority",
      "outputs": [],
      "stateMutability": "nonpayable",
      "type": "function"
    },
    {
      "inputs": [
        {
          "internalType": "address",
          "name": "creator_",
          "type": "address"
        },
        {
          "internalType": "bool",
          "name": "status_",
          "type": "bool"
        }
      ],
      "name": "setCallbackAuthStatus",
      "outputs": [],
      "stateMutability": "nonpayable",
      "type": "function"
    },
    {
      "inputs": [
        {
          "internalType": "uint32[6]",
          "name": "defaults_",
          "type": "uint32[6]"
        }
      ],
      "name": "setDefaults",
      "outputs": [],
      "stateMutability": "nonpayable",
      "type": "function"
    },
    {
      "inputs": [
        {
          "internalType": "uint256",
          "name": "id_",
          "type": "uint256"
        },
        {
          "internalType": "uint32[3]",
          "name": "intervals_",
          "type": "uint32[3]"
        }
      ],
      "name": "setIntervals",
      "outputs": [],
      "stateMutability": "nonpayable",
      "type": "function"
    },
    {
      "inputs": [
        {
          "internalType": "uint48",
          "name": "depositInterval_",
          "type": "uint48"
        }
      ],
      "name": "setMinDepositInterval",
      "outputs": [],
      "stateMutability": "nonpayable",
      "type": "function"
    },
    {
      "inputs": [
        {
          "internalType": "uint48",
          "name": "duration_",
          "type": "uint48"
        }
      ],
      "name": "setMinMarketDuration",
      "outputs": [],
      "stateMutability": "nonpayable",
      "type": "function"
    },
    {
      "inputs": [
        {
          "internalType": "address",
          "name": "newOwner",
          "type": "address"
        }
      ],
      "name": "setOwner",
      "outputs": [],
      "stateMutability": "nonpayable",
      "type": "function"
    },
    {
      "inputs": [
        {
          "internalType": "uint256",
          "name": "",
          "type": "uint256"
        }
      ],
      "name": "terms",
      "outputs": [
        {
          "internalType": "uint48",
          "name": "start",
          "type": "uint48"
        },
        {
          "internalType": "uint48",
          "name": "conclusion",
          "type": "uint48"
        },
        {
          "internalType": "uint48",
          "name": "vesting",
          "type": "uint48"
        }
      ],
      "stateMutability": "view",
      "type": "function"
    }
  ],
  "bytecode": {
    "object": "0x60c06040523480156200001157600080fd5b5060405162002d9d38038062002d9d833981016040819052620000349162000125565b600080546001600160a01b03199081166001600160a01b0385811691821784556001805490931690851617909155604051869286928692869284928492909133917f8292fce18fa69edf4db7b94ea2e58241df0ae57f97e0a6c9b29067028bf92d769190a36040516001600160a01b0382169033907fa3396fd7f6e0a21b50e5089d2da70d5ac0a3bbbd1f617a93f134b7638998019890600090a3505050506001600160a01b039081166080521660a0525050600580546001600160681b03191669015180000000000e1001179055506200018d9050565b6001600160a01b03811681146200012257600080fd5b50565b600080600080608085870312156200013c57600080fd5b845162000149816200010c565b60208601519094506200015c816200010c565b60408601519093506200016f816200010c565b606086015190925062000182816200010c565b939692955090935050565b60805160a051612bc7620001d66000396000818161046e01528181610c2c015281816114260152818161169f01526117520152600081816102ae01526120d30152612bc76000f3fe608060405234801561001057600080fd5b50600436106102265760003560e01c8063946824cd1161012a578063bd1f3a5e116100bd578063c7bf8ca01161008c578063d2bee32311610071578063d2bee3231461073f578063e007fa971461075c578063f61338f61461076f57600080fd5b8063c7bf8ca0146106fe578063d20406871461071157600080fd5b8063bd1f3a5e14610647578063bf48582b14610658578063bf7e214f1461066b578063c0aa0e8a1461068b57600080fd5b8063afa9d3b0116100f9578063afa9d3b01461050e578063b1283e771461051b578063bbbdd95a14610621578063bcf6cde81461063457600080fd5b8063946824cd146104495780639787d1071461046c578063acc5570c14610492578063ae418095146104fb57600080fd5b806357e333ba116101bd5780636729a41e1161018c5780637a9e5e4b116101715780637a9e5e4b146104035780638b098db3146104165780638da5cb5b1461042957600080fd5b80636729a41e146103bb578063699e17d9146103f157600080fd5b806357e333ba1461033c5780635dc4d16b1461034f5780635f77274e146103725780636352211e1461038557600080fd5b80633ad59dbc116101f95780633ad59dbc146102ac5780633adec5a7146102f357806344ee01721461031657806353c7f8e01461032957600080fd5b806310b053171461022b57806313af4035146102405780631c063a6c146102535780632750745814610289575b600080fd5b61023e6102393660046125f2565b610782565b005b61023e61024e36600461263d565b61083d565b6102766102613660046125f2565b60009081526002602052604090206004015490565b6040519081526020015b60405180910390f35b61029c6102973660046125f2565b610946565b6040519015158152602001610280565b7f00000000000000000000000000000000000000000000000000000000000000005b60405173ffffffffffffffffffffffffffffffffffffffff9091168152602001610280565b6102766103013660046125f2565b60009081526002602052604090206006015490565b61023e610324366004612679565b6109b3565b610276610337366004612696565b610aed565b61027661034a3660046125f2565b610cd7565b61029c61035d36600461263d565b60066020526000908152604090205460ff1681565b61023e610380366004612721565b610de5565b6102ce6103933660046125f2565b60009081526002602052604090205473ffffffffffffffffffffffffffffffffffffffff1690565b6102ce6103c93660046125f2565b60046020526000908152604090205473ffffffffffffffffffffffffffffffffffffffff1681565b61023e6103ff36600461273e565b5050565b61023e61041136600461263d565b610eaa565b61029c6104243660046125f2565b611007565b6000546102ce9073ffffffffffffffffffffffffffffffffffffffff1681565b6102766104573660046125f2565b60009081526002602052604090206007015490565b7f00000000000000000000000000000000000000000000000000000000000000006102ce565b6104a56104a03660046125f2565b61104d565b6040805173ffffffffffffffffffffffffffffffffffffffff97881681529587166020870152938616938501939093529316606083015265ffffffffffff909216608082015260a081019190915260c001610280565b61023e6105093660046125f2565b611160565b60055461029c9060ff1681565b6105ad6105293660046125f2565b6002602081905260009182526040909120805460018201549282015460038301546004840154600585015460068601546007870154600888015460099098015473ffffffffffffffffffffffffffffffffffffffff97881699881698968816978616967401000000000000000000000000000000000000000090960460ff1695908b565b6040805173ffffffffffffffffffffffffffffffffffffffff9c8d1681529a8c1660208c0152988b16988a0198909852989095166060880152921515608087015260a086019190915260c085015260e084015261010083015261012082019290925261014081019190915261016001610280565b61023e61062f366004612771565b61123e565b61023e6106423660046127aa565b611328565b61023e610655366004612828565b50565b6102766106663660046128b9565b6113d8565b6001546102ce9073ffffffffffffffffffffffffffffffffffffffff1681565b6106d56106993660046125f2565b60036020526000908152604090205465ffffffffffff80821691660100000000000081048216916c010000000000000000000000009091041683565b6040805165ffffffffffff94851681529284166020840152921691810191909152606001610280565b61027661070c3660046127aa565b611527565b60055461072890610100900465ffffffffffff1681565b60405165ffffffffffff9091168152602001610280565b60055461072890670100000000000000900465ffffffffffff1681565b61027661076a3660046128f2565b611738565b61023e61077d366004612679565b6119fe565b60008181526004602052604090205473ffffffffffffffffffffffffffffffffffffffff1633146107df576040517f2c47703200000000000000000000000000000000000000000000000000000000815260040160405180910390fd5b600090815260046020908152604080832054600290925290912080547fffffffffffffffffffffffff00000000000000000000000000000000000000001673ffffffffffffffffffffffffffffffffffffffff909216919091179055565b61086b336000357fffffffff0000000000000000000000000000000000000000000000000000000016611b37565b6108d6576040517f08c379a000000000000000000000000000000000000000000000000000000000815260206004820152600c60248201527f554e415554484f52495a4544000000000000000000000000000000000000000060448201526064015b60405180910390fd5b600080547fffffffffffffffffffffffff00000000000000000000000000000000000000001673ffffffffffffffffffffffffffffffffffffffff83169081178255604051909133917f8292fce18fa69edf4db7b94ea2e58241df0ae57f97e0a6c9b29067028bf92d769190a350565b60008181526002602052604081206004015415801590610988575060008281526003602052604090205465ffffffffffff428116660100000000000090920416115b80156109ad575060008281526003602052604090205465ffffffffffff428116911611155b92915050565b6109e1336000357fffffffff0000000000000000000000000000000000000000000000000000000016611b37565b610a47576040517f08c379a000000000000000000000000000000000000000000000000000000000815260206004820152600c60248201527f554e415554484f52495a4544000000000000000000000000000000000000000060448201526064016108cd565b60055465ffffffffffff61010090910481169082161080610a725750620151808165ffffffffffff16105b15610aa9576040517f3b596f5f00000000000000000000000000000000000000000000000000000000815260040160405180910390fd5b6005805465ffffffffffff909216670100000000000000027fffffffffffffffffffffffffffffffffffffff000000000000ffffffffffffff909216919091179055565b600080610afc83850185612930565b9050620151808160e00151610b119190612a2b565b610b1e9062015180612a77565b65ffffffffffff90811660e08301526101008201516000911615610b4757816101000151610b49565b425b9050600082610120015182610b5e9190612aa5565b90508260e0015165ffffffffffff16600014158015610b9057508065ffffffffffff168360e0015165ffffffffffff16105b15610bc7576040517f3b596f5f00000000000000000000000000000000000000000000000000000000815260040160405180910390fd5b6000610bd284611c48565b90508360e0015165ffffffffffff16600014610ccd57835160e08501516040517fc6e38a4b00000000000000000000000000000000000000000000000000000000815273ffffffffffffffffffffffffffffffffffffffff7f0000000000000000000000000000000000000000000000000000000000000000169263c6e38a4b92610c889260040173ffffffffffffffffffffffffffffffffffffffff92909216825265ffffffffffff16602082015260400190565b6020604051808303816000875af1158015610ca7573d6000803e3d6000fd5b505050506040513d601f19601f82011682018060405250810190610ccb9190612acf565b505b9695505050505050565b60008181526002602081815260408084206006810154825161016081018452825473ffffffffffffffffffffffffffffffffffffffff9081168252600184015481169582019590955294820154841692850192909252600381015492831660608501527401000000000000000000000000000000000000000090920460ff16151560808401819052600483015460a0850152600583015460c085015260e084018290526007830154610100850152600883015461012085015260099092015461014084015291908390610dae578160a00151610dc3565b61010082015160a0830151610dc39185612526565b9050808260c0015111610dda578160c00151610ddc565b805b95945050505050565b610e13336000357fffffffff0000000000000000000000000000000000000000000000000000000016611b37565b610e79576040517f08c379a000000000000000000000000000000000000000000000000000000000815260206004820152600c60248201527f554e415554484f52495a4544000000000000000000000000000000000000000060448201526064016108cd565b600580547fffffffffffffffffffffffffffffffffffffffffffffffffffffffffffffff0016911515919091179055565b60005473ffffffffffffffffffffffffffffffffffffffff16331480610f8d57506001546040517fb70096130000000000000000000000000000000000000000000000000000000081523360048201523060248201526000357fffffffff0000000000000000000000000000000000000000000000000000000016604482015273ffffffffffffffffffffffffffffffffffffffff9091169063b700961390606401602060405180830381865afa158015610f69573d6000803e3d6000fd5b505050506040513d601f19601f82011682018060405250810190610f8d9190612aec565b610f9657600080fd5b600180547fffffffffffffffffffffffff00000000000000000000000000000000000000001673ffffffffffffffffffffffffffffffffffffffff831690811790915560405133907fa3396fd7f6e0a21b50e5089d2da70d5ac0a3bbbd1f617a93f134b7638998019890600090a350565b6000818152600360205260408120546c01000000000000000000000000900465ffffffffffff16635dba24008111156110435742811115611046565b80155b9392505050565b6000818152600260208181526040808420815161016081018352815473ffffffffffffffffffffffffffffffffffffffff90811680835260018401548216838701819052968401548216838601819052600380860154938416606086018190527401000000000000000000000000000000000000000090940460ff1615156080860152600486015460a0860152600586015460c0860152600686015460e08601526007860154610100860152600886015461012086015260099095015461014085015289895293909552928620548695869586958695869594929391926c01000000000000000000000000900465ffffffffffff1661114b8d610cd7565b949d939c50919a509850965090945092505050565b60008181526002602052604090205473ffffffffffffffffffffffffffffffffffffffff1633146111bd576040517f4e1c8b5d00000000000000000000000000000000000000000000000000000000815260040160405180910390fd5b600081815260036020908152604080832080547fffffffffffffffffffffffffffffffffffffffff000000000000ffffffffffff1666010000000000004265ffffffffffff160217905560029091528082206004018290555182917f9dc30b8eda31a6a144e092e5de600955523a6a925cc15cc1d1b9b4872cfa615591a250565b61126c336000357fffffffff0000000000000000000000000000000000000000000000000000000016611b37565b6112d2576040517f08c379a000000000000000000000000000000000000000000000000000000000815260206004820152600c60248201527f554e415554484f52495a4544000000000000000000000000000000000000000060448201526064016108cd565b73ffffffffffffffffffffffffffffffffffffffff91909116600090815260066020526040902080547fffffffffffffffffffffffffffffffffffffffffffffffffffffffffffffff0016911515919091179055565b60008281526002602052604090205473ffffffffffffffffffffffffffffffffffffffff163314611385576040517f4e1c8b5d00000000000000000000000000000000000000000000000000000000815260040160405180910390fd5b60009182526004602052604090912080547fffffffffffffffffffffffff00000000000000000000000000000000000000001673ffffffffffffffffffffffffffffffffffffffff909216919091179055565b6040517fb88c914800000000000000000000000000000000000000000000000000000000815273ffffffffffffffffffffffffffffffffffffffff828116600483015260009182916114a6917f00000000000000000000000000000000000000000000000000000000000000009091169063b88c914890602401602060405180830381865afa15801561146f573d6000803e3d6000fd5b505050506040513d601f19601f820116820180604052508101906114939190612b09565b869065ffffffffffff16620186a0612526565b6000858152600260205260408120600781015460069091015492935090916114da91906114d3858a612b26565b9190612526565b90506114e585610cd7565b81111561151e576040517f5c430eae00000000000000000000000000000000000000000000000000000000815260040160405180910390fd5b91506110469050565b6000828152600260208181526040808420815161016081018352815473ffffffffffffffffffffffffffffffffffffffff9081168252600183015481168286015282860154811693820193909352600382015492831660608201527401000000000000000000000000000000000000000090920460ff1615156080830152600481015460a0830152600581015460c0830152600681015460e08301819052600782015461010084015260088201546101208401526009909101546101408301528685529290915290600082608001516116155761010083015160a0840151611610918490612526565b61161b565b8260a001515b9050600061163d838561010001518660c001516125269092919063ffffffff16565b9050600081831061164e5781611650565b825b6040517fb88c914800000000000000000000000000000000000000000000000000000000815273ffffffffffffffffffffffffffffffffffffffff898116600483015291925060009161171f917f00000000000000000000000000000000000000000000000000000000000000009091169063b88c914890602401602060405180830381865afa1580156116e8573d6000803e3d6000fd5b505050506040513d601f19601f8201168201806040525081019061170c9190612b09565b839065ffffffffffff16620186a0612526565b905061172b8183612b3d565b9998505050505050505050565b60003373ffffffffffffffffffffffffffffffffffffffff7f000000000000000000000000000000000000000000000000000000000000000016146117a9576040517f2c47703200000000000000000000000000000000000000000000000000000000815260040160405180910390fd5b6000848152600260205260409020600381015473ffffffffffffffffffffffffffffffffffffffff16158015906118075750805473ffffffffffffffffffffffffffffffffffffffff1660009081526006602052604090205460ff16155b1561183e576040517f2c47703200000000000000000000000000000000000000000000000000000000815260040160405180910390fd5b61184785610946565b61187d576040517fa24c407400000000000000000000000000000000000000000000000000000000815260040160405180910390fd5b60078101546006820154611892918691612526565b9150828210156118ce576040517f74ec9d5b00000000000000000000000000000000000000000000000000000000815260040160405180910390fd5b806005015482111561190c576040517f5c430eae00000000000000000000000000000000000000000000000000000000815260040160405180910390fd5b600381015474010000000000000000000000000000000000000000900460ff1661193c5780600401548211611944565b806004015484115b1561197b576040517ff3383dc900000000000000000000000000000000000000000000000000000000815260040160405180910390fd5b600381015474010000000000000000000000000000000000000000900460ff166119a557816119a7565b835b8160040160008282546119ba9190612b26565b92505081905550838160090160008282546119d59190612b3d565b92505081905550818160080160008282546119f09190612b3d565b909155509195945050505050565b611a2c336000357fffffffff0000000000000000000000000000000000000000000000000000000016611b37565b611a92576040517f08c379a000000000000000000000000000000000000000000000000000000000815260206004820152600c60248201527f554e415554484f52495a4544000000000000000000000000000000000000000060448201526064016108cd565b60055465ffffffffffff67010000000000000090910481169082161180611ac25750610e108165ffffffffffff16105b15611af9576040517f3b596f5f00000000000000000000000000000000000000000000000000000000815260040160405180910390fd5b6005805465ffffffffffff909216610100027fffffffffffffffffffffffffffffffffffffffffffffffffff000000000000ff909216919091179055565b60015460009073ffffffffffffffffffffffffffffffffffffffff168015801590611c1b57506040517fb700961300000000000000000000000000000000000000000000000000000000815273ffffffffffffffffffffffffffffffffffffffff85811660048301523060248301527fffffffff000000000000000000000000000000000000000000000000000000008516604483015282169063b700961390606401602060405180830381865afa158015611bf7573d6000803e3d6000fd5b505050506040513d601f19601f82011682018060405250810190611c1b9190612aec565b80611c40575060005473ffffffffffffffffffffffffffffffffffffffff8581169116145b949350505050565b60055460009060ff16611c87576040517f64be3ffa00000000000000000000000000000000000000000000000000000000815260040160405180910390fd5b6000826000015173ffffffffffffffffffffffffffffffffffffffff1663313ce5676040518163ffffffff1660e01b8152600401602060405180830381865afa158015611cd8573d6000803e3d6000fd5b505050506040513d601f19601f82011682018060405250810190611cfc9190612b55565b90506000836020015173ffffffffffffffffffffffffffffffffffffffff1663313ce5676040518163ffffffff1660e01b8152600401602060405180830381865afa158015611d4f573d6000803e3d6000fd5b505050506040513d601f19601f82011682018060405250810190611d739190612b55565b905060068260ff161080611d8a575060128260ff16115b15611dc1576040517f3b596f5f00000000000000000000000000000000000000000000000000000000815260040160405180910390fd5b60068160ff161080611dd6575060128160ff16115b15611e0d576040517f3b596f5f00000000000000000000000000000000000000000000000000000000815260040160405180910390fd5b7fffffffffffffffffffffffffffffffffffffffffffffffffffffffffffffffe884610140015160000b1280611e4b5750601884610140015160000b135b15611e82576040517f3b596f5f00000000000000000000000000000000000000000000000000000000815260040160405180910390fd5b3360009081526006602052604090205460ff16158015611ebb5750604084015173ffffffffffffffffffffffffffffffffffffffff1615155b15611ef2576040517f2c47703200000000000000000000000000000000000000000000000000000000815260040160405180910390fd5b600084610100015165ffffffffffff16118015611f1b57504284610100015165ffffffffffff16105b15611f52576040517f3b596f5f00000000000000000000000000000000000000000000000000000000815260040160405180910390fd5b5050600082610140015160240160ff16600a0a90508260a00151600003611fa5576040517f3b596f5f00000000000000000000000000000000000000000000000000000000815260040160405180910390fd5b60055461012084015165ffffffffffff670100000000000000909204821691161080611fe7575060055460c084015165ffffffffffff61010090920482169116105b8061200a575082610120015165ffffffffffff168360c0015165ffffffffffff16115b15612041576040517f3b596f5f00000000000000000000000000000000000000000000000000000000815260040160405180910390fd5b60006120898460c0015165ffffffffffff1685610120015165ffffffffffff1686606001516120745786608001516114d3565b60a087015160808801516114d3918790612526565b845160208601516040517fb435914300000000000000000000000000000000000000000000000000000000815292935060009273ffffffffffffffffffffffffffffffffffffffff7f0000000000000000000000000000000000000000000000000000000000000000169263b4359143926121289260040173ffffffffffffffffffffffffffffffffffffffff92831681529116602082015260400190565b6020604051808303816000875af1158015612147573d6000803e3d6000fd5b505050506040513d601f19601f8201168201806040525081019061216b9190612b78565b90506040518061016001604052803373ffffffffffffffffffffffffffffffffffffffff168152602001866000015173ffffffffffffffffffffffffffffffffffffffff168152602001866020015173ffffffffffffffffffffffffffffffffffffffff168152602001866040015173ffffffffffffffffffffffffffffffffffffffff168152602001866060015115158152602001866080015181526020018381526020018660a0015181526020018481526020016000815260200160008152506002600083815260200190815260200160002060008201518160000160006101000a81548173ffffffffffffffffffffffffffffffffffffffff021916908373ffffffffffffffffffffffffffffffffffffffff16021790555060208201518160010160006101000a81548173ffffffffffffffffffffffffffffffffffffffff021916908373ffffffffffffffffffffffffffffffffffffffff16021790555060408201518160020160006101000a81548173ffffffffffffffffffffffffffffffffffffffff021916908373ffffffffffffffffffffffffffffffffffffffff16021790555060608201518160030160006101000a81548173ffffffffffffffffffffffffffffffffffffffff021916908373ffffffffffffffffffffffffffffffffffffffff16021790555060808201518160030160146101000a81548160ff02191690831515021790555060a0820151816004015560c0820151816005015560e08201518160060155610100820151816007015561012082015181600801556101408201518160090155905050600085610100015165ffffffffffff166000146123e0578561010001516123e2565b425b905060405180606001604052808265ffffffffffff1681526020018761012001518361240e9190612aa5565b65ffffffffffff908116825260e089018051821660209384015260008681526003845260409081902085518154878701519784015186166c01000000000000000000000000027fffffffffffffffffffffffffffff000000000000ffffffffffffffffffffffff9887166601000000000000027fffffffffffffffffffffffffffffffffffffffff00000000000000000000000090921692871692909217179690961695909517909455828a01518a51915160a08c015186519190941681529384019290925273ffffffffffffffffffffffffffffffffffffffff9182169391169185917f8235b14cd272b4e791960fe1118559bb7fed86934fcffeeae9b1175103b0756d910160405180910390a450949350505050565b600080807fffffffffffffffffffffffffffffffffffffffffffffffffffffffffffffffff8587098587029250828110838203039150508060000361257d576000841161257257600080fd5b508290049050611046565b80841161258957600080fd5b60008486880960026001871981018816978890046003810283188082028403028082028403028082028403028082028403028082028403029081029092039091026000889003889004909101858311909403939093029303949094049190911702949350505050565b60006020828403121561260457600080fd5b5035919050565b73ffffffffffffffffffffffffffffffffffffffff8116811461065557600080fd5b80356126388161260b565b919050565b60006020828403121561264f57600080fd5b81356110468161260b565b65ffffffffffff8116811461065557600080fd5b80356126388161265a565b60006020828403121561268b57600080fd5b81356110468161265a565b600080602083850312156126a957600080fd5b823567ffffffffffffffff808211156126c157600080fd5b818501915085601f8301126126d557600080fd5b8135818111156126e457600080fd5b8660208285010111156126f657600080fd5b60209290920196919550909350505050565b801515811461065557600080fd5b803561263881612708565b60006020828403121561273357600080fd5b813561104681612708565b6000806080838503121561275157600080fd5b823591508360808401111561276557600080fd5b50926020919091019150565b6000806040838503121561278457600080fd5b823561278f8161260b565b9150602083013561279f81612708565b809150509250929050565b600080604083850312156127bd57600080fd5b82359150602083013561279f8161260b565b7f4e487b7100000000000000000000000000000000000000000000000000000000600052604160045260246000fd5b604051610160810167ffffffffffffffff81118282101715612822576128226127cf565b60405290565b600060c0828403121561283a57600080fd5b82601f83011261284957600080fd5b60405160c0810181811067ffffffffffffffff8211171561286c5761286c6127cf565b6040528060c084018581111561288157600080fd5b845b818110156128ae57803563ffffffff811681146128a05760008081fd5b835260209283019201612883565b509195945050505050565b6000806000606084860312156128ce57600080fd5b833592506020840135915060408401356128e78161260b565b809150509250925092565b60008060006060848603121561290757600080fd5b505081359360208301359350604090920135919050565b8035600081900b811461263857600080fd5b6000610160828403121561294357600080fd5b61294b6127fe565b6129548361262d565b81526129626020840161262d565b60208201526129736040840161262d565b604082015261298460608401612716565b60608201526080830135608082015260a083013560a08201526129a960c0840161266e565b60c08201526129ba60e0840161266e565b60e08201526101006129cd81850161266e565b908201526101206129df84820161266e565b908201526101406129f184820161291e565b908201529392505050565b7f4e487b7100000000000000000000000000000000000000000000000000000000600052601160045260246000fd5b600065ffffffffffff80841680612a6b577f4e487b7100000000000000000000000000000000000000000000000000000000600052601260045260246000fd5b92169190910492915050565b600065ffffffffffff80831681851681830481118215151615612a9c57612a9c6129fc565b02949350505050565b600065ffffffffffff808316818516808303821115612ac657612ac66129fc565b01949350505050565b600060208284031215612ae157600080fd5b81516110468161260b565b600060208284031215612afe57600080fd5b815161104681612708565b600060208284031215612b1b57600080fd5b81516110468161265a565b600082821015612b3857612b386129fc565b500390565b60008219821115612b5057612b506129fc565b500190565b600060208284031215612b6757600080fd5b815160ff8116811461104657600080fd5b600060208284031215612b8a57600080fd5b505191905056fea2646970667358221220dbd43284e3a22d72216cad22531404d99e6311480c642d7c589399661c55e9cc64736f6c634300080f0033",
    "linkReferences": {}
  },
  "methodIdentifiers": {
    "allowNewMarkets()": "afa9d3b0",
    "authority()": "bf7e214f",
    "callbackAuthorized(address)": "5dc4d16b",
    "closeMarket(uint256)": "ae418095",
    "createMarket(bytes)": "53c7f8e0",
    "currentCapacity(uint256)": "1c063a6c",
    "getAggregator()": "3ad59dbc",
    "getMarketInfoForPurchase(uint256)": "acc5570c",
    "getTeller()": "9787d107",
    "isInstantSwap(uint256)": "8b098db3",
    "isLive(uint256)": "27507458",
    "marketPrice(uint256)": "3adec5a7",
    "marketScale(uint256)": "946824cd",
    "markets(uint256)": "b1283e77",
    "maxAmountAccepted(uint256,address)": "c7bf8ca0",
    "maxPayout(uint256)": "57e333ba",
    "minDepositInterval()": "d2040687",
    "minMarketDuration()": "d2bee323",
    "newOwners(uint256)": "6729a41e",
    "owner()": "8da5cb5b",
    "ownerOf(uint256)": "6352211e",
    "payoutFor(uint256,uint256,address)": "bf48582b",
    "pullOwnership(uint256)": "10b05317",
    "purchaseBond(uint256,uint256,uint256)": "e007fa97",
    "pushOwnership(uint256,address)": "bcf6cde8",
    "setAllowNewMarkets(bool)": "5f77274e",
    "setAuthority(address)": "7a9e5e4b",
    "setCallbackAuthStatus(address,bool)": "bbbdd95a",
    "setDefaults(uint32[6])": "bd1f3a5e",
    "setIntervals(uint256,uint32[3])": "699e17d9",
    "setMinDepositInterval(uint48)": "f61338f6",
    "setMinMarketDuration(uint48)": "44ee0172",
    "setOwner(address)": "13af4035",
    "terms(uint256)": "c0aa0e8a"
  },
  "id": 30
}