{
  "abi": [
    {
      "inputs": [
        {
          "internalType": "string",
          "name": "_name",
          "type": "string"
        },
        {
          "internalType": "string",
          "name": "_symbol",
          "type": "string"
        },
        {
          "internalType": "uint8",
          "name": "_decimals",
          "type": "uint8"
        }
      ],
      "stateMutability": "nonpayable",
      "type": "constructor"
    },
    {
      "anonymous": false,
      "inputs": [
        {
          "indexed": true,
          "internalType": "address",
          "name": "owner",
          "type": "address"
        },
        {
          "indexed": true,
          "internalType": "address",
          "name": "spender",
          "type": "address"
        },
        {
          "indexed": false,
          "internalType": "uint256",
          "name": "amount",
          "type": "uint256"
        }
      ],
      "name": "Approval",
      "type": "event"
    },
    {
      "anonymous": false,
      "inputs": [
        {
          "indexed": true,
          "internalType": "address",
          "name": "from",
          "type": "address"
        },
        {
          "indexed": true,
          "internalType": "address",
          "name": "to",
          "type": "address"
        },
        {
          "indexed": false,
          "internalType": "uint256",
          "name": "amount",
          "type": "uint256"
        }
      ],
      "name": "Transfer",
      "type": "event"
    },
    {
      "inputs": [],
      "name": "DOMAIN_SEPARATOR",
      "outputs": [
        {
          "internalType": "bytes32",
          "name": "",
          "type": "bytes32"
        }
      ],
      "stateMutability": "view",
      "type": "function"
    },
    {
      "inputs": [],
      "name": "PERMIT_TYPEHASH",
      "outputs": [
        {
          "internalType": "bytes32",
          "name": "",
          "type": "bytes32"
        }
      ],
      "stateMutability": "view",
      "type": "function"
    },
    {
      "inputs": [
        {
          "internalType": "address",
          "name": "",
          "type": "address"
        },
        {
          "internalType": "address",
          "name": "",
          "type": "address"
        }
      ],
      "name": "allowance",
      "outputs": [
        {
          "internalType": "uint256",
          "name": "",
          "type": "uint256"
        }
      ],
      "stateMutability": "view",
      "type": "function"
    },
    {
      "inputs": [
        {
          "internalType": "address",
          "name": "spender",
          "type": "address"
        },
        {
          "internalType": "uint256",
          "name": "amount",
          "type": "uint256"
        }
      ],
      "name": "approve",
      "outputs": [
        {
          "internalType": "bool",
          "name": "",
          "type": "bool"
        }
      ],
      "stateMutability": "nonpayable",
      "type": "function"
    },
    {
      "inputs": [
        {
          "internalType": "address",
          "name": "",
          "type": "address"
        }
      ],
      "name": "balanceOf",
      "outputs": [
        {
          "internalType": "uint256",
          "name": "",
          "type": "uint256"
        }
      ],
      "stateMutability": "view",
      "type": "function"
    },
    {
      "inputs": [],
      "name": "decimals",
      "outputs": [
        {
          "internalType": "uint8",
          "name": "",
          "type": "uint8"
        }
      ],
      "stateMutability": "view",
      "type": "function"
    },
    {
      "inputs": [
        {
          "internalType": "address",
          "name": "spender",
          "type": "address"
        },
        {
          "internalType": "uint256",
          "name": "decreaseAmount",
          "type": "uint256"
        }
      ],
      "name": "decreaseAllowance",
      "outputs": [],
      "stateMutability": "nonpayable",
      "type": "function"
    },
    {
      "inputs": [
        {
          "internalType": "address",
          "name": "spender",
          "type": "address"
        },
        {
          "internalType": "uint256",
          "name": "increaseAmount",
          "type": "uint256"
        }
      ],
      "name": "increaseAllowance",
      "outputs": [],
      "stateMutability": "nonpayable",
      "type": "function"
    },
    {
      "inputs": [
        {
          "internalType": "address",
          "name": "to",
          "type": "address"
        },
        {
          "internalType": "uint256",
          "name": "value",
          "type": "uint256"
        }
      ],
      "name": "mint",
      "outputs": [],
      "stateMutability": "nonpayable",
      "type": "function"
    },
    {
      "inputs": [],
      "name": "name",
      "outputs": [
        {
          "internalType": "string",
          "name": "",
          "type": "string"
        }
      ],
      "stateMutability": "view",
      "type": "function"
    },
    {
      "inputs": [
        {
          "internalType": "address",
          "name": "",
          "type": "address"
        }
      ],
      "name": "nonces",
      "outputs": [
        {
          "internalType": "uint256",
          "name": "",
          "type": "uint256"
        }
      ],
      "stateMutability": "view",
      "type": "function"
    },
    {
      "inputs": [
        {
          "internalType": "address",
          "name": "owner",
          "type": "address"
        },
        {
          "internalType": "address",
          "name": "spender",
          "type": "address"
        },
        {
          "internalType": "uint256",
          "name": "value",
          "type": "uint256"
        },
        {
          "internalType": "uint256",
          "name": "deadline",
          "type": "uint256"
        },
        {
          "internalType": "uint8",
          "name": "v",
          "type": "uint8"
        },
        {
          "internalType": "bytes32",
          "name": "r",
          "type": "bytes32"
        },
        {
          "internalType": "bytes32",
          "name": "s",
          "type": "bytes32"
        }
      ],
      "name": "permit",
      "outputs": [],
      "stateMutability": "nonpayable",
      "type": "function"
    },
    {
      "inputs": [],
      "name": "symbol",
      "outputs": [
        {
          "internalType": "string",
          "name": "",
          "type": "string"
        }
      ],
      "stateMutability": "view",
      "type": "function"
    },
    {
      "inputs": [],
      "name": "totalSupply",
      "outputs": [
        {
          "internalType": "uint256",
          "name": "",
          "type": "uint256"
        }
      ],
      "stateMutability": "view",
      "type": "function"
    },
    {
      "inputs": [
        {
          "internalType": "address",
          "name": "to",
          "type": "address"
        },
        {
          "internalType": "uint256",
          "name": "amount",
          "type": "uint256"
        }
      ],
      "name": "transfer",
      "outputs": [
        {
          "internalType": "bool",
          "name": "",
          "type": "bool"
        }
      ],
      "stateMutability": "nonpayable",
      "type": "function"
    },
    {
      "inputs": [
        {
          "internalType": "address",
          "name": "from",
          "type": "address"
        },
        {
          "internalType": "address",
          "name": "to",
          "type": "address"
        },
        {
          "internalType": "uint256",
          "name": "amount",
          "type": "uint256"
        }
      ],
      "name": "transferFrom",
      "outputs": [
        {
          "internalType": "bool",
          "name": "",
          "type": "bool"
        }
      ],
      "stateMutability": "nonpayable",
      "type": "function"
    }
  ],
  "bytecode": {
    "object": "0x60e06040523480156200001157600080fd5b5060405162001376380380620013768339810160408190526200003491620001e3565b8282826000620000458482620002f7565b506001620000548382620002f7565b5060ff81166080524660a0526200006a6200007a565b60c0525062000441945050505050565b60007f8b73c3c69bb8fe3d512ecc4cf759cc79239f7b179b0ffacaa9a75d522b39400f6000604051620000ae9190620003c3565b6040805191829003822060208301939093528101919091527fc89efdaa54c0f20c7adf612882df0950f5a951637e0307cdcb4c672f298b8bc660608201524660808201523060a082015260c00160405160208183030381529060405280519060200120905090565b634e487b7160e01b600052604160045260246000fd5b600082601f8301126200013e57600080fd5b81516001600160401b03808211156200015b576200015b62000116565b604051601f8301601f19908116603f0116810190828211818310171562000186576200018662000116565b81604052838152602092508683858801011115620001a357600080fd5b600091505b83821015620001c75785820183015181830184015290820190620001a8565b83821115620001d95760008385830101525b9695505050505050565b600080600060608486031215620001f957600080fd5b83516001600160401b03808211156200021157600080fd5b6200021f878388016200012c565b945060208601519150808211156200023657600080fd5b5062000245868287016200012c565b925050604084015160ff811681146200025d57600080fd5b809150509250925092565b600181811c908216806200027d57607f821691505b6020821081036200029e57634e487b7160e01b600052602260045260246000fd5b50919050565b601f821115620002f257600081815260208120601f850160051c81016020861015620002cd5750805b601f850160051c820191505b81811015620002ee57828155600101620002d9565b5050505b505050565b81516001600160401b0381111562000313576200031362000116565b6200032b8162000324845462000268565b84620002a4565b602080601f8311600181146200036357600084156200034a5750858301515b600019600386901b1c1916600185901b178555620002ee565b600085815260208120601f198616915b82811015620003945788860151825594840194600190910190840162000373565b5085821015620003b35787850151600019600388901b60f8161c191681555b5050505050600190811b01905550565b6000808354620003d38162000268565b60018281168015620003ee5760018114620004045762000435565b60ff198416875282151583028701945062000435565b8760005260208060002060005b858110156200042c5781548a82015290840190820162000411565b50505082870194505b50929695505050505050565b60805160a05160c051610f05620004716000396000610530015260006104fb0152600061019c0152610f056000f3fe608060405234801561001057600080fd5b50600436106101005760003560e01c806340c10f1911610097578063a457c2d711610066578063a457c2d714610248578063a9059cbb1461025b578063d505accf1461026e578063dd62ed3e1461028157600080fd5b806340c10f19146101ed57806370a08231146102005780637ecebe001461022057806395d89b411461024057600080fd5b806330adf81f116100d357806330adf81f14610170578063313ce567146101975780633644e515146101d057806339509351146101d857600080fd5b806306fdde0314610105578063095ea7b31461012357806318160ddd1461014657806323b872dd1461015d575b600080fd5b61010d6102ac565b60405161011a9190610b7e565b60405180910390f35b610136610131366004610c1a565b61033a565b604051901515815260200161011a565b61014f60025481565b60405190815260200161011a565b61013661016b366004610c44565b6103b3565b61014f7f6e71edae12b1b97f4d1f60370fef10105fa2faae0126114a169c64845d6126c981565b6101be7f000000000000000000000000000000000000000000000000000000000000000081565b60405160ff909116815260200161011a565b61014f6104f7565b6101eb6101e6366004610c1a565b610552565b005b6101eb6101fb366004610c1a565b610599565b61014f61020e366004610c80565b60036020526000908152604090205481565b61014f61022e366004610c80565b60056020526000908152604090205481565b61010d6105a7565b6101eb610256366004610c1a565b6105b4565b610136610269366004610c1a565b6106bb565b6101eb61027c366004610ca2565b610740565b61014f61028f366004610d15565b600460209081526000928352604080842090915290825290205481565b600080546102b990610d48565b80601f01602080910402602001604051908101604052809291908181526020018280546102e590610d48565b80156103325780601f1061030757610100808354040283529160200191610332565b820191906000526020600020905b81548152906001019060200180831161031557829003601f168201915b505050505081565b33600081815260046020908152604080832073ffffffffffffffffffffffffffffffffffffffff8716808552925280832085905551919290917f8c5be1e5ebec7d5bd14f71427d1e84f3dd0314c0f7b2291e5b200ac8c7c3b925906103a29086815260200190565b60405180910390a350600192915050565b73ffffffffffffffffffffffffffffffffffffffff831660009081526004602090815260408083203384529091528120547fffffffffffffffffffffffffffffffffffffffffffffffffffffffffffffffff8114610447576104158382610dca565b73ffffffffffffffffffffffffffffffffffffffff861660009081526004602090815260408083203384529091529020555b73ffffffffffffffffffffffffffffffffffffffff85166000908152600360205260408120805485929061047c908490610dca565b909155505073ffffffffffffffffffffffffffffffffffffffff808516600081815260036020526040908190208054870190555190918716907fddf252ad1be2c89b69c2b068fc378daa952ba7f163c4a11628f55a4df523b3ef906104e49087815260200190565b60405180910390a3506001949350505050565b60007f0000000000000000000000000000000000000000000000000000000000000000461461052d57610528610a6c565b905090565b507f000000000000000000000000000000000000000000000000000000000000000090565b33600090815260046020908152604080832073ffffffffffffffffffffffffffffffffffffffff86168452909152902054610594908390610131908490610de1565b505050565b6105a38282610b06565b5050565b600180546102b990610d48565b33600090815260046020908152604080832073ffffffffffffffffffffffffffffffffffffffff86168452909152902054811115610679576040517f08c379a000000000000000000000000000000000000000000000000000000000815260206004820152602560248201527f45524332303a2064656372656173656420616c6c6f77616e63652062656c6f7760448201527f207a65726f00000000000000000000000000000000000000000000000000000060648201526084015b60405180910390fd5b33600090815260046020908152604080832073ffffffffffffffffffffffffffffffffffffffff86168452909152902054610594908390610131908490610dca565b336000908152600360205260408120805483919083906106dc908490610dca565b909155505073ffffffffffffffffffffffffffffffffffffffff8316600081815260036020526040908190208054850190555133907fddf252ad1be2c89b69c2b068fc378daa952ba7f163c4a11628f55a4df523b3ef906103a29086815260200190565b428410156107aa576040517f08c379a000000000000000000000000000000000000000000000000000000000815260206004820152601760248201527f5045524d49545f444541444c494e455f455850495245440000000000000000006044820152606401610670565b60006107b46104f7565b73ffffffffffffffffffffffffffffffffffffffff89811660008181526005602090815260409182902080546001810190915582517f6e71edae12b1b97f4d1f60370fef10105fa2faae0126114a169c64845d6126c98184015280840194909452938c166060840152608083018b905260a083019390935260c08083018a90528151808403909101815260e0830190915280519201919091207f190100000000000000000000000000000000000000000000000000000000000061010083015261010282019290925261012281019190915261014201604080517fffffffffffffffffffffffffffffffffffffffffffffffffffffffffffffffe08184030181528282528051602091820120600080855291840180845281905260ff88169284019290925260608301869052608083018590529092509060019060a0016020604051602081039080840390855afa158015610913573d6000803e3d6000fd5b50506040517fffffffffffffffffffffffffffffffffffffffffffffffffffffffffffffffe0015191505073ffffffffffffffffffffffffffffffffffffffff81161580159061098e57508873ffffffffffffffffffffffffffffffffffffffff168173ffffffffffffffffffffffffffffffffffffffff16145b6109f4576040517f08c379a000000000000000000000000000000000000000000000000000000000815260206004820152600e60248201527f494e56414c49445f5349474e45520000000000000000000000000000000000006044820152606401610670565b73ffffffffffffffffffffffffffffffffffffffff90811660009081526004602090815260408083208b8516808552908352928190208a905551898152919350918a16917f8c5be1e5ebec7d5bd14f71427d1e84f3dd0314c0f7b2291e5b200ac8c7c3b925910160405180910390a350505050505050565b60007f8b73c3c69bb8fe3d512ecc4cf759cc79239f7b179b0ffacaa9a75d522b39400f6000604051610a9e9190610df9565b6040805191829003822060208301939093528101919091527fc89efdaa54c0f20c7adf612882df0950f5a951637e0307cdcb4c672f298b8bc660608201524660808201523060a082015260c00160405160208183030381529060405280519060200120905090565b8060026000828254610b189190610de1565b909155505073ffffffffffffffffffffffffffffffffffffffff82166000818152600360209081526040808320805486019055518481527fddf252ad1be2c89b69c2b068fc378daa952ba7f163c4a11628f55a4df523b3ef910160405180910390a35050565b600060208083528351808285015260005b81811015610bab57858101830151858201604001528201610b8f565b81811115610bbd576000604083870101525b50601f017fffffffffffffffffffffffffffffffffffffffffffffffffffffffffffffffe016929092016040019392505050565b803573ffffffffffffffffffffffffffffffffffffffff81168114610c1557600080fd5b919050565b60008060408385031215610c2d57600080fd5b610c3683610bf1565b946020939093013593505050565b600080600060608486031215610c5957600080fd5b610c6284610bf1565b9250610c7060208501610bf1565b9150604084013590509250925092565b600060208284031215610c9257600080fd5b610c9b82610bf1565b9392505050565b600080600080600080600060e0888a031215610cbd57600080fd5b610cc688610bf1565b9650610cd460208901610bf1565b95506040880135945060608801359350608088013560ff81168114610cf857600080fd5b9699959850939692959460a0840135945060c09093013592915050565b60008060408385031215610d2857600080fd5b610d3183610bf1565b9150610d3f60208401610bf1565b90509250929050565b600181811c90821680610d5c57607f821691505b602082108103610d95577f4e487b7100000000000000000000000000000000000000000000000000000000600052602260045260246000fd5b50919050565b7f4e487b7100000000000000000000000000000000000000000000000000000000600052601160045260246000fd5b600082821015610ddc57610ddc610d9b565b500390565b60008219821115610df457610df4610d9b565b500190565b600080835481600182811c915080831680610e1557607f831692505b60208084108203610e4d577f4e487b710000000000000000000000000000000000000000000000000000000086526022600452602486fd5b818015610e615760018114610e9457610ec1565b7fffffffffffffffffffffffffffffffffffffffffffffffffffffffffffffff0086168952841515850289019650610ec1565b60008a81526020902060005b86811015610eb95781548b820152908501908301610ea0565b505084890196505b50949897505050505050505056fea2646970667358221220aaae64ce93403771419fca085536a62a77eec4ab13dc75c2f7d4eac5ce7a5a5464736f6c634300080f0033",
    "linkReferences": {}
  },
  "methodIdentifiers": {
    "DOMAIN_SEPARATOR()": "3644e515",
    "PERMIT_TYPEHASH()": "30adf81f",
    "allowance(address,address)": "dd62ed3e",
    "approve(address,uint256)": "095ea7b3",
    "balanceOf(address)": "70a08231",
    "decimals()": "313ce567",
    "decreaseAllowance(address,uint256)": "a457c2d7",
    "increaseAllowance(address,uint256)": "39509351",
    "mint(address,uint256)": "40c10f19",
    "name()": "06fdde03",
    "nonces(address)": "7ecebe00",
    "permit(address,address,uint256,uint256,uint8,bytes32,bytes32)": "d505accf",
    "symbol()": "95d89b41",
    "totalSupply()": "18160ddd",
    "transfer(address,uint256)": "a9059cbb",
    "transferFrom(address,address,uint256)": "23b872dd"
  },
  "id": 126
}